5000011404044663ISENTO        20160801MG011  0221435102P000000000385000000000000000000000000000000000000000000000000038500000N
5000084491183600ISENTO        20160801MG011  0221495102P000000000600000000000000000000000000000000000000000000000000060000000N
5000012660609608ISENTO        20160801MG011  0221485102P000000000728000000000000000000000000000000000000000000000000072800000N
5000004779200636ISENTO        20160801MG011  0221475102P000000002088700000000000000000000000000000000000000000000000208870000N
5000001378253663ISENTO        20160801MG011  0221465102P000000000600000000000000000000000000000000000000000000000000060000000N
5000013417752671ISENTO        20160801MG011  0221455102P000000002400000000000000000000000000000000000000000000000000240000000N
5000001234567890ISENTO        20160801MG011  0221385102P000000002200000000000000000000000000000000000000000000000000220000000N
5000053132106615ISENTO        20160801MG011  0221425102P000000000599000000000000000000000000000000000000000000000000059900000N
5000035415997822ISENTO        20160801MG011  0221415102P000000000599000000000000000000000000000000000000000000000000059900000N
5000029689805568ISENTO        20160801MG011  0221405102P000000002049000000000000000000000000000000000000000000000000204900000N
5000001234567890ISENTO        20160801MG011  0221445102P000000000500000000000000000000000000000000000000000000000000050000000N
5000001234567890ISENTO        20160801MG011  0221395102P000000000799000000000000000000000000000000000000000000000000079900000N
5000088795985620ISENTO        20160802MG011  0221505102P000000000349000000000000000000000000000000000000000000000000034900000N
5000005670814606ISENTO        20160802MG011  0221515102P000000001897500000000000000000000000000000000000000000000000189750000N
5000000669556610ISENTO        20160803MG011  0221525102P000000000914400000000000000000000000000000000000000000000000091440000N
5000002906003670ISENTO        20160804MG011  0221535102P000000001597000000000000000000000000000000000000000000000000159700000N
5000002114853659ISENTO        20160806MG011  0221545102P000000002648000000000000000000000000000000000000000000000000264800000N
5000001234567890ISENTO        20160806MG011  0221555102P000000000684800000000000000000000000000000000000000000000000068480000N
5000006039315610ISENTO        20160808MG011  0221695102P000000002258000000000000000000000000000000000000000000000000225800000N
5000001234567890ISENTO        20160808MG011  0221685102P000000000499000000000000000000000000000000000000000000000000049900000N
5000001234567890ISENTO        20160808MG011  0221675102P000000000073000000000000000000000000000000000000000000000000007300000N
5000001234567890ISENTO        20160808MG011  0221665102P000000000140000000000000000000000000000000000000000000000000014000000N
5000009922631660ISENTO        20160808MG011  0221655102P000000004246000000000000000000000000000000000000000000000000424600000N
5000013095280637ISENTO        20160808MG011  0221635102P000000001499000000000000000000000000000000000000000000000000149900000N
5000007681319603ISENTO        20160808MG011  0221645102P000000000199000000000000000000000000000000000000000000000000019900000N
5000012823225676ISENTO        20160808MG011  0221585102P000000001599000000000000000000000000000000000000000000000000159900000N
5000007736962618ISENTO        20160808MG011  0221565102P000000002100000000000000000000000000000000000000000000000000210000000N
5000010381168646ISENTO        20160808MG011  0221575102P000000001718400000000000000000000000000000000000000000000000171840000N
5000013804258670ISENTO        20160808MG011  0221625102P000000003697000000000000000000000000000000000000000000000000369700000N
5000088029506600ISENTO        20160808MG011  0221595102P000000002048000000000000000000000000000000000000000000000000204800000N
5000001234567890ISENTO        20160808MG011  0221605102P000000003500000000000000000000000000000000000000000000000000350000000N
5000013079802608ISENTO        20160808MG011  0221615102P000000001198000000000000000000000000000000000000000000000000119800000N
5000006935709628ISENTO        20160809MG011  0221825102P000000000600000000000000000000000000000000000000000000000000060000000N
5000010296307637ISENTO        20160809MG011  0221835102P000000001481600000000000000000000000000000000000000000000000148160000N
5000004109529662ISENTO        20160809MG011  0221845102P000000000599000000000000000000000000000000000000000000000000059900000N
5000003328486631ISENTO        20160809MG011  0221855102P000000000947000000000000000000000000000000000000000000000000094700000N
5000009698715622ISENTO        20160809MG011  0221815102P000000006749000000000000000000000000000000000000000000000000674900000N
5000013926505699ISENTO        20160809MG011  0221865102P000000001099000000000000000000000000000000000000000000000000109900000N
5000005598425629ISENTO        20160809MG011  0221875102P000000004446000000000000000000000000000000000000000000000000444600000N
5000006899968614ISENTO        20160809MG011  0221885102P000000001099000000000000000000000000000000000000000000000000109900000N
5000011498045642ISENTO        20160809MG011  0221895102P000000002648000000000000000000000000000000000000000000000000264800000N
5000009495104670ISENTO        20160809MG011  0221905102P000000001598000000000000000000000000000000000000000000000000159800000N
5000011724888609ISENTO        20160809MG011  0221775102P000000003225000000000000000000000000000000000000000000000000322500000N
5000010296307637ISENTO        20160809MG011  0221805102P000000005000000000000000000000000000000000000000000000000000500000000N
5000001319093639ISENTO        20160809MG011  0221795102P000000001200000000000000000000000000000000000000000000000000120000000N
5000012957594625ISENTO        20160809MG011  0221785102P000000003164000000000000000000000000000000000000000000000000316400000N
5000085042854649ISENTO        20160809MG011  0221755102P000000002198000000000000000000000000000000000000000000000000219800000N
5000088029506600ISENTO        20160809MG011  0221745102P000000001765600000000000000000000000000000000000000000000000176560000N
5000007947728623ISENTO        20160809MG011  0221735102P000000001399000000000000000000000000000000000000000000000000139900000N
5000020600402649ISENTO        20160809MG011  0221725102P000000012537000000000000000000000000000000000000000000000001253700000N
5000013358087603ISENTO        20160809MG011  0221715102P000000001199000000000000000000000000000000000000000000000000119900000N
5000000296394688ISENTO        20160809MG011  0221705102P000000002049000000000000000000000000000000000000000000000000204900000N
5000012777829624ISENTO        20160810MG011  0222095102P000000001199000000000000000000000000000000000000000000000000119900000N
5000001396174699ISENTO        20160810MG011  0222085102P000000002448000000000000000000000000000000000000000000000000244800000N
5000000041381637ISENTO        20160810MG011  0222105102P000000000799000000000000000000000000000000000000000000000000079900000N
5000001234567890ISENTO        20160810MG011  0222115102P000000000500000000000000000000000000000000000000000000000000050000000N
5000011385721600ISENTO        20160810MG011  0222075102P000000001349000000000000000000000000000000000000000000000000134900000N
5000001234567890ISENTO        20160810MG011  0222055102P000000000499000000000000000000000000000000000000000000000000049900000N
5000000789190613ISENTO        20160810MG011  0222045102P000000000419300000000000000000000000000000000000000000000000041930000N
5000008326598607ISENTO        20160810MG011  0222125102P000000001498000000000000000000000000000000000000000000000000149800000N
5000005867397696ISENTO        20160810MG011  0222135102P000000002599000000000000000000000000000000000000000000000000259900000N
5000013567986678ISENTO        20160810MG011  0222145102P000000000976700000000000000000000000000000000000000000000000097670000N
5000011700310640ISENTO        20160810MG011  0222155102P000000003595000000000000000000000000000000000000000000000000359500000N
5000007469994610ISENTO        20160810MG011  0222165102P000000001349000000000000000000000000000000000000000000000000134900000N
5000012044268647ISENTO        20160810MG011  0222175102P000000001537000000000000000000000000000000000000000000000000153700000N
5000006759535618ISENTO        20160810MG011  0222065102P000000001795000000000000000000000000000000000000000000000000179500000N
5000005309545670ISENTO        20160810MG011  0221965102P000000002598000000000000000000000000000000000000000000000000259800000N
5000010963543652ISENTO        20160810MG011  0221915102P000000001189200000000000000000000000000000000000000000000000118920000N
5000008623134656ISENTO        20160810MG011  0221925102P000000001485800000000000000000000000000000000000000000000000148580000N
5000001234567890ISENTO        20160810MG011  0221935102P000000000041500000000000000000000000000000000000000000000000004150000N
5000011384679600ISENTO        20160810MG011  0221945102P000000000899000000000000000000000000000000000000000000000000089900000N
5000000296394688ISENTO        20160810MG011  0221955102P000000000742600000000000000000000000000000000000000000000000074260000N
5000012776308604ISENTO        20160810MG011  0222035102P000000004713000000000000000000000000000000000000000000000000471300000N
5000073367869600ISENTO        20160810MG011  0221975102P000000001399000000000000000000000000000000000000000000000000139900000N
5000006571362635ISENTO        20160810MG011  0221985102P000000002398000000000000000000000000000000000000000000000000239800000N
5000001234567890ISENTO        20160810MG011  0221995102P000000006000000000000000000000000000000000000000000000000000600000000N
5000010138430616ISENTO        20160810MG011  0222005102P000000000399000000000000000000000000000000000000000000000000039900000N
5000020600402649ISENTO        20160810MG011  0222015102P000000000264700000000000000000000000000000000000000000000000026470000N
5000004056826625ISENTO        20160810MG011  0222025102P000000004800000000000000000000000000000000000000000000000000480000000N
5000009944555690ISENTO        20160811MG011  0222335102P000000002396000000000000000000000000000000000000000000000000239600000N
5000001234567890ISENTO        20160811MG011  0222325102P000000001180000000000000000000000000000000000000000000000000118000000N
5000008152442666ISENTO        20160811MG011  0222345102P000000001587000000000000000000000000000000000000000000000000158700000N
5000001234567890ISENTO        20160811MG011  0222315102P000000001330000000000000000000000000000000000000000000000000133000000N
5000007619645683ISENTO        20160811MG011  0222305102P000000000799000000000000000000000000000000000000000000000000079900000N
5000011447126610ISENTO        20160811MG011  0222295102P000000002097000000000000000000000000000000000000000000000000209700000N
5000095061207653ISENTO        20160811MG011  0222385102P000000001899000000000000000000000000000000000000000000000000189900000N
5000008152442666ISENTO        20160811MG011  0222365102P000000002525000000000000000000000000000000000000000000000000252500000N
5000001923924680ISENTO        20160811MG011  0222375102P000000001449000000000000000000000000000000000000000000000000144900000N
5000003827152682ISENTO        20160811MG011  0222395102P000000002698000000000000000000000000000000000000000000000000269800000N
5000073736481691ISENTO        20160811MG011  0222415102P000000003047000000000000000000000000000000000000000000000000304700000N
5000012149537605ISENTO        20160811MG011  0222405102P000000001949000000000000000000000000000000000000000000000000194900000N
5000001234567890ISENTO        20160811MG011  0222225102P000000002600000000000000000000000000000000000000000000000000260000000N
5000001234567890ISENTO        20160811MG011  0222185102P000000000399000000000000000000000000000000000000000000000000039900000N
5000013095280637ISENTO        20160811MG011  0222195102P000000002400000000000000000000000000000000000000000000000000240000000N
5000001234567890ISENTO        20160811MG011  0222205102P000000001299000000000000000000000000000000000000000000000000129900000N
5000001234567890ISENTO        20160811MG011  0222215102P000000000499000000000000000000000000000000000000000000000000049900000N
5000011700310640ISENTO        20160811MG011  0222285102P000000001492900000000000000000000000000000000000000000000000149290000N
5000006321609692ISENTO        20160811MG011  0222235102P000000003999000000000000000000000000000000000000000000000000399900000N
5000001234567890ISENTO        20160811MG011  0222245102P000000001000000000000000000000000000000000000000000000000000100000000N
5000011724888609ISENTO        20160811MG011  0222255102P000000000413100000000000000000000000000000000000000000000000041310000N
5000026208912806ISENTO        20160811MG011  0222265102P000000000600000000000000000000000000000000000000000000000000060000000N
5000001234567890ISENTO        20160811MG011  0222275102P000000000520000000000000000000000000000000000000000000000000052000000N
5000006759535618ISENTO        20160812MG011  0222465102P000000000399000000000000000000000000000000000000000000000000039900000N
5000001234567890ISENTO        20160812MG011  0222455102P000000000079000000000000000000000000000000000000000000000000007900000N
5000001234567890ISENTO        20160812MG011  0222425102P000000001640000000000000000000000000000000000000000000000000164000000N
5000007679036683ISENTO        20160812MG011  0222445102P000000002199000000000000000000000000000000000000000000000000219900000N
5000096565691649ISENTO        20160812MG011  0222435102P000000004146000000000000000000000000000000000000000000000000414600000N
5000003525782624ISENTO        20160815MG011  0222475102P000000000498000000000000000000000000000000000000000000000000049800000N
5000001234567890ISENTO        20160815MG011  0222485102P000000000616500000000000000000000000000000000000000000000000061650000N
5000009352297601ISENTO        20160815MG011  0222495102P000000001798000000000000000000000000000000000000000000000000179800000N
5000003911018622ISENTO        20160816MG011  0222505102P000000000549000000000000000000000000000000000000000000000000054900000N
5000001234567890ISENTO        20160816MG011  0222515102P000000000499000000000000000000000000000000000000000000000000049900000N
5000013079802608ISENTO        20160816MG011  0222525102P000000000449000000000000000000000000000000000000000000000000044900000N
5000096619880649ISENTO        20160817MG011  0222605102P000000000899000000000000000000000000000000000000000000000000089900000N
5000065739752604ISENTO        20160817MG011  0222615102P000000000737700000000000000000000000000000000000000000000000073770000N
5000066299993634ISENTO        20160817MG011  0222595102P000000000789500000000000000000000000000000000000000000000000078950000N
5000009352297601ISENTO        20160817MG011  0222625102P000000000899000000000000000000000000000000000000000000000000089900000N
5000001948114682ISENTO        20160817MG011  0222635102P000000001998000000000000000000000000000000000000000000000000199800000N
5000002308253622ISENTO        20160817MG011  0222535102P000000000999000000000000000000000000000000000000000000000000099900000N
5000004237279669ISENTO        20160817MG011  0222585102P000000000467300000000000000000000000000000000000000000000000046730000N
5000007947728623ISENTO        20160817MG011  0222575102P000000003648000000000000000000000000000000000000000000000000364800000N
5000001234567890ISENTO        20160817MG011  0222565102P000000001613000000000000000000000000000000000000000000000000161300000N
5000008254831661ISENTO        20160817MG011  0222555102P000000000649000000000000000000000000000000000000000000000000064900000N
5000069222070682ISENTO        20160817MG011  0222545102P000000000899000000000000000000000000000000000000000000000000089900000N
5000001234567890ISENTO        20160818MG011  0222645102P000000001357000000000000000000000000000000000000000000000000135700000N
5000011054974616ISENTO        20160818MG011  0222655102P000000001349000000000000000000000000000000000000000000000000134900000N
5000009497576676ISENTO        20160820MG011  0222675102P000000001299000000000000000000000000000000000000000000000000129900000N
5000040458245615ISENTO        20160820MG011  0222665102P000000003596000000000000000000000000000000000000000000000000359600000N
5000010381168646ISENTO        20160823MG011  0222685102P000000000882500000000000000000000000000000000000000000000000088250000N
5000001234567890ISENTO        20160823MG011  0222695102P000000001199000000000000000000000000000000000000000000000000119900000N
5000009514008600ISENTO        20160823MG011  0222705102P000000003796000000000000000000000000000000000000000000000000379600000N
5000004669839802ISENTO        20160823MG011  0222715102P000000002698000000000000000000000000000000000000000000000000269800000N
5000006050561613ISENTO        20160824MG011  0222725102P000000002008900000000000000000000000000000000000000000000000200890000N
5000002314011678ISENTO        20160827MG011  0222735102P000000000899000000000000000000000000000000000000000000000000089900000N
5000010649845684ISENTO        20160829MG011  0222745102P000000002049000000000000000000000000000000000000000000000000204900000N
5000085000345649ISENTO        20160830MG011  0222755102P000000001298000000000000000000000000000000000000000000000000129800000N
752016080120160831100731        62121000DULOREN 132205 VERMELHO                              PC    000000000000000000000000000
752016080120160831110567                LUPO 4535 MULTICOLOR                                 PR    000000000000000000000000000
752016080120160831110569        61159500LUPO 2725 SPORT KIT3 MULTICOLOR                      UN    000000000000000000000000000
752016080120160831118104        62045900DANUTA 001115933DA AZUL                              PC    000000000000000000000000000
752016080120160831122066        62064000ENFASE 241523 PINK                                   PC    000000000000000000000000000
752016080120160831122837        62046200AKIYOSHI 3031 AZUL                                   PC    000000000000000000000000000
752016080120160831124122        61159500LUPO 4582 APLICATIVO MULTICOLOR                      UN    000000000000000000000000000
752016080120160831124125        61153010LUPO 553001 LOBA PRETO                               UN    000000000000000000000000000
752016080120160831124604        62046200DELUX 0030049 AZUL                                   PC    000000000000000000000000000
752016080120160831126816        62114900MIAGGE 102A AZUL                                     PC    000000000000000000000000000
752016080120160831127146        61046200K2B 90040022 JEANS                                   PC    000000000000000000000000000
752016080120160831128543        61123100DELUX 30033 AZUL                                     PC    000000000000000000000000000
752016080120160831128762        62079100SALLO 33902 MULTICOLOR                               PC    000000000000000000000000000
752016080120160831130356        62046900SET JEANS 2060 AZUL                                  PC    000000000000000000000000000
752016080120160831131683        62046900SET JEANS 2013 AZUL                                  PC    000000000000000000000000000
752016080120160831131685        62046900SET JEANS 2013 AZUL                                  PC    000000000000000000000000000
752016080120160831133808        62046200CROCKER 41410 BRANCO                                 PC    000000000000000000000000000
752016080120160831133811        62046200CROCKER 40002 AZUL                                   PC    000000000000000000000000000
752016080120160831133816        62046200CROCKER 39544 AZUL                                   PC    000000000000000000000000000
752016080120160831133822        62046200CROCKER 43011 AZUL                                   PC    000000000000000000000000000
752016080120160831134092        62046200MIAGGE 104 AZUL                                      PC    000000000000000000000000000
752016080120160831136759        61159600LUPO 3310 PRETO                                      PR    000000000000000000000000000
752016080120160831139919        62046200ENFASE 341246 ESTAMPADO                              PC    000000000000000000000000000
752016080120160831140684        61159900ELITE 017026 VERMELHO                                UN    000000000000000000000000000
752016080120160831140731        62046300ELITE 019923 PRETO                                   PC    000000000000000000000000000
752016080120160831140749        61062000ELITE 119053 PRETO                                   PC    000000000000000000000000000
752016080120160831142722        62121000DULOREN 131208 BERINJELA                             PC    000000000000000000000000000
752016080120160831144277        62044300ENFASE 341550 PRETO                                  PC    000000000000000000000000000
752016080120160831145284        61034300SALLO 73165 ESTAMPADO                                PC    000000000000000000000000000
752016080120160831149116        61102000ROVITEX 9180605 MULTICOLOR                           PC    000000000000000000000000000
752016080120160831151010        62046300ELITE 33644 ROSA                                     PR    000000000000000000000000000
752016080120160831153566        62171000AMERICA 3200639 MULTICOLOR                           UN    000000000000000000000000000
752016080120160831155733        42033000FASOLO T136074 PRETO                                 UN    000000000000000000000000000
752016080120160831155860        62045200ENFASE 151460 VINHO                                  PC    000000000000000000000000000
752016080120160831159420        000000  LANGER LINHAS 4040 LISTRADO                          PC    000000000000000000000000000
752016080120160831159437        000000  LANGER LINHAS 10075 ESTAMPADO                        PC    000000000000000000000000000
752016080120160831160499        65069000CLUB MAD 24AR MULTICOLOR                             UN    000000000000000000000000000
752016080120160831160554        62034200BREDA 2621007 MULTICOLOR                             PC    000000000000000000000000000
752016080120160831160749        62114200CUBO-CUBO 984201512 ESTAMPADO                        PC    000000000000000000000000000
752016080120160831160759        32044200CUBO-CUBO 588701549 ESTAMPADO                        PC    000000000000000000000000000
752016080120160831161439        62034200OPPNUS 2085 AZUL                                     PC    000000000000000000000000000
752016080120160831162193        65050012NICOBOCO 68477 MULTICOLOR                            UN    000000000000000000000000000
752016080120160831163153        61061000MALWEE 1018000021 MULTICOLOR                         PC    000000000000000000000000000
752016080120160831163851        61012000UNO 018 AZUL                                         PC    000000000000000000000000000
752016080120160831164200        61091000ACOSTAMENTO 65102154 MULTICOLOR                      PC    000000000000000000000000000
752016080120160831165704        62052000SANTORINE 24 SORTIDO                                 PC    000000000000000000000000000
752016080120160831165733        62046900OPCAO UNICA 01500 JEANS                              PC    000000000000000000000000000
752016080120160831165736        62046900OPCAO UNICA 01500 JEANS                              PC    000000000000000000000000000
752016080120160831165757        62046900OPCAO UNICA 00115 JEANS                              PC    000000000000000000000000000
752016080120160831168114        62079101SALLO 73401 MULTICOLOR                               PC    000000000000000000000000000
752016080120160831169249        62046200PO DE PANO 84156 AZUL                                PC    000000000000000000000000000
752016080120160831169794        10180007MALWEE 1018000008 MULTICOLOR                         PC    000000000000000000000000000
752016080120160831169803        10180007MALWEE 1020000098 MULTICOLOR                         PC    000000000000000000000000000
752016080120160831170256        62046200PO DE PANO 8939 XADREZ                               PC    000000000000000000000000000
752016080120160831170313        62042000PO DO PANO 86177 CORAL                               PC    000000000000000000000000000
752016080120160831170458        42022200LUCXEL NC14189LX ESTAMPADO                           UN    000000000000000000000000000
752016080120160831170460        40200010LUCXEL NC14190LX ESTAMPADO                           UN    000000000000000000000000000
752016080120160831170461        42201200LUCXEL FR12013LX MULTICOLOR                          UN    000000000000000000000000000
752016080120160831170970        61111200SELENE 4910001 MULTICOLOR                            UN    000000000000000000000000000
752016080120160831171109        62052000D CLASSE 0010 AZUL                                   PC    000000000000000000000000000
752016080120160831171554        62046200CRIATIVA 79 AZUL                                     PC    000000000000000000000000000
752016080120160831173055        62046200PO DO PANO  8372 CAFE                                PC    000000000000000000000000000
752016080120160831175054        61061000SANTORINE 18 MULTICOLOR                              PC    000000000000000000000000000
752016080120160831180917        62421000DULOREN 132296 BRANCO                                PC    000000000000000000000000000
752016080120160831181581        62034300TRAJETTUS 8053 MULTICOLOR                            PC    000000000000000000000000000
752016080120160831182104        61091000NICOBOCO 17057 MULTICOLOR                            PC    000000000000000000000000000
752016080120160831182230        61091000OCCY 104404 MULTICOLOR                               PC    000000000000000000000000000
752016080120160831183001        61012000UNO 031 AZUL                                         PC    000000000000000000000000000
752016080120160831183006        61012000UNO 031 AZUL                                         PC    000000000000000000000000000
752016080120160831184506        61034300ELITE 23225 MULTICOLOR                               PC    000000000000000000000000000
752016080120160831184780        61066100SEEDER 95 MULTICOLOR                                 PC    000000000000000000000000000
752016080120160831185871        61044200SIGOSTA 011783 MULTICOLOR                            PC    000000000000000000000000000
752016080120160831185874        61044200SIGOSTA 011783 MULTICOLOR                            PC    000000000000000000000000000
752016080120160831186697        62045900DANUTA 101120 MULTICOLOR                             PC    000000000000000000000000000
752016080120160831186700        62045900DANUTA 101120 MULTICOLOR                             PC    000000000000000000000000000
752016080120160831186888        61022000LEPOLL 221 MULTICOLOR                                PC    000000000000000000000000000
752016080120160831186980        62045900FARRAGUT 101054 MULTICOLOR                           PC    000000000000000000000000000
752016080120160831186982        62045900FARRAGUT 101054 MULTICOLOR                           PC    000000000000000000000000000
752016080120160831187035        62045900FARRAGUT 101084 MULTICOLOR                           PC    000000000000000000000000000
752016080120160831187037        62045900FARRAGUT 101084 MULTICOLOR                           PC    000000000000000000000000000
752016080120160831187150        62045900AUDACIA 100970 AZUL                                  PC    000000000000000000000000000
752016080120160831187834        64046900PIT BULL  8532 MULTICOLOR                            PC    000000000000000000000000000
752016080120160831188191        62046200PO DO PANO 8768 PRETO                                PC    000000000000000000000000000
752016080120160831189550        62034200PARIZI 24956Z AZUL                                   PC    000000000000000000000000000
752016080120160831189925        63034900BREDA 02631004 MULTICOLOR                            PC    000000000000000000000000000
752016080120160831189943        62034200BREDA 02621020 BEGE                                  PC    000000000000000000000000000
752016080120160831190240        08687004BREDA 08687004 MULTICOLOR                            UN    000000000000000000000000000
752016080120160831190497        42033000BAUATE 00161460045 MULTICOLOR                        UN    000000000000000000000000000
752016080120160831191145        62034200DELIZ W91029 AZUL                                    PC    000000000000000000000000000
752016080120160831192429        61119090BRASCOL 581932 MULTICOLOR                            UN    000000000000000000000000000
752016080120160831192753        62046200OPPNUS 2298 AZUL                                     PC    000000000000000000000000000
752016080120160831193375        62046200CRIATIVA 80 AZUL                                     PC    000000000000000000000000000
752016080120160831193671        61071100LUPO 515 MULTICOLOR                                  KIT   000000000000000000000000000
752016080120160831193899        61112000BRASCOL 517440 MULTICOLOR                            UN    000000000000000000000000000
752016080120160831194282        61071200SALLO 70129 MULTICOLOR                               KIT   000000000000000000000000000
752016080120160831194645        61159500LUPO 3245 MULTICOLOR                                 PR    000000000000000000000000000
752016080120160831194646        61159500LUPO 3245 MULTICOLOR                                 PR    000000000000000000000000000
752016080120160831194674        61153010LUPO 5530 MULTICOLOR                                 PC    000000000000000000000000000
752016080120160831195558        62046200UNO 02 AZUL                                          PC    000000000000000000000000000
752016080120160831195593        62046200UNO 003 AZUL                                         PC    000000000000000000000000000
752016080120160831196582        62046200ELUIS 145393 AZUL                                    PC    000000000000000000000000000
752016080120160831197676        61044900TRAJETTUS 7135 MULTICOLOR                            PC    000000000000000000000000000
752016080120160831197727        61044900TRAJETTUS 7136 ESTAMPADO                             UN    000000000000000000000000000
752016080120160831197750        61044900TRAJETTUS 7138 ESTAMPADO                             PC    000000000000000000000000000
752016080120160831197961        61052000ELITE 125309 MULTICOLOR                              PC    000000000000000000000000000
752016080120160831198016        61034300ELITE 1050 MULTICOLOR                                PC    000000000000000000000000000
752016080120160831200054        62096000CRIATIVA 0010 AZUL                                   PC    000000000000000000000000000
752016080120160831200058        62096000CRIATIVA 0010 AZUL                                   PC    000000000000000000000000000
752016080120160831201434        61112000TAMPINHA 2002A MULTICOLOR                            PC    000000000000000000000000000
752016080120160831201473        61112000TAMPINHA 2007A MULTICOLOR                            PC    000000000000000000000000000
752016080120160831201481        61112000TAMPINHA 2008A MULTICOLOR                            PC    000000000000000000000000000
752016080120160831201729        61112000PETIPETA 650 MULTICOLOR                              UN    000000000000000000000000000
752016080120160831201730        61112000PETIPETA 670 MULTICOLOR                              PC    000000000000000000000000000
752016080120160831201731        61112000PETIPETA 682 MULTICOLOR                              UN    000000000000000000000000000
752016080120160831201735        61112000PETIPETA 664 MULTICOLOR                              UN    000000000000000000000000000
752016080120160831201877        61112000BRASCOL 742583 MULTICOLOR                            PC    000000000000000000000000000
752016080120160831202003        61112000BRASCOL 753788 MULTICOLOR                            PC    000000000000000000000000000
752016080120160831202244        39249000BRASCOL 709452 MULTICOLOR                            KIT   000000000000000000000000000
752016080120160831202687        62079910SALLO 34549 MULTICOLOR                               PC    000000000000000000000000000
752016080120160831203973        62032200SANTORINE 50 MULTICOLOR                              PC    000000000000000000000000000
752016080120160831204113        62034200NICOBOCO 42431E MULTICOLOR                           PC    000000000000000000000000000
752016080120160831204836        61061000PIMENTINHA 2007 MULTICOLOR                           PC    000000000000000000000000000
752016080120160831206512        61051000SEEDER 00106 MULTICOLOR                              PC    000000000000000000000000000
752016080120160831208482        61061000MALWEE 4488 MULTICOLOR                               PC    000000000000000000000000000
752016080120160831208497        61061000MALWEE 4499 MULTICOLOR                               PC    000000000000000000000000000
752016080120160831208517        61061000MALWEE 5164 MULTICOLOR                               PC    000000000000000000000000000
752016080120160831208764        62046200UNO 001 MULTICOLOR                                   PC    000000000000000000000000000
752016080120160831208765        62046200UNO 001 MULTICOLOR                                   PC    000000000000000000000000000
752016080120160831208767        62046200UNO 001 MULTICOLOR                                   PC    000000000000000000000000000
752016080120160831208812        62046200UNO 018 MULTICOLOR                                   PC    000000000000000000000000000
752016080120160831208827        62046200UNO 02 AZUL                                          PC    000000000000000000000000000
752016080120160831208828        62046200UNO 01 AZUL                                          PC    000000000000000000000000000
752016080120160831213529        62034200PO DO PANO 94114 PRETO                               PC    000000000000000000000000000
752016080120160831213892        62034200COOKS 4328 AZUL                                      PC    000000000000000000000000000
752016080120160831214267        62046200UNO 05 MULTICOLOR                                    PC    000000000000000000000000000
752016080120160831214268        62046200UNO 05 MULTICOLOR                                    PC    000000000000000000000000000
752016080120160831214269        62046200UNO 05 MULTICOLOR                                    PC    000000000000000000000000000
752016080120160831214277        62046200UNO 010 AZUL                                         PC    000000000000000000000000000
752016080120160831215933        61082100FOLLY 332 MULTICOLOR                                 KIT   000000000000000000000000000
752016080120160831216064        62171000MAVE BABY 3004 ROSA                                  UN    000000000000000000000000000
752016080120160831216459        62063000UNO 040 AZUL                                         PC    000000000000000000000000000
752016080120160831217049        62046200OPPNUS 2872 AZUL                                     PC    000000000000000000000000000
752016080120160831217184        61013000MARESIA 19100031 MULTICOLOR                          PC    000000000000000000000000000
752016080120160831217945        61089900PARADELLAS 098 ESTAMPADO                             PC    000000000000000000000000000
752016080120160831218464        62063000UNO 007 AZUL                                         PC    000000000000000000000000000
752016080120160831218470        62046200UNO 0190 AZUL                                        PC    000000000000000000000000000
752016080120160831218471        62046200UNO 0190 AZUL                                        PC    000000000000000000000000000
752016080120160831219268        62046200CRIATIVA 48 AZUL                                     PC    000000000000000000000000000
752016080120160831219429        62046200UNO 004 AZUL                                         PC    000000000000000000000000000
752016080120160831219733        61159500LUPO 2011 MULTICOLOR                                 PR    000000000000000000000000000
752016080120160831219889        62046200PO DO PANO 9231 MULTICOLOR                           PC    000000000000000000000000000
752016080120160831220394        62044200JAMMAB 1250 ESTAMPADO                                PC    000000000000000000000000000
752016080120160831220826        61091000NICOBOCO 13779 MULTICOLOR                            PC    000000000000000000000000000
752016080120160831221120        62069000SEMORAN 1221076 MULTICOLOR                           PC    000000000000000000000000000
752016080120160831221122        62069000SEMORAN 1221076 MULTICOLOR                           PC    000000000000000000000000000
752016080120160831221133        62096000SEMORAN 122571 MULTICOLOR                            PC    000000000000000000000000000
752016080120160831221136        62069000SEMORAN 15910 MULTICOLOR                             PC    000000000000000000000000000
752016080120160831221137        62069000SEMORAN 15910 MULTICOLOR                             PC    000000000000000000000000000
752016080120160831221154        62069000SEMORAN 090301 MULTICOLOR                            PC    000000000000000000000000000
752016080120160831221362        61041990IL SOLE 16010 AZUL                                   PC    000000000000000000000000000
752016080120160831221468        61112000PARKINHO 3756 MULTICOLOR                             PC    000000000000000000000000000
752016080120160831221516        61112000PARKINHO 3957 MULTICOLOR                             PC    000000000000000000000000000
752016080120160831222045        62063000CUBO CUBO 160015724 MULTICOLOR                       PC    000000000000000000000000000
752016080120160831222358        62052000PATRULHA 3010 MULTICOLOR                             PC    000000000000000000000000000
752016080120160831222542        62092000PATRULHA 4001 MULTICOLOR                             PC    000000000000000000000000000
752016080120160831222801        94049000BRASCOL 775698 ESTAMPADO                             PC    000000000000000000000000000
752016080120160831223138        42022210LUXCEL BG70759 MULTICOLOR                            PC    000000000000000000000000000
752016080120160831223382        96160000BRASCOL 69499 BRANCO                                 PC    000000000000000000000000000
752016080120160831224021        61112000BRASCOL 7707 MULTICOLOR                              PC    000000000000000000000000000
752016080120160831224039        61112000BRASCOL 7508 MULTICOLOR                              PC    000000000000000000000000000
752016080120160831224095        61112000BRASCOL 77 MULTICOLOR                                PC    000000000000000000000000000
752016080120160831224345        61112000BRASCOL 773 MULTICOLOR                               PC    000000000000000000000000000
752016080120160831224388        63013000BRASCOL 689763 MULTICOLOR                            PC    000000000000000000000000000
752016080120160831224496        61112000BRASCOL 79800 MULTICOLOR                             PC    000000000000000000000000000
752016080120160831224503        61119090BRASCOL 778 MULTICOLOR                               PC    000000000000000000000000000
752016080120160831224505        61119090BRASCOL 778 MULTICOLOR                               PC    000000000000000000000000000
752016080120160831224776        62034200OPPNUS 2838 AZUL                                     PC    000000000000000000000000000
752016080120160831224777        62034200OPPNUS 2838 AZUL                                     PC    000000000000000000000000000
752016080120160831224937        0       LANGER LINHAS 1051 MULTICOLOR                        PC    000000000000000000000000000
752016080120160831224955        0       LANGER LINHAS 10071 MULTICOLOR                       PC    000000000000000000000000000
752016080120160831225049        61022000LEPOLL 002 MULTICOLOR                                PC    000000000000000000000000000
752016080120160831225275        61034900PAYLOT 5 MULTICOLOR                                  PC    000000000000000000000000000
752016080120160831225346        62045900FARRAGUT 101577 AZUL                                 PC    000000000000000000000000000
752016080120160831225378        62045900FARRAGUT 101676 ESTAMPADO                            PC    000000000000000000000000000
752016080120160831225380        62045900FARRAGUT 101676 ESTAMPADO                            PC    000000000000000000000000000
752016080120160831225381        62045900FARRAGUT 101676 ESTAMPADO                            PC    000000000000000000000000000
752016080120160831226232        61051000SEEDER 133 MULTICOLOR                                PC    000000000000000000000000000
752016080120160831226256        61051000SEEDER 117 MULTICOLOR                                PC    000000000000000000000000000
752016080120160831226258        61051000SEEDER 117 MULTICOLOR                                PC    000000000000000000000000000
752016080120160831226281        61051000SEEDER 127 MULTICOLOR                                PC    000000000000000000000000000
752016080120160831226344        62063000UNO 15M MOSTARDA                                     PC    000000000000000000000000000
752016080120160831226345        62063000UNO 15M MOSTARDA                                     PC    000000000000000000000000000
752016080120160831226347        62063000UNO 15M MOSTARDA                                     PC    000000000000000000000000000
752016080120160831226549        61071200LUPO 00128 MULTICOLOR                                PC    000000000000000000000000000
752016080120160831226555        61071100LUPO 00141 MULTICOLOR                                PC    000000000000000000000000000
752016080120160831226598        61071100LUPO 00523 MULTICOLOR                                PC    000000000000000000000000000
752016080120160831226599        61071100LUPO 00523 MULTICOLOR                                PC    000000000000000000000000000
752016080120160831226612        61071200LUPO 00621 MULTICOLOR                                PC    000000000000000000000000000
752016080120160831227135        62046200OPPNUS 2884 AZUL                                     PC    000000000000000000000000000
752016080120160831228680        62046900SET JEANS 3521 AZUL                                  PC    000000000000000000000000000
752016080120160831230127        61051000MALWEE 11643 MULTICOLOR                              PC    000000000000000000000000000
752016080120160831230429        000000  01V MULTICOLOR                                       PC    000000000000000000000000000
752016080120160831230783        62034200PO DO PANO 9724 CINZA                                PC    000000000000000000000000000
752016080120160831230813        62046200PO DO PANO 91153 AZUL                                PC    000000000000000000000000000
752016080120160831230814        62046200PO DO PANO 91153 AZUL                                PC    000000000000000000000000000
752016080120160831230831        61062000DI PAULA 110012 MULTICOLOR                           PC    000000000000000000000000000
752016080120160831230910        61046300DI PAULA 170032 MULTICOLOR                           PC    000000000000000000000000000
752016080120160831230934        61046300DI PAULA 170016 MULTICOLOR                           PC    000000000000000000000000000
752016080120160831230976        61062300DI PAULA 110067 MULTICOLOR                           PC    000000000000000000000000000
752016080120160831231656        62053000D CLASSE 30351000 MULTICOLOR                         PC    000000000000000000000000000
752016080120160831232256        62046200UNO 19F AZUL                                         PC    000000000000000000000000000
752016080120160831232311        62034300ELITE 34285 MULTICOLOR                               PC    000000000000000000000000000
752016080120160831233000        62034200DELIZ KW1 MULTICOLOR                                 PC    000000000000000000000000000
752016080120160831233038        61091000MARESIA 11100033 MULTICOLOR                          PC    000000000000000000000000000
752016080120160831234146        61051000PIMENTINHA 2247 MULTICOLOR                           PC    000000000000000000000000000
752016080120160831235141        62046200UNO 16B MULTICOLOR                                   PC    000000000000000000000000000
752016080120160831236081        62052000D CLASSE 14 MULTICOLOR                               PC    000000000000000000000000000
752016080120160831236426        62079100SALLO 33927 MULTICOLOR                               PC    000000000000000000000000000
752016080120160831237769        91021110CHAMPION CA301332T MULTICOLOR                        UN    000000000000000000000000000
752016080120160831237893        62171000MAVE BABY 1014 MARROM                                PC    000000000000000000000000000
752016080120160831238909        61119090SONINHO 2345 MULTICOLOR                              KIT   000000000000000000000000000
752016080120160831240882        42023100FASOLO H045143 PRETO                                 UN    000000000000000000000000000
752016080120160831240885        62171000FASOLO G164189 MULTICOLOR                            UN    000000000000000000000000000
752016080120160831240914        62034200ZATRICK 10318 AZUL                                   PC    000000000000000000000000000
752016080120160831240922        62034200ZATRICK 10319 AZUL                                   PC    000000000000000000000000000
752016080120160831240930        62034200ZATRICK 10321 AZUL                                   PC    000000000000000000000000000
752016080120160831241124        62034200ZATRICK 10350 AZUL                                   PC    000000000000000000000000000
752016080120160831241154        62034200ZATRICK  20205 MULTICOLOR                            PC    000000000000000000000000000
752016080120160831241162        62034200ZATRICK 20211 MULTICOLOR                             PC    000000000000000000000000000
752016080120160831241168        62034200ZATRICK 20211 MULTICOLOR                             PC    000000000000000000000000000
752016080120160831242699        61091000PACO 50215 MULTICOLOR                                PC    000000000000000000000000000
752016080120160831242714        61091000PACO 50254 MULTICOLOR                                PC    000000000000000000000000000
752016080120160831243622        42023100NAIPPE 018 MULTICOLOR                                UN    000000000000000000000000000
752016080120160831243626        42023100NAIPPE 017 MULTICOLOR                                UN    000000000000000000000000000
752016080120160831244227        90041000SALLO 540869 MULTICOLOR                              UN    000000000000000000000000000
752016080120160831244241        90041000SALLO 1159B MULTICOLOR                               UN    000000000000000000000000000
752016080120160831244285        62079910SALLO 1007F MULTICOLOR                               PC    000000000000000000000000000
752016080120160831244286        62079910SALLO 1007F MULTICOLOR                               PC    000000000000000000000000000
752016080120160831244287        62079910SALLO 1007F MULTICOLOR                               PC    000000000000000000000000000
752016080120160831244292        62079910SALLO 1005D MULTICOLOR                               PC    000000000000000000000000000
752016080120160831244320        61034000SALLO 10100531 MULTICOLOR                            PC    000000000000000000000000000
752016080120160831244323        61034000SALLO 10100531 MULTICOLOR                            PC    000000000000000000000000000
752016080120160831244332        61034000SALLO 10100515 MULTICOLOR                            PC    000000000000000000000000000
752016080120160831244511        61051000SEEDER 101029 MULTICOLOR                             PC    000000000000000000000000000
752016080120160831244523        61051000SEEDER 101034 MULTICOLOR                             PC    000000000000000000000000000
752016080120160831244536        61051000SEEDER 101035 MULTICOLOR                             PC    000000000000000000000000000
752016080120160831244537        61051000SEEDER 101035 MULTICOLOR                             PC    000000000000000000000000000
752016080120160831244538        61051000SEEDER 101035 MULTICOLOR                             PC    000000000000000000000000000
752016080120160831244544        61051000SEEDER 101038 MULTICOLOR                             PC    000000000000000000000000000
752016080120160831244545        61051000SEEDER 101038 MULTICOLOR                             PC    000000000000000000000000000
752016080120160831244571        61091000SEEDER 301003 MULTICOLOR                             PC    000000000000000000000000000
752016080120160831244584        61091000SEEDER 301004 MULTICOLOR                             PC    000000000000000000000000000
752016080120160831244585        61091000SEEDER 301004 MULTICOLOR                             PC    000000000000000000000000000
752016080120160831244588        61091000SEEDER 301004 MULTICOLOR                             PC    000000000000000000000000000
752016080120160831244612        61091000MARESIA 10122409 MULTICOLOR                          PC    000000000000000000000000000
752016080120160831244630        61091000MARESIA 10626729 MULTICOLOR                          PC    000000000000000000000000000
752016080120160831244631        61091000MARESIA 10626729 MULTICOLOR                          PC    000000000000000000000000000
752016080120160831244636        61091000MARESIA 11100042 MULTICOLOR                          PC    000000000000000000000000000
752016080120160831244637        61091000MARESIA 11100042 MULTICOLOR                          PC    000000000000000000000000000
752016080120160831244647        61091000MARESIA 11100056 MULTICOLOR                          PC    000000000000000000000000000
752016080120160831244656        61091000MARESIA 10122316 MULTICOLOR                          PC    000000000000000000000000000
752016080120160831244698        61091000MARESIA 11100070 MULTICOLOR                          PC    000000000000000000000000000
752016080120160831244737        61091000MARESIA 10382058 MULTICOLOR                          PC    000000000000000000000000000
752016080120160831244745        61091000MARESIA 10002834 MULTICOLOR                          PC    000000000000000000000000000
752016080120160831244971        61091000MARESIA 10122344 MULTICOLOR                          PC    000000000000000000000000000
752016080120160831245053        61091000PACO 50281 MULTICOLOR                                PC    000000000000000000000000000
752016080120160831246017        62046200CRIATIVA 82 AZUL                                     PC    000000000000000000000000000
752016080120160831246021        62046200CRIATIVA 192 AZUL                                    PC    000000000000000000000000000
752016080120160831246027        62046200CRIATIVA 215 AZUL                                    PC    000000000000000000000000000
752016080120160831246038        62046200CRIATIVA 81 AZUL                                     PC    000000000000000000000000000
752016080120160831246782        62046200OPPNUS 3166 MULTICOLOR                               PC    000000000000000000000000000
75201608012016083153791         62046200OPPNUS 874 JEANS                                     PC    000000000000000000000000000
75201608012016083158785         61115900SELENE 1300052 ESTAMPADO                             UN    000000000000000000000000000
75201608012016083160743         61071100LUPO 467001 MULTICOLOR                               UN    000000000000000000000000000
75201608012016083160763         61071100LUPO 632001 MULTICOLOR                               UN    000000000000000000000000000
75201608012016083160778         61071200LUPO 691002 MULTICOLOR                               UN    000000000000000000000000000
75201608012016083160822         61071100LUPO 515089 KIT3 MULTICOLOR                          UN    000000000000000000000000000
75201608012016083171543         62114300MIMAR 1939005 PRETO                                  PC    000000000000000000000000000
75201608012016083173020         61153010LUPO 553001 LOBA PO DE ARROZ                         UN    000000000000000000000000000
75201608012016083176184         62114300MIMAR 1838004 PRETO                                  PC    000000000000000000000000000
75201608012016083176187         62114300MIMAR 1838007 PRETO                                  PC    000000000000000000000000000
75201608012016083179600         61071100SALLO 70060 MULTICOLOR                               PC    000000000000000000000000000
75201608012016083180272         61159500SELENE 7060027 MULTICOLOR                            UN    000000000000000000000000000
75201608012016083192132         62122000LUPO 5690 LOBA  PO DE ARROZ                          UN    000000000000000000000000000
75201608012016083192133         62122000LUPO 5690 LOBA  PO DE ARROZ                          UN    000000000000000000000000000
75201608012016083193856         64025900AUDACIA 004110882AU JEANS                            PC    000000000000000000000000000
75201608012016083194542         62079910SALLO 33900 MULTICOLOR                               PC    000000000000000000000000000
75201608012016083197518         62046900SET JEANS 01492 AZUL                                 PC    000000000000000000000000000
75201608012016083197603         62046900SET JEANS 01272 BRANCO                               PC    000000000000000000000000000
75201608012016083197605         62046900SET JEANS 01272 BRANCO                               PC    000000000000000000000000000
