5000010286741636ISENTO        20171002MG01D1 0393355102P000000001316700000000131670000000000000000000000000000000000000000000N
5000005707537678ISENTO        20171002MG01D1 0393445102P000000001549000000000154900000000000000000000000000000000000000000000N
5000005707537678ISENTO        20171002MG01D1 0393435102P000000000699000000000069900000000000000000000000000000000000000000000N
5000005707537678ISENTO        20171002MG01D1 0393425102P000000002948000000000294800000000000000000000000000000000000000000000N
5000002065781645ISENTO        20171002MG01D1 0393415102P000000000799000000000079900000000000000000000000000000000000000000000N
5000046462139668ISENTO        20171002MG01D1 0393405102P000000000599000000000059900000000000000000000000000000000000000000000N
5000003250808601ISENTO        20171002MG01D1 0393395102P000000003746000000000374600000000000000000000000000000000000000000000N
5000006669390637ISENTO        20171002MG01D1 0393385102P000000000899000000000089900000000000000000000000000000000000000000000N
5000011432915657ISENTO        20171002MG01D1 0393375102P000000001049000000000104900000000000000000000000000000000000000000000N
5000001897100639ISENTO        20171002MG01D1 0393365102P000000001299000000000129900000000000000000000000000000000000000000000N
5000001234567890ISENTO        20171002MG01D1 0393305102P000000001600000000000160000000000000000000000000000000000000000000000N
5000006132562630ISENTO        20171002MG01D1 0393295102P000000000349000000000034900000000000000000000000000000000000000000000N
5000004805636670ISENTO        20171002MG01D1 0393345102P000000001439000000000143900000000000000000000000000000000000000000000N
5000002586943511ISENTO        20171002MG01D1 0393315102P000000000949000000000094900000000000000000000000000000000000000000000N
5000009103360679ISENTO        20171002MG01D1 0393325102P000000000598000000000059800000000000000000000000000000000000000000000N
5000010495623644ISENTO        20171003MG01D1 0393545102P000000000399000000000039900000000000000000000000000000000000000000000N
5000036498738855ISENTO        20171003MG01D1 0393555102P000000000799000000000079900000000000000000000000000000000000000000000N
5000056449453672ISENTO        20171003MG01D1 0393535102P000000002597000000000259700000000000000000000000000000000000000000000N
5000012186575612ISENTO        20171003MG01D1 0393525102P000000001273300000000127330000000000000000000000000000000000000000000N
5000009870309658ISENTO        20171003MG01D1 0393565102P000000001698000000000169800000000000000000000000000000000000000000000N
5000057334323653ISENTO        20171003MG01D1 0393575102P000000001998000000000199800000000000000000000000000000000000000000000N
5000009590735665ISENTO        20171003MG01D1 0393585102P000000000699000000000069900000000000000000000000000000000000000000000N
5000007913330600ISENTO        20171003MG01D1 0393595102P000000001199000000000119900000000000000000000000000000000000000000000N
5000005323658525ISENTO        20171003MG01D1 0393515102P000000000891600000000089160000000000000000000000000000000000000000000N
5000011472425693ISENTO        20171003MG01D1 0393505102P000000002149000000000214900000000000000000000000000000000000000000000N
5000001234567890ISENTO        20171003MG01D1 0393495102P000000000649000000000064900000000000000000000000000000000000000000000N
5000084528435691ISENTO        20171003MG01D1 0393485102P000000001899000000000189900000000000000000000000000000000000000000000N
5000078414342604ISENTO        20171003MG01D1 0393475102P000000000599000000000059900000000000000000000000000000000000000000000N
5000001938399625ISENTO        20171003MG01D1 0393465102P000000000898000000000089800000000000000000000000000000000000000000000N
5000060849916615ISENTO        20171003MG01D1 0393455102P000000001199000000000119900000000000000000000000000000000000000000000N
5000004485946681ISENTO        20171004MG01D1 0393685102P000000001999000000000199900000000000000000000000000000000000000000000N
5000003463148609ISENTO        20171004MG01D1 0393675102P000000000899000000000089900000000000000000000000000000000000000000000N
5000001234567890ISENTO        20171004MG01D1 0393665102P000000002649000000000264900000000000000000000000000000000000000000000N
5000003999574640ISENTO        20171004MG01D1 0393695102P000000000549000000000054900000000000000000000000000000000000000000000N
5000010761894667ISENTO        20171004MG01D1 0393705102P000000000599000000000059900000000000000000000000000000000000000000000N
5000020604599668ISENTO        20171004MG01D1 0393715102P000000000799000000000079900000000000000000000000000000000000000000000N
5000010629182663ISENTO        20171004MG01D1 0393645102P000000000649000000000064900000000000000000000000000000000000000000000N
5000001234567890ISENTO        20171004MG01D1 0393635102P000000000830000000000083000000000000000000000000000000000000000000000N
5000047838353653ISENTO        20171004MG01D1 0393625102P000000001499000000000149900000000000000000000000000000000000000000000N
5000009590735665ISENTO        20171004MG01D1 0393615102P000000000699000000000069900000000000000000000000000000000000000000000N
5000001234567890ISENTO        20171004MG01D1 0393605102P000000000699000000000069900000000000000000000000000000000000000000000N
5000036738522649ISENTO        20171004MG01D1 0393655102P000000001299000000000129900000000000000000000000000000000000000000000N
5000001234567890ISENTO        20171005MG01D1 0393825102P000000000570000000000057000000000000000000000000000000000000000000000N
5000004509694601ISENTO        20171005MG01D1 0393795102P000000002000000000000200000000000000000000000000000000000000000000000N
5000001234567890ISENTO        20171005MG01D1 0393815102P000000000799000000000079900000000000000000000000000000000000000000000N
5000001234567890ISENTO        20171005MG01D1 0393855102P000000001249000000000124900000000000000000000000000000000000000000000N
5000067765750615ISENTO        20171005MG01D1 0393835102P000000004299000000000429900000000000000000000000000000000000000000000N
5000006562437679ISENTO        20171005MG01D1 0393845102P000000001148000000000114800000000000000000000000000000000000000000000N
5000055416454687ISENTO        20171005MG01D1 0393805102P000000000798000000000079800000000000000000000000000000000000000000000N
5000001234567890ISENTO        20171005MG01D1 0393775102P000000000449000000000044900000000000000000000000000000000000000000000N
5000001234567890ISENTO        20171005MG01D1 0393755102P000000001799000000000179900000000000000000000000000000000000000000000N
5000049276573615ISENTO        20171005MG01D1 0393745102P000000001199000000000119900000000000000000000000000000000000000000000N
5000082286450668ISENTO        20171005MG01D1 0393735102P000000004298000000000429800000000000000000000000000000000000000000000N
5000005662330611ISENTO        20171005MG01D1 0393725102P000000000628000000000062800000000000000000000000000000000000000000000N
5000001234567890ISENTO        20171005MG01D1 0393785102P000000000180000000000018000000000000000000000000000000000000000000000N
5000040447995634ISENTO        20171006MG01D1 0393975102P000000000799000000000079900000000000000000000000000000000000000000000N
5000001234567890ISENTO        20171006MG01D1 0393955102P000000000649000000000064900000000000000000000000000000000000000000000N
5000003557604608ISENTO        20171006MG01D1 0393965102P000000001249000000000124900000000000000000000000000000000000000000000N
5000008791729670ISENTO        20171006MG01D1 0393935102P000000002299000000000229900000000000000000000000000000000000000000000N
5000006034088690ISENTO        20171006MG01D1 0393985102P000000000999000000000099900000000000000000000000000000000000000000000N
5000027085163615ISENTO        20171006MG01D1 0393995102P000000002397000000000239700000000000000000000000000000000000000000000N
5000001234567890ISENTO        20171006MG01D1 0394005102P000000001099000000000109900000000000000000000000000000000000000000000N
5000007642363699ISENTO        20171006MG01D1 0394015102P000000001599000000000159900000000000000000000000000000000000000000000N
5000051073609634ISENTO        20171006MG01D1 0393905102P000000000549000000000054900000000000000000000000000000000000000000000N
5000001234567890ISENTO        20171006MG01D1 0393925102P000000000549000000000054900000000000000000000000000000000000000000000N
5000070190728604ISENTO        20171006MG01D1 0393915102P000000001549000000000154900000000000000000000000000000000000000000000N
5000010404189610ISENTO        20171006MG01D1 0393895102P000000001049000000000104900000000000000000000000000000000000000000000N
5000001566901600ISENTO        20171006MG01D1 0393885102P000000000599000000000059900000000000000000000000000000000000000000000N
5000084988657604ISENTO        20171006MG01D1 0393875102P000000000899000000000089900000000000000000000000000000000000000000000N
5000001988187699ISENTO        20171006MG01D1 0393865102P000000002198000000000219800000000000000000000000000000000000000000000N
5000001919838619ISENTO        20171007MG01D1 0394065102P000000000599000000000059900000000000000000000000000000000000000000000N
5000050975463691ISENTO        20171007MG01D1 0394075102P000000001349000000000134900000000000000000000000000000000000000000000N
5000071744215634ISENTO        20171007MG01D1 0394045102P000000001549000000000154900000000000000000000000000000000000000000000N
5000007246871659ISENTO        20171007MG01D1 0394035102P000000000799000000000079900000000000000000000000000000000000000000000N
5000001234567890ISENTO        20171007MG01D1 0394025102P000000000499000000000049900000000000000000000000000000000000000000000N
5000000675972620ISENTO        20171007MG01D1 0394055102P000000000999000000000099900000000000000000000000000000000000000000000N
5000007613472671ISENTO        20171009MG01D1 0394255102P000000001748000000000174800000000000000000000000000000000000000000000N
5000003631480601ISENTO        20171009MG01D1 0394205102P000000002298000000000229800000000000000000000000000000000000000000000N
5000008784693622ISENTO        20171009MG01D1 0394215102P000000000304200000000030420000000000000000000000000000000000000000000N
5000036910996615ISENTO        20171009MG01D1 0394225102P000000003096000000000309600000000000000000000000000000000000000000000N
5000001010610643ISENTO        20171009MG01D1 0394235102P000000001499000000000149900000000000000000000000000000000000000000000N
5000005132348610ISENTO        20171009MG01D1 0394245102P000000001499000000000149900000000000000000000000000000000000000000000N
5000010963457659ISENTO        20171009MG01D1 0394285102P000000001449000000000144900000000000000000000000000000000000000000000N
5000008208033677ISENTO        20171009MG01D1 0394265102P000000001547000000000154700000000000000000000000000000000000000000000N
5000011989159605ISENTO        20171009MG01D1 0394275102P000000001399000000000139900000000000000000000000000000000000000000000N
5000011084884631ISENTO        20171009MG01D1 0394295102P000000001998000000000199800000000000000000000000000000000000000000000N
5000004054389660ISENTO        20171009MG01D1 0394305102P000000002098000000000209800000000000000000000000000000000000000000000N
5000004054389660ISENTO        20171009MG01D1 0394315102P000000002398000000000239800000000000000000000000000000000000000000000N
5000004384742606ISENTO        20171009MG01D1 0394195102P000000002649000000000264900000000000000000000000000000000000000000000N
5000092115942604ISENTO        20171009MG01D1 0394125102P000000000949000000000094900000000000000000000000000000000000000000000N
5000001234567890ISENTO        20171009MG01D1 0394085102P000000000550000000000055000000000000000000000000000000000000000000000N
5000000791017630ISENTO        20171009MG01D1 0394095102P000000001648000000000164800000000000000000000000000000000000000000000N
5000003822468614ISENTO        20171009MG01D1 0394105102P000000001549000000000154900000000000000000000000000000000000000000000N
5000001234567890ISENTO        20171009MG01D1 0394115102P000000001899000000000189900000000000000000000000000000000000000000000N
5000010588130648ISENTO        20171009MG01D1 0394185102P000000001079400000000107940000000000000000000000000000000000000000000N
5000004384742606ISENTO        20171009MG01D1 0394135102P000000002649000000000264900000000000000000000000000000000000000000000N
5000012203172681ISENTO        20171009MG01D1 0394145102P000000002647000000000264700000000000000000000000000000000000000000000N
5000001234567890ISENTO        20171009MG01D1 0394155102P000000000330000000000033000000000000000000000000000000000000000000000N
5000065711416634ISENTO        20171009MG01D1 0394165102P000000002499000000000249900000000000000000000000000000000000000000000N
5000007212853682ISENTO        20171009MG01D1 0394175102P000000000799000000000079900000000000000000000000000000000000000000000N
5000000598568662ISENTO        20171010MG01D1 0394575102P000000000948000000000094800000000000000000000000000000000000000000000N
5000001234567890ISENTO        20171010MG01D1 0394565102P000000000899000000000089900000000000000000000000000000000000000000000N
5000000598568662ISENTO        20171010MG01D1 0394585102P000000000599000000000059900000000000000000000000000000000000000000000N
5000001234567890ISENTO        20171010MG01D1 0394595102P000000000469000000000046900000000000000000000000000000000000000000000N
5000082258198615ISENTO        20171010MG01D1 0394545102P000000002346000000000234600000000000000000000000000000000000000000000N
5000059844957672ISENTO        20171010MG01D1 0394535102P000000001698000000000169800000000000000000000000000000000000000000000N
5000003606159617ISENTO        20171010MG01D1 0394525102P000000000899000000000089900000000000000000000000000000000000000000000N
5000070278474691ISENTO        20171010MG01D1 0394515102P000000001449000000000144900000000000000000000000000000000000000000000N
5000005467338676ISENTO        20171010MG01D1 0394505102P000000000349000000000034900000000000000000000000000000000000000000000N
5000004576269682ISENTO        20171010MG01D1 0394605102P000000004647000000000464700000000000000000000000000000000000000000000N
5000036974498691ISENTO        20171010MG01D1 0394625102P000000002649000000000264900000000000000000000000000000000000000000000N
5000036974498691ISENTO        20171010MG01D1 0394615102P000000001399000000000139900000000000000000000000000000000000000000000N
5000004941376650ISENTO        20171010MG01D1 0394635102P000000001040000000000104000000000000000000000000000000000000000000000N
5000078402263615ISENTO        20171010MG01D1 0394645102P000000000799000000000079900000000000000000000000000000000000000000000N
5000011691431648ISENTO        20171010MG01D1 0394655102P000000000449000000000044900000000000000000000000000000000000000000000N
5000007498087642ISENTO        20171010MG01D1 0394665102P000000002047000000000204700000000000000000000000000000000000000000000N
5000007697598663ISENTO        20171010MG01D1 0394675102P000000000788000000000078800000000000000000000000000000000000000000000N
5000009893398665ISENTO        20171010MG01D1 0394555102P000000000449000000000044900000000000000000000000000000000000000000000N
5000001919747656ISENTO        20171010MG01D1 0394396102P000000001149000000000114900000000000000000000000000000000000000000000N
5000001234567890ISENTO        20171010MG01D1 0394325102P000000000730000000000073000000000000000000000000000000000000000000000N
5000084533064604ISENTO        20171010MG01D1 0394335102P000000000699000000000069900000000000000000000000000000000000000000000N
5000078445264672ISENTO        20171010MG01D1 0394345102P000000001898000000000189800000000000000000000000000000000000000000000N
5000070321555619ISENTO        20171010MG01D1 0394355102P000000000899000000000089900000000000000000000000000000000000000000000N
5000066821797668ISENTO        20171010MG01D1 0394365102P000000001895000000000189500000000000000000000000000000000000000000000N
5000012842651618ISENTO        20171010MG01D1 0394375102P000000000549000000000054900000000000000000000000000000000000000000000N
5000001919747656ISENTO        20171010MG01D1 0394386102P000000000899000000000089900000000000000000000000000000000000000000000N
5000057334323653ISENTO        20171010MG01D1 0394495102P000000001549000000000154900000000000000000000000000000000000000000000N
5000002620948606ISENTO        20171010MG01D1 0394405102P000000002148000000000214800000000000000000000000000000000000000000000N
5000050372459668ISENTO        20171010MG01D1 0394425102P000000002797000000000279700000000000000000000000000000000000000000000N
5000003822468614ISENTO        20171010MG01D1 0394435102P000000001598000000000159800000000000000000000000000000000000000000000N
5000002135178683ISENTO        20171010MG01D1 0394445102P000000005494000000000549400000000000000000000000000000000000000000000N
5000049228315687ISENTO        20171010MG01D1 0394455102P000000000279000000000027900000000000000000000000000000000000000000000N
5000011150326662ISENTO        20171010MG01D1 0394465102P000000001049000000000104900000000000000000000000000000000000000000000N
5000040447995634ISENTO        20171010MG01D1 0394475102P000000000799000000000079900000000000000000000000000000000000000000000N
5000001680925652ISENTO        20171010MG01D1 0394485102P000000002849000000000284900000000000000000000000000000000000000000000N
5000009690639625ISENTO        20171011MG01D1 0394985102P000000000799000000000079900000000000000000000000000000000000000000000N
5000005354565650ISENTO        20171011MG01D1 0394995102P000000000799000000000079900000000000000000000000000000000000000000000N
5000006503498659ISENTO        20171011MG01D1 0394975102P000000002149000000000214900000000000000000000000000000000000000000000N
5000005354565650ISENTO        20171011MG01D1 0395005102P000000002448000000000244800000000000000000000000000000000000000000000N
5000005354565650ISENTO        20171011MG01D1 0395015102P000000002398000000000239800000000000000000000000000000000000000000000N
5000050365037672ISENTO        20171011MG01D1 0395025102P000000002697000000000269700000000000000000000000000000000000000000000N
5000007190381627ISENTO        20171011MG01D1 0394965102P000000001299000000000129900000000000000000000000000000000000000000000N
5000054357829615ISENTO        20171011MG01D1 0394955102P000000000349000000000034900000000000000000000000000000000000000000000N
5000092067255649ISENTO        20171011MG01D1 0394945102P000000001299000000000129900000000000000000000000000000000000000000000N
5000007223734655ISENTO        20171011MG01D1 0394935102P000000001598000000000159800000000000000000000000000000000000000000000N
5000007808973661ISENTO        20171011MG01D1 0394925102P000000000549000000000054900000000000000000000000000000000000000000000N
5000009760003694ISENTO        20171011MG01D1 0394915102P000000001349000000000134900000000000000000000000000000000000000000000N
5000073424943649ISENTO        20171011MG01D1 0395105102P000000000849000000000084900000000000000000000000000000000000000000000N
5000092067786687ISENTO        20171011MG01D1 0395155102P000000000727000000000072700000000000000000000000000000000000000000000N
5000003404827619ISENTO        20171011MG01D1 0395145102P000000000349000000000034900000000000000000000000000000000000000000000N
5000011348444681ISENTO        20171011MG01D1 0395135102P000000001449000000000144900000000000000000000000000000000000000000000N
5000006249293612ISENTO        20171011MG01D1 0395125102P000000000279000000000027900000000000000000000000000000000000000000000N
5000005741894674ISENTO        20171011MG01D1 0395115102P000000001948000000000194800000000000000000000000000000000000000000000N
5000009359430641ISENTO        20171011MG01D1 0395035102P000000001399000000000139900000000000000000000000000000000000000000000N
5000010998028657ISENTO        20171011MG01D1 0395095102P000000001899000000000189900000000000000000000000000000000000000000000N
5000007029075617ISENTO        20171011MG01D1 0395085102P000000000649000000000064900000000000000000000000000000000000000000000N
5000009992844604ISENTO        20171011MG01D1 0395075102P000000001948000000000194800000000000000000000000000000000000000000000N
5000008208033677ISENTO        20171011MG01D1 0395065102P000000000848000000000084800000000000000000000000000000000000000000000N
5000001234567890ISENTO        20171011MG01D1 0395055102P000000000838500000000083850000000000000000000000000000000000000000000N
5000063519623668ISENTO        20171011MG01D1 0395045102P000000000899000000000089900000000000000000000000000000000000000000000N
5000006592448610ISENTO        20171011MG01D1 0394825102P000000004395000000000439500000000000000000000000000000000000000000000N
5000078445264672ISENTO        20171011MG01D1 0394735102P000000000649000000000064900000000000000000000000000000000000000000000N
5000000791017630ISENTO        20171011MG01D1 0394765102P000000002098000000000209800000000000000000000000000000000000000000000N
5000002152791665ISENTO        20171011MG01D1 0394755102P000000000649000000000064900000000000000000000000000000000000000000000N
5000082258198615ISENTO        20171011MG01D1 0394745102P000000001398000000000139800000000000000000000000000000000000000000000N
5000001234567890ISENTO        20171011MG01D1 0394775102P000000000450000000000045000000000000000000000000000000000000000000000N
5000006611642684ISENTO        20171011MG01D1 0394725102P000000000899000000000089900000000000000000000000000000000000000000000N
5000007498087642ISENTO        20171011MG01D1 0394715102P000000000899000000000089900000000000000000000000000000000000000000000N
5000003791089684ISENTO        20171011MG01D1 0394705102P000000000899000000000089900000000000000000000000000000000000000000000N
5000002135178683ISENTO        20171011MG01D1 0394695102P000000000899000000000089900000000000000000000000000000000000000000000N
5000007162107621ISENTO        20171011MG01D1 0394685102P000000000349000000000034900000000000000000000000000000000000000000000N
5000001234567890ISENTO        20171011MG01D1 0394905102P000000000849000000000084900000000000000000000000000000000000000000000N
5000006585278607ISENTO        20171011MG01D1 0394845102P000000001299000000000129900000000000000000000000000000000000000000000N
5000003279538610ISENTO        20171011MG01D1 0394895102P000000001448000000000144800000000000000000000000000000000000000000000N
5000046422277687ISENTO        20171011MG01D1 0394885102P000000000949000000000094900000000000000000000000000000000000000000000N
5000013235203680ISENTO        20171011MG01D1 0394875102P000000000299000000000029900000000000000000000000000000000000000000000N
5000001234567890ISENTO        20171011MG01D1 0394865102P000000003194000000000319400000000000000000000000000000000000000000000N
5000012930811676ISENTO        20171011MG01D1 0394855102P000000001449000000000144900000000000000000000000000000000000000000000N
5000002943802646ISENTO        20171011MG01D1 0394835102P000000001798000000000179800000000000000000000000000000000000000000000N
5000007622806625ISENTO        20171011MG01D1 0394815102P000000001999000000000199900000000000000000000000000000000000000000000N
5000001234567890ISENTO        20171011MG01D1 0394805102P000000000599000000000059900000000000000000000000000000000000000000000N
5000001234567890ISENTO        20171011MG01D1 0394795102P000000000700000000000070000000000000000000000000000000000000000000000N
5000000675972620ISENTO        20171011MG01D1 0394785102P000000000999000000000099900000000000000000000000000000000000000000000N
5000029237408668ISENTO        20171013MG01D1 0395365102P000000001349000000000134900000000000000000000000000000000000000000000N
5000003046097654ISENTO        20171013MG01D1 0395375102P000000001848000000000184800000000000000000000000000000000000000000000N
5000046172165615ISENTO        20171013MG01D1 0395385102P000000001007000000000100700000000000000000000000000000000000000000000N
5000029237408668ISENTO        20171013MG01D1 0395355102P000000001299000000000129900000000000000000000000000000000000000000000N
5000011634989635ISENTO        20171013MG01D1 0395345102P000000000449000000000044900000000000000000000000000000000000000000000N
5000059839120620ISENTO        20171013MG01D1 0395335102P000000000728000000000072800000000000000000000000000000000000000000000N
5000076922588649ISENTO        20171013MG01D1 0395325102P000000000849000000000084900000000000000000000000000000000000000000000N
5000001234567890ISENTO        20171013MG01D1 0395395102P000000001298000000000129800000000000000000000000000000000000000000000N
5000010498352633ISENTO        20171013MG01D1 0395405102P000000000449000000000044900000000000000000000000000000000000000000000N
5000009413374643ISENTO        20171013MG01D1 0395415102P000000001049000000000104900000000000000000000000000000000000000000000N
5000006228481606ISENTO        20171013MG01D1 0395425102P000000000799000000000079900000000000000000000000000000000000000000000N
5000001234567890ISENTO        20171013MG01D1 0395435102P000000000550000000000055000000000000000000000000000000000000000000000N
5000050372459668ISENTO        20171013MG01D1 0395445102P000000001898000000000189800000000000000000000000000000000000000000000N
5000092067255649ISENTO        20171013MG01D1 0395455102P000000001299000000000129900000000000000000000000000000000000000000000N
5000001569101604ISENTO        20171013MG01D1 0395465102P000000000750000000000075000000000000000000000000000000000000000000000N
5000001234567890ISENTO        20171013MG01D1 0395165102P000000002098000000000209800000000000000000000000000000000000000000000N
5000004416834608ISENTO        20171013MG01D1 0395245102P000000000799000000000079900000000000000000000000000000000000000000000N
5000095946357620ISENTO        20171013MG01D1 0395175102P000000005546000000000554600000000000000000000000000000000000000000000N
5000010488808693ISENTO        20171013MG01D1 0395185102P000000000500000000000050000000000000000000000000000000000000000000000N
5000054357829615ISENTO        20171013MG01D1 0395195102P000000000399000000000039900000000000000000000000000000000000000000000N
5000092027482687ISENTO        20171013MG01D1 0395205102P000000001899000000000189900000000000000000000000000000000000000000000N
5000056948328687ISENTO        20171013MG01D1 0395215102P000000001699000000000169900000000000000000000000000000000000000000000N
5000007089151670ISENTO        20171013MG01D1 0395225102P000000000349000000000034900000000000000000000000000000000000000000000N
5000010222908602ISENTO        20171013MG01D1 0395235102P000000003148000000000314800000000000000000000000000000000000000000000N
5000000598872655ISENTO        20171013MG01D1 0395315102P000000000699000000000069900000000000000000000000000000000000000000000N
5000007237835602ISENTO        20171013MG01D1 0395255102P000000001099000000000109900000000000000000000000000000000000000000000N
5000011012467660ISENTO        20171013MG01D1 0395265102P000000001299000000000129900000000000000000000000000000000000000000000N
5000084985143634ISENTO        20171013MG01D1 0395275102P000000002896000000000289600000000000000000000000000000000000000000000N
5000006212843600ISENTO        20171013MG01D1 0395285102P000000002498000000000249800000000000000000000000000000000000000000000N
5000011911651676ISENTO        20171013MG01D1 0395295102P000000003947000000000394700000000000000000000000000000000000000000000N
5000078396077649ISENTO        20171013MG01D1 0395305102P000000002899000000000289900000000000000000000000000000000000000000000N
5000062385712687ISENTO        20171014MG01D1 0395535102P000000000279000000000027900000000000000000000000000000000000000000000N
5000000598872655ISENTO        20171014MG01D1 0395545102P000000001470000000000147000000000000000000000000000000000000000000000N
5000001234567890ISENTO        20171014MG01D1 0395525102P000000000549000000000054900000000000000000000000000000000000000000000N
5000012822781699ISENTO        20171014MG01D1 0395555102P000000000449000000000044900000000000000000000000000000000000000000000N
5000005068438669ISENTO        20171014MG01D1 0395565102P000000001899000000000189900000000000000000000000000000000000000000000N
5000013732866602ISENTO        20171014MG01D1 0395575102P000000001049000000000104900000000000000000000000000000000000000000000N
5000011677167602ISENTO        20171014MG01D1 0395505102P000000001099000000000109900000000000000000000000000000000000000000000N
5000009921140639ISENTO        20171014MG01D1 0395495102P000000000349000000000034900000000000000000000000000000000000000000000N
5000001234567890ISENTO        20171014MG01D1 0395485102P000000001299000000000129900000000000000000000000000000000000000000000N
5000078418658649ISENTO        20171014MG01D1 0395475102P000000003147000000000314700000000000000000000000000000000000000000000N
5000001234567890ISENTO        20171014MG01D1 0395515102P000000000080000000000008000000000000000000000000000000000000000000000N
5000002108630643ISENTO        20171016MG01D1 0395745102P000000001199000000000119900000000000000000000000000000000000000000000N
5000005660250602ISENTO        20171016MG01D1 0395705102P000000001076000000000107600000000000000000000000000000000000000000000N
5000092067654691ISENTO        20171016MG01D1 0395715102P000000000699000000000069900000000000000000000000000000000000000000000N
5000066821797668ISENTO        20171016MG01D1 0395725102P000000000399000000000039900000000000000000000000000000000000000000000N
5000002169014640ISENTO        20171016MG01D1 0395735102P000000001349000000000134900000000000000000000000000000000000000000000N
5000001651657661ISENTO        20171016MG01D1 0395695102P000000000949000000000094900000000000000000000000000000000000000000000N
5000014063200647ISENTO        20171016MG01D1 0395755102P000000001199000000000119900000000000000000000000000000000000000000000N
5000001234567890ISENTO        20171016MG01D1 0395765102P000000000878000000000087800000000000000000000000000000000000000000000N
5000010867829680ISENTO        20171016MG01D1 0395775102P000000000949000000000094900000000000000000000000000000000000000000000N
5000065711416634ISENTO        20171016MG01D1 0395785102P000000000349000000000034900000000000000000000000000000000000000000000N
5000001234567890ISENTO        20171016MG01D1 0395795102P000000000580000000000058000000000000000000000000000000000000000000000N
5000006887009692ISENTO        20171016MG01D1 0395805102P000000001499000000000149900000000000000000000000000000000000000000000N
5000004054389660ISENTO        20171016MG01D1 0395675102P000000001848000000000184800000000000000000000000000000000000000000000N
5000053132149691ISENTO        20171016MG01D1 0395615102P000000000999000000000099900000000000000000000000000000000000000000000N
5000012160222674ISENTO        20171016MG01D1 0395585102P000000002449000000000244900000000000000000000000000000000000000000000N
5000007362313667ISENTO        20171016MG01D1 0395595102P000000002448000000000244800000000000000000000000000000000000000000000N
5000086795511634ISENTO        20171016MG01D1 0395605102P000000000899000000000089900000000000000000000000000000000000000000000N
5000004616556679ISENTO        20171016MG01D1 0395685102P000000002599000000000259900000000000000000000000000000000000000000000N
5000006212843600ISENTO        20171016MG01D1 0395625102P000000002597000000000259700000000000000000000000000000000000000000000N
5000007367385682ISENTO        20171016MG01D1 0395635102P000000000677700000000067770000000000000000000000000000000000000000000N
5000010222908602ISENTO        20171016MG01D1 0395645102P000000001628000000000162800000000000000000000000000000000000000000000N
5000006231698602ISENTO        20171016MG01D1 0395655102P000000000738000000000073800000000000000000000000000000000000000000000N
5000004054389660ISENTO        20171016MG01D1 0395665102P000000003697000000000369700000000000000000000000000000000000000000000N
5000011185771670ISENTO        20171017MG01D1 0396005102P000000003298000000000329800000000000000000000000000000000000000000000N
5000040884899691ISENTO        20171017MG01D1 0395995102P000000000399000000000039900000000000000000000000000000000000000000000N
5000001234567890ISENTO        20171017MG01D1 0396015102P000000000650000000000065000000000000000000000000000000000000000000000N
5000001234567890ISENTO        20171017MG01D1 0395985102P000000000240000000000024000000000000000000000000000000000000000000000N
5000023335254600ISENTO        20171017MG01D1 0395975102P000000002398000000000239800000000000000000000000000000000000000000000N
5000001263725600ISENTO        20171017MG01D1 0395965102P000000000798000000000079800000000000000000000000000000000000000000000N
5000065732642668ISENTO        20171017MG01D1 0395955102P000000000279000000000027900000000000000000000000000000000000000000000N
5000008113720650ISENTO        20171017MG01D1 0396025102P000000001299000000000129900000000000000000000000000000000000000000000N
5000002863535633ISENTO        20171017MG01D1 0396035102P000000000649000000000064900000000000000000000000000000000000000000000N
5000009737858611ISENTO        20171017MG01D1 0396045102P000000002698000000000269800000000000000000000000000000000000000000000N
5000006241262696ISENTO        20171017MG01D1 0396055102P000000002547000000000254700000000000000000000000000000000000000000000N
5000006241262696ISENTO        20171017MG01D1 0396065102P000000000798000000000079800000000000000000000000000000000000000000000N
5000008795522638ISENTO        20171017MG01D1 0396075102P000000000349000000000034900000000000000000000000000000000000000000000N
5000063519623668ISENTO        20171017MG01D1 0396085102P000000000349000000000034900000000000000000000000000000000000000000000N
5000084971860606ISENTO        20171017MG01D1 0395895102P000000000899000000000089900000000000000000000000000000000000000000000N
5000066826446634ISENTO        20171017MG01D1 0395865102P000000000600000000000060000000000000000000000000000000000000000000000N
5000004054389660ISENTO        20171017MG01D1 0395815102P000000000949000000000094900000000000000000000000000000000000000000000N
5000002202792686ISENTO        20171017MG01D1 0395825102P000000000549000000000054900000000000000000000000000000000000000000000N
5000005670814606ISENTO        20171017MG01D1 0395835102P000000002798000000000279800000000000000000000000000000000000000000000N
5000049256300672ISENTO        20171017MG01D1 0395845102P000000001299000000000129900000000000000000000000000000000000000000000N
5000074858840697ISENTO        20171017MG01D1 0395855102P000000001399000000000139900000000000000000000000000000000000000000000N
5000012252138602ISENTO        20171017MG01D1 0395945102P000000000949000000000094900000000000000000000000000000000000000000000N
5000001234567890ISENTO        20171017MG01D1 0395915102P000000000300000000000030000000000000000000000000000000000000000000000N
5000010827415664ISENTO        20171017MG01D1 0395935102P000000000998000000000099800000000000000000000000000000000000000000000N
5000004632280658ISENTO        20171017MG01D1 0395925102P000000002199000000000219900000000000000000000000000000000000000000000N
5000001234567890ISENTO        20171017MG01D1 0395875102P000000000649000000000064900000000000000000000000000000000000000000000N
5000001726612694ISENTO        20171017MG01D1 0395905102P000000000699000000000069900000000000000000000000000000000000000000000N
5000004546913516ISENTO        20171017MG01D1 0395885102P000000000778000000000077800000000000000000000000000000000000000000000N
5000002960687647ISENTO        20171018MG01D1 0396245102P000000001698000000000169800000000000000000000000000000000000000000000N
5000070024000612ISENTO        20171018MG01D1 0396255102P000000001948000000000194800000000000000000000000000000000000000000000N
5000085049832691ISENTO        20171018MG01D1 0396265102P000000000598000000000059800000000000000000000000000000000000000000000N
5000001234567890ISENTO        20171018MG01D1 0396275102P000000001148200000000114820000000000000000000000000000000000000000000N
5000002233146689ISENTO        20171018MG01D1 0396285102P000000000349000000000034900000000000000000000000000000000000000000000N
5000001684526698ISENTO        20171018MG01D1 0396295102P000000000949000000000094900000000000000000000000000000000000000000000N
5000002960687647ISENTO        20171018MG01D1 0396235102P000000002248000000000224800000000000000000000000000000000000000000000N
5000001796662666ISENTO        20171018MG01D1 0396305102P000000000150000000000015000000000000000000000000000000000000000000000N
5000011911651676ISENTO        20171018MG01D1 0396315102P000000000549000000000054900000000000000000000000000000000000000000000N
5000098619209604ISENTO        20171018MG01D1 0396325102P000000001199000000000119900000000000000000000000000000000000000000000N
5000001234567890ISENTO        20171018MG01D1 0396335102P000000001430000000000143000000000000000000000000000000000000000000000N
5000001234567890ISENTO        20171018MG01D1 0396345102P000000000510000000000051000000000000000000000000000000000000000000000N
5000009563740696ISENTO        20171018MG01D1 0396355102P000000001249000000000124900000000000000000000000000000000000000000000N
5000000598872655ISENTO        20171018MG01D1 0396165102P000000000735000000000073500000000000000000000000000000000000000000000N
5000012136812602ISENTO        20171018MG01D1 0396145102P000000000500000000000050000000000000000000000000000000000000000000000N
5000006241262696ISENTO        20171018MG01D1 0396095102P000000000998000000000099800000000000000000000000000000000000000000000N
5000002863535633ISENTO        20171018MG01D1 0396105102P000000000649000000000064900000000000000000000000000000000000000000000N
5000011187103632ISENTO        20171018MG01D1 0396115102P000000000799000000000079900000000000000000000000000000000000000000000N
5000005575696642ISENTO        20171018MG01D1 0396125102P000000001148000000000114800000000000000000000000000000000000000000000N
5000007079691664ISENTO        20171018MG01D1 0396135102P000000001299000000000129900000000000000000000000000000000000000000000N
5000067755526615ISENTO        20171018MG01D1 0396225102P000000002298000000000229800000000000000000000000000000000000000000000N
5000092097014615ISENTO        20171018MG01D1 0396155102P000000001299000000000129900000000000000000000000000000000000000000000N
5000001234567890ISENTO        20171018MG01D1 0396175102P000000002100000000000210000000000000000000000000000000000000000000000N
5000012725554616ISENTO        20171018MG01D1 0396185102P000000000949000000000094900000000000000000000000000000000000000000000N
5000004495301675ISENTO        20171018MG01D1 0396195102P000000001599000000000159900000000000000000000000000000000000000000000N
5000006943599631ISENTO        20171018MG01D1 0396205102P000000001049000000000104900000000000000000000000000000000000000000000N
5000001234567890ISENTO        20171018MG01D1 0396215102P000000000599000000000059900000000000000000000000000000000000000000000N
5000005741894674ISENTO        20171019MG01D1 0396535102P000000001049000000000104900000000000000000000000000000000000000000000N
5000001234567890ISENTO        20171019MG01D1 0396525102P000000000730000000000073000000000000000000000000000000000000000000000N
5000001234567890ISENTO        20171019MG01D1 0396545102P000000000229100000000022910000000000000000000000000000000000000000000N
5000004103817640ISENTO        20171019MG01D1 0396515102P000000001099000000000109900000000000000000000000000000000000000000000N
5000065730755600ISENTO        20171019MG01D1 0396505102P000000000349000000000034900000000000000000000000000000000000000000000N
5000005959987635ISENTO        20171019MG01D1 0396495102P000000002098000000000209800000000000000000000000000000000000000000000N
5000001234567890ISENTO        20171019MG01D1 0396485102P000000000246200000000024620000000000000000000000000000000000000000000N
5000002543499601ISENTO        20171019MG01D1 0396565102P000000000748000000000074800000000000000000000000000000000000000000000N
5000006001002606ISENTO        20171019MG01D1 0396575102P000000002098000000000209800000000000000000000000000000000000000000000N
5000003509862660ISENTO        20171019MG01D1 0396585102P000000001349000000000134900000000000000000000000000000000000000000000N
5000005238209681ISENTO        20171019MG01D1 0396555102P000000000599000000000059900000000000000000000000000000000000000000000N
5000005008305689ISENTO        20171019MG01D1 0396415102P000000000349000000000034900000000000000000000000000000000000000000000N
5000062385712687ISENTO        20171019MG01D1 0396365102P000000000279000000000027900000000000000000000000000000000000000000000N
5000001909199656ISENTO        20171019MG01D1 0396375102P000000001499000000000149900000000000000000000000000000000000000000000N
5000013309026612ISENTO        20171019MG01D1 0396385102P000000002898000000000289800000000000000000000000000000000000000000000N
5000069224994687ISENTO        20171019MG01D1 0396395102P000000002097000000000209700000000000000000000000000000000000000000000N
5000069224994687ISENTO        20171019MG01D1 0396405102P000000000499000000000049900000000000000000000000000000000000000000000N
5000007849318609ISENTO        20171019MG01D1 0396475102P000000002299000000000229900000000000000000000000000000000000000000000N
5000001234567890ISENTO        20171019MG01D1 0396425102P000000000770000000000077000000000000000000000000000000000000000000000N
5000008897268684ISENTO        20171019MG01D1 0396435102P000000002348000000000234800000000000000000000000000000000000000000000N
5000010375522611ISENTO        20171019MG01D1 0396445102P000000002148000000000214800000000000000000000000000000000000000000000N
5000001234567890ISENTO        20171019MG01D1 0396455102P000000000300000000000030000000000000000000000000000000000000000000000N
5000001234567890ISENTO        20171019MG01D1 0396465102P000000000807600000000080760000000000000000000000000000000000000000000N
5000007247854693ISENTO        20171020MG01D1 0396705102P000000001395100000000139510000000000000000000000000000000000000000000N
5000065725654672ISENTO        20171020MG01D1 0396715102P000000001299000000000129900000000000000000000000000000000000000000000N
5000003737120650ISENTO        20171020MG01D1 0396695102P000000000849000000000084900000000000000000000000000000000000000000000N
5000077597273649ISENTO        20171020MG01D1 0396685102P000000001049000000000104900000000000000000000000000000000000000000000N
5000001384413677ISENTO        20171020MG01D1 0396675102P000000001649000000000164900000000000000000000000000000000000000000000N
5000046510460610ISENTO        20171020MG01D1 0396725102P000000001049000000000104900000000000000000000000000000000000000000000N
5000003216244679ISENTO        20171020MG01D1 0396735102P000000000349000000000034900000000000000000000000000000000000000000000N
5000013768183610ISENTO        20171020MG01D1 0396745102P000000000849000000000084900000000000000000000000000000000000000000000N
5000005529340628ISENTO        20171020MG01D1 0396615102P000000000899000000000089900000000000000000000000000000000000000000000N
5000046510460610ISENTO        20171020MG01D1 0396665102P000000002048000000000204800000000000000000000000000000000000000000000N
5000005622817625ISENTO        20171020MG01D1 0396655102P000000001199000000000119900000000000000000000000000000000000000000000N
5000009241016604ISENTO        20171020MG01D1 0396645102P000000001248000000000124800000000000000000000000000000000000000000000N
5000001406822604ISENTO        20171020MG01D1 0396635102P000000000989400000000098940000000000000000000000000000000000000000000N
5000008682705630ISENTO        20171020MG01D1 0396625102P000000003847000000000384700000000000000000000000000000000000000000000N
5000001234567890ISENTO        20171020MG01D1 0396605102P000000000950100000000095010000000000000000000000000000000000000000000N
5000088802639604ISENTO        20171020MG01D1 0396595102P000000001399000000000139900000000000000000000000000000000000000000000N
5000006175550609ISENTO        20171021MG01D1 0396845102P000000003648000000000364800000000000000000000000000000000000000000000N
5000006175550609ISENTO        20171021MG01D1 0396855102P000000003947000000000394700000000000000000000000000000000000000000000N
5000001472525809ISENTO        20171021MG01D1 0396835102P000000003197000000000319700000000000000000000000000000000000000000000N
5000056490917653ISENTO        20171021MG01D1 0396825102P000000001899000000000189900000000000000000000000000000000000000000000N
5000010969435657ISENTO        20171021MG01D1 0396865102P000000001199000000000119900000000000000000000000000000000000000000000N
5000012794731696ISENTO        20171021MG01D1 0396875102P000000000728000000000072800000000000000000000000000000000000000000000N
5000008872935652ISENTO        20171021MG01D1 0396885102P000000001349000000000134900000000000000000000000000000000000000000000N
5000008838389667ISENTO        20171021MG01D1 0396895102P000000001199000000000119900000000000000000000000000000000000000000000N
5000041651162620ISENTO        20171021MG01D1 0396815102P000000000949000000000094900000000000000000000000000000000000000000000N
5000006528470642ISENTO        20171021MG01D1 0396805102P000000001299000000000129900000000000000000000000000000000000000000000N
5000001234567890ISENTO        20171021MG01D1 0396795102P000000000550900000000055090000000000000000000000000000000000000000000N
5000010335550614ISENTO        20171021MG01D1 0396785102P000000001299000000000129900000000000000000000000000000000000000000000N
5000071605959634ISENTO        20171021MG01D1 0396765102P000000000799000000000079900000000000000000000000000000000000000000000N
5000004586499613ISENTO        20171021MG01D1 0396755102P000000000380000000000038000000000000000000000000000000000000000000000N
5000013968108620ISENTO        20171023MG01D1 0397055102P000000001299000000000129900000000000000000000000000000000000000000000N
5000098626159668ISENTO        20171023MG01D1 0397065102P000000001748000000000174800000000000000000000000000000000000000000000N
5000047846003615ISENTO        20171023MG01D1 0397045102P000000008199000000000819900000000000000000000000000000000000000000000N
5000008992585659ISENTO        20171023MG01D1 0397035102P000000004195000000000419500000000000000000000000000000000000000000000N
5000035325430874ISENTO        20171023MG01D1 0397075102P000000001899000000000189900000000000000000000000000000000000000000000N
5000035325430874ISENTO        20171023MG01D1 0397085102P000000000549000000000054900000000000000000000000000000000000000000000N
5000086795511634ISENTO        20171023MG01D1 0397095102P000000000899000000000089900000000000000000000000000000000000000000000N
5000009770345695ISENTO        20171023MG01D1 0397105102P000000001198000000000119800000000000000000000000000000000000000000000N
5000005092456680ISENTO        20171023MG01D1 0397115102P000000000449000000000044900000000000000000000000000000000000000000000N
5000011704995620ISENTO        20171023MG01D1 0397125102P000000001399000000000139900000000000000000000000000000000000000000000N
5000082289115649ISENTO        20171023MG01D1 0396995102P000000001099000000000109900000000000000000000000000000000000000000000N
5000008963414612ISENTO        20171023MG01D1 0396955102P000000000299000000000029900000000000000000000000000000000000000000000N
5000092066291668ISENTO        20171023MG01D1 0396905102P000000001098000000000109800000000000000000000000000000000000000000000N
5000001234567890ISENTO        20171023MG01D1 0396915102P000000000830000000000083000000000000000000000000000000000000000000000N
5000005360968648ISENTO        20171023MG01D1 0396925102P000000000799000000000079900000000000000000000000000000000000000000000N
5000012231899612ISENTO        20171023MG01D1 0396935102P000000000499000000000049900000000000000000000000000000000000000000000N
5000008367929632ISENTO        20171023MG01D1 0396945102P000000000499000000000049900000000000000000000000000000000000000000000N
5000053296966668ISENTO        20171023MG01D1 0397025102P000000000799000000000079900000000000000000000000000000000000000000000N
5000050012495115ISENTO        20171023MG01D1 0396965102P000000008091000000000809100000000000000000000000000000000000000000000N
5000014110327644ISENTO        20171023MG01D1 0396975102P000000001149000000000114900000000000000000000000000000000000000000000N
5000001516128621ISENTO        20171023MG01D1 0396985102P000000001399000000000139900000000000000000000000000000000000000000000N
5000007155791695ISENTO        20171023MG01D1 0397006102P000000000648000000000064800000000000000000000000000000000000000000000N
5000012451634693ISENTO        20171023MG01D1 0397015102P000000001349000000000134900000000000000000000000000000000000000000000N
5000042641349604ISENTO        20171024MG01D1 0397265102P000000001648000000000164800000000000000000000000000000000000000000000N
5000012780493631ISENTO        20171024MG01D1 0397275102P000000001499000000000149900000000000000000000000000000000000000000000N
5000084994576653ISENTO        20171024MG01D1 0397245102P000000002167500000000216750000000000000000000000000000000000000000000N
5000002110467606ISENTO        20171024MG01D1 0397235102P000000002448000000000244800000000000000000000000000000000000000000000N
5000080288367634ISENTO        20171024MG01D1 0397225102P000000001899000000000189900000000000000000000000000000000000000000000N
5000001234567890ISENTO        20171024MG01D1 0397285102P000000000999000000000099900000000000000000000000000000000000000000000N
5000007708633613ISENTO        20171024MG01D1 0397295102P000000000899000000000089900000000000000000000000000000000000000000000N
5000007708633613ISENTO        20171024MG01D1 0397305102P000000001449000000000144900000000000000000000000000000000000000000000N
5000001234567890ISENTO        20171024MG01D1 0397315102P000000000588000000000058800000000000000000000000000000000000000000000N
5000001234567890ISENTO        20171024MG01D1 0397325102P000000000580800000000058080000000000000000000000000000000000000000000N
5000047637501604ISENTO        20171024MG01D1 0397255102P000000002048000000000204800000000000000000000000000000000000000000000N
5000066821827672ISENTO        20171024MG01D1 0397165102P000000000399000000000039900000000000000000000000000000000000000000000N
5000004152493682ISENTO        20171024MG01D1 0397135102P000000000500000000000050000000000000000000000000000000000000000000000N
5000004092532601ISENTO        20171024MG01D1 0397145102P000000000899000000000089900000000000000000000000000000000000000000000N
5000007482674683ISENTO        20171024MG01D1 0397155102P000000000648000000000064800000000000000000000000000000000000000000000N
5000001424375657ISENTO        20171024MG01D1 0397215102P000000000799000000000079900000000000000000000000000000000000000000000N
5000001234567890ISENTO        20171024MG01D1 0397175102P000000000360000000000036000000000000000000000000000000000000000000000N
5000054357829615ISENTO        20171024MG01D1 0397185102P000000000438000000000043800000000000000000000000000000000000000000000N
5000009770345695ISENTO        20171024MG01D1 0397195102P000000000399000000000039900000000000000000000000000000000000000000000N
5000001234567890ISENTO        20171024MG01D1 0397205102P000000000849000000000084900000000000000000000000000000000000000000000N
5000005151493655ISENTO        20171025MG01D1 0397475102P000000000800000000000080000000000000000000000000000000000000000000000N
5000002808263627ISENTO        20171025MG01D1 0397465102P000000002499000000000249900000000000000000000000000000000000000000000N
5000042152470559ISENTO        20171025MG01D1 0397485102P000000005200000000000520000000000000000000000000000000000000000000000N
5000005804896636ISENTO        20171025MG01D1 0397455102P000000001748000000000174800000000000000000000000000000000000000000000N
5000004563455660ISENTO        20171025MG01D1 0397445102P000000001399000000000139900000000000000000000000000000000000000000000N
5000012482377650ISENTO        20171025MG01D1 0397435102P000000001448000000000144800000000000000000000000000000000000000000000N
5000084497955672ISENTO        20171025MG01D1 0397495102P000000000919000000000091900000000000000000000000000000000000000000000N
5000010335117651ISENTO        20171025MG01D1 0397505102P000000001149000000000114900000000000000000000000000000000000000000000N
5000082289115649ISENTO        20171025MG01D1 0397515102P000000001099000000000109900000000000000000000000000000000000000000000N
5000070170159671ISENTO        20171025MG01D1 0397525102P000000000599000000000059900000000000000000000000000000000000000000000N
5000007802938600ISENTO        20171025MG01D1 0397545102P000000001599000000000159900000000000000000000000000000000000000000000N
5000004943932622ISENTO        20171025MG01D1 0397535102P000000001498000000000149800000000000000000000000000000000000000000000N
5000012175024679ISENTO        20171025MG01D1 0397365102P000000000599000000000059900000000000000000000000000000000000000000000N
5000001234567890ISENTO        20171025MG01D1 0397335102P000000000949000000000094900000000000000000000000000000000000000000000N
5000005918126651ISENTO        20171025MG01D1 0397345102P000000002498000000000249800000000000000000000000000000000000000000000N
5000004943932622ISENTO        20171025MG01D1 0397355102P000000001898000000000189800000000000000000000000000000000000000000000N
5000005795654671ISENTO        20171025MG01D1 0397425102P000000000499000000000049900000000000000000000000000000000000000000000N
5000001234567890ISENTO        20171025MG01D1 0397375102P000000000870000000000087000000000000000000000000000000000000000000000N
5000076276295604ISENTO        20171025MG01D1 0397385102P000000001048000000000104800000000000000000000000000000000000000000000N
5000076276295604ISENTO        20171025MG01D1 0397395102P000000002447000000000244700000000000000000000000000000000000000000000N
5000009888296655ISENTO        20171025MG01D1 0397405102P000000000999000000000099900000000000000000000000000000000000000000000N
5000040465969615ISENTO        20171025MG01D1 0397415102P000000000349000000000034900000000000000000000000000000000000000000000N
5000061819611604ISENTO        20171026MG01D1 0397705102P000000001299000000000129900000000000000000000000000000000000000000000N
5000008083873675ISENTO        20171026MG01D1 0397695102P000000002148000000000214800000000000000000000000000000000000000000000N
5000002128034680ISENTO        20171026MG01D1 0397715102P000000001499000000000149900000000000000000000000000000000000000000000N
5000001234567890ISENTO        20171026MG01D1 0397685102P000000001100000000000110000000000000000000000000000000000000000000000N
5000082259100600ISENTO        20171026MG01D1 0397675102P000000001299000000000129900000000000000000000000000000000000000000000N
5000004721965613ISENTO        20171026MG01D1 0397665102P000000000799000000000079900000000000000000000000000000000000000000000N
5000014557230610ISENTO        20171026MG01D1 0397725102P000000001449000000000144900000000000000000000000000000000000000000000N
5000005660006604ISENTO        20171026MG01D1 0397735102P000000000949000000000094900000000000000000000000000000000000000000000N
5000005157883684ISENTO        20171026MG01D1 0397745102P000000000849000000000084900000000000000000000000000000000000000000000N
5000062397699672ISENTO        20171026MG01D1 0397755102P000000001198000000000119800000000000000000000000000000000000000000000N
5000010873958608ISENTO        20171026MG01D1 0397765102P000000002898000000000289800000000000000000000000000000000000000000000N
5000002310658685ISENTO        20171026MG01D1 0397775102P000000003197000000000319700000000000000000000000000000000000000000000N
5000008425588618ISENTO        20171026MG01D1 0397785102P000000001598000000000159800000000000000000000000000000000000000000000N
5000018608160889ISENTO        20171026MG01D1 0397645102P000000000599000000000059900000000000000000000000000000000000000000000N
5000001234567890ISENTO        20171026MG01D1 0397605102P000000000539900000000053990000000000000000000000000000000000000000000N
5000092066291668ISENTO        20171026MG01D1 0397555102P000000000799000000000079900000000000000000000000000000000000000000000N
5000001234567890ISENTO        20171026MG01D1 0397565102P000000000536800000000053680000000000000000000000000000000000000000000N
5000011091012601ISENTO        20171026MG01D1 0397575102P000000002198000000000219800000000000000000000000000000000000000000000N
5000007359090679ISENTO        20171026MG01D1 0397585102P000000000599000000000059900000000000000000000000000000000000000000000N
5000013768183610ISENTO        20171026MG01D1 0397595102P000000000849000000000084900000000000000000000000000000000000000000000N
5000070170159671ISENTO        20171026MG01D1 0397655102P000000000599000000000059900000000000000000000000000000000000000000000N
5000002960687647ISENTO        20171026MG01D1 0397615102P000000001449000000000144900000000000000000000000000000000000000000000N
5000011757187693ISENTO        20171026MG01D1 0397625102P000000000999000000000099900000000000000000000000000000000000000000000N
5000018608160889ISENTO        20171026MG01D1 0397635102P000000002497000000000249700000000000000000000000000000000000000000000N
5000000323142648ISENTO        20171027MG01D1 0397935102P000000001449000000000144900000000000000000000000000000000000000000000N
5000084489294620ISENTO        20171027MG01D1 0397945102P000000001798000000000179800000000000000000000000000000000000000000000N
5000006314299640ISENTO        20171027MG01D1 0397925102P000000001799000000000179900000000000000000000000000000000000000000000N
5000005584802689ISENTO        20171027MG01D1 0397915102P000000000449000000000044900000000000000000000000000000000000000000000N
5000001304591352ISENTO        20171027MG01D1 0397905102P000000001249000000000124900000000000000000000000000000000000000000000N
5000004586499613ISENTO        20171027MG01D1 0397955102P000000000100000000000010000000000000000000000000000000000000000000000N
5000001234567890ISENTO        20171027MG01D1 0397965102P000000000249000000000024900000000000000000000000000000000000000000000N
5000012186575612ISENTO        20171027MG01D1 0397975102P000000000296700000000029670000000000000000000000000000000000000000000N
5000050594893534ISENTO        20171027MG01D1 0397985102P000000000899000000000089900000000000000000000000000000000000000000000N
5000050594893534ISENTO        20171027MG01D1 0397995102P000000002697000000000269700000000000000000000000000000000000000000000N
5000009328992699ISENTO        20171027MG01D1 0397875102P000000000599000000000059900000000000000000000000000000000000000000000N
5000004738392611ISENTO        20171027MG01D1 0397835102P000000000699000000000069900000000000000000000000000000000000000000000N
5000000296013633ISENTO        20171027MG01D1 0397795102P000000001147000000000114700000000000000000000000000000000000000000000N
5000011091012601ISENTO        20171027MG01D1 0397805102P000000002248000000000224800000000000000000000000000000000000000000000N
5000084497955672ISENTO        20171027MG01D1 0397815102P000000000849000000000084900000000000000000000000000000000000000000000N
5000009359430641ISENTO        20171027MG01D1 0397825102P000000000699000000000069900000000000000000000000000000000000000000000N
5000073427926672ISENTO        20171027MG01D1 0397895102P000000003298000000000329800000000000000000000000000000000000000000000N
5000008367929632ISENTO        20171027MG01D1 0397845102P000000000599000000000059900000000000000000000000000000000000000000000N
5000001234567890ISENTO        20171027MG01D1 0397855102P000000001449000000000144900000000000000000000000000000000000000000000N
5000010448301660ISENTO        20171027MG01D1 0397865102P000000003695100000000369510000000000000000000000000000000000000000000N
5000005622817625ISENTO        20171027MG01D1 0397885102P000000001199000000000119900000000000000000000000000000000000000000000N
5000003865730698ISENTO        20171028MG01D1 0398175102P000000001049000000000104900000000000000000000000000000000000000000000N
5000007802901600ISENTO        20171028MG01D1 0398165102P000000001199000000000119900000000000000000000000000000000000000000000N
5000004150382603ISENTO        20171028MG01D1 0398185102P000000001548000000000154800000000000000000000000000000000000000000000N
5000010874365678ISENTO        20171028MG01D1 0398155102P000000001396700000000139670000000000000000000000000000000000000000000N
5000006877105613ISENTO        20171028MG01D1 0398145102P000000000899000000000089900000000000000000000000000000000000000000000N
5000077583248604ISENTO        20171028MG01D1 0398125102P000000002947000000000294700000000000000000000000000000000000000000000N
5000006730284617ISENTO        20171028MG01D1 0398195102P000000001549000000000154900000000000000000000000000000000000000000000N
5000012491643626ISENTO        20171028MG01D1 0398205102P000000003547000000000354700000000000000000000000000000000000000000000N
5000011746984627ISENTO        20171028MG01D1 0398215102P000000000949000000000094900000000000000000000000000000000000000000000N
5000011500923605ISENTO        20171028MG01D1 0398225102P000000000449000000000044900000000000000000000000000000000000000000000N
5000010292699638ISENTO        20171028MG01D1 0398235102P000000000319900000000031990000000000000000000000000000000000000000000N
5000008509566682ISENTO        20171028MG01D1 0398245102P000000003500000000000350000000000000000000000000000000000000000000000N
5000006891326621ISENTO        20171028MG01D1 0398055102P000000001299000000000129900000000000000000000000000000000000000000000N
5000006730284617ISENTO        20171028MG01D1 0398005102P000000001549000000000154900000000000000000000000000000000000000000000N
5000009038859643ISENTO        20171028MG01D1 0398015102P000000000649000000000064900000000000000000000000000000000000000000000N
5000070273995634ISENTO        20171028MG01D1 0398025102P000000003896000000000389600000000000000000000000000000000000000000000N
5000001716159644ISENTO        20171028MG01D1 0398035102P000000001699000000000169900000000000000000000000000000000000000000000N
5000001234567890ISENTO        20171028MG01D1 0398045102P000000000500000000000050000000000000000000000000000000000000000000000N
5000001944060677ISENTO        20171028MG01D1 0398115102P000000001698000000000169800000000000000000000000000000000000000000000N
5000010638854695ISENTO        20171028MG01D1 0398075102P000000002099000000000209900000000000000000000000000000000000000000000N
5000010638854695ISENTO        20171028MG01D1 0398085102P000000000279000000000027900000000000000000000000000000000000000000000N
5000077576071672ISENTO        20171028MG01D1 0398095102P000000001899000000000189900000000000000000000000000000000000000000000N
5000009328992699ISENTO        20171028MG01D1 0398105102P000000000499000000000049900000000000000000000000000000000000000000000N
5000001234567890ISENTO        20171028MG01D1 0398065102P000000001430000000000143000000000000000000000000000000000000000000000N
5000001234567890ISENTO        20171030MG01D1 0398355102P000000001249000000000124900000000000000000000000000000000000000000000N
5000001234567890ISENTO        20171030MG01D1 0398385102P000000001120000000000112000000000000000000000000000000000000000000000N
5000084493259604ISENTO        20171030MG01D1 0398365102P000000000949000000000094900000000000000000000000000000000000000000000N
5000001944060677ISENTO        20171030MG01D1 0398375102P000000000549000000000054900000000000000000000000000000000000000000000N
5000005999259657ISENTO        20171030MG01D1 0398395102P000000000899000000000089900000000000000000000000000000000000000000000N
5000008692978647ISENTO        20171030MG01D1 0398405102P000000001349000000000134900000000000000000000000000000000000000000000N
5000009156491603ISENTO        20171030MG01D1 0398335102P000000004045000000000404500000000000000000000000000000000000000000000N
5000084493259604ISENTO        20171030MG01D1 0398275102P000000002149000000000214900000000000000000000000000000000000000000000N
5000044907710615ISENTO        20171030MG01D1 0398255102P000000000999000000000099900000000000000000000000000000000000000000000N
5000084493259604ISENTO        20171030MG01D1 0398265102P000000000949000000000094900000000000000000000000000000000000000000000N
5000000871173638ISENTO        20171030MG01D1 0398345102P000000001598000000000159800000000000000000000000000000000000000000000N
5000009952111673ISENTO        20171030MG01D1 0398295102P000000001699000000000169900000000000000000000000000000000000000000000N
5000070256985634ISENTO        20171030MG01D1 0398305102P000000000549000000000054900000000000000000000000000000000000000000000N
5000004092532601ISENTO        20171030MG01D1 0398315102P000000000999000000000099900000000000000000000000000000000000000000000N
5000095119124615ISENTO        20171030MG01D1 0398325102P000000000549000000000054900000000000000000000000000000000000000000000N
5000010826471609ISENTO        20171030MG01D1 0398285102P000000002399000000000239900000000000000000000000000000000000000000000N
5000084982942668ISENTO        20171031MG01D1 0398465102P000000001499000000000149900000000000000000000000000000000000000000000N
5000012745190636ISENTO        20171031MG01D1 0398445102P000000001680000000000168000000000000000000000000000000000000000000000N
5000077590465615ISENTO        20171031MG01D1 0398455102P000000000799000000000079900000000000000000000000000000000000000000000N
5000058624759668ISENTO        20171031MG01D1 0398425102P000000000870000000000087000000000000000000000000000000000000000000000N
5000023349182615ISENTO        20171031MG01D1 0398415102P000000000799000000000079900000000000000000000000000000000000000000000N
752017100120171031102636        64031900KOLOSH C0144 MARINHO                                 PR    000000000000000000000000000
752017100120171031136686        64029990PE COM PE 09059 BAMBINO BRANCO                       PR    000000000000000000000000000
752017100120171031154059        61159600SELENE 3030001 CAFE                                  UN    000000000000000000000000000
752017100120171031154061        61159600SELENE 3030001 CAQUI                                 UN    000000000000000000000000000
752017100120171031158522        64039990MARINER 28505 GELO                                   PR    000000000000000000000000000
752017100120171031163648        64029990PICCADILLY 400147 MARROM                             PR    000000000000000000000000000
752017100120171031171853        64039990MARINER 28501 MARINHO                                PR    000000000000000000000000000
752017100120171031180996        64041900KOLOSH K9962F PINK/PRETO                             PR    000000000000000000000000000
752017100120171031181740        64022000HAVAIANAS POWER PTO/CNZ                              PR    000000000000000000000000000
752017100120171031185013        64029990GRENDENE 21335 EVER AFTER VERM/DOUR                  PR    000000000000000000000000000
752017100120171031187540        64022000GRENDENE 11074 RIDER PRETO/AZUL                      PR    000000000000000000000000000
752017100120171031194386        64039990CAVALERA 13011336 GUTO CARAMELO                      PR    000000000000000000000000000
752017100120171031216311        64041900AZALEIA 326/858 PRETO                                PR    000000000000000000000000000
752017100120171031218888        42029200LUXCEL SC119M PRETO                                  UN    000000000000000000000000000
752017100120171031222150        64039990MARINER 28544 TABACO                                 PR    000000000000000000000000000
752017100120171031228902        64021900MAKENZI L92 MARINHO                                  PR    000000000000000000000000000
752017100120171031233707        64041900PLAY BABY 380 ROYAL                                  PR    000000000000000000000000000
752017100120171031236035        64029990GRENDENE 11127 CARTAGO RHODES AZUL/VERM              PR    000000000000000000000000000
752017100120171031236040        64029990GRENDENE 11127 CARTAGO RHODES AZUL/VERM              PR    000000000000000000000000000
752017100120171031238852        64029990VALECCI  84507 PRETO                                 PR    000000000000000000000000000
752017100120171031239317        64029990PAMPILI 208022 CEREJA                                PR    000000000000000000000000000
752017100120171031239400        64029990PAMPILI 211076 NUDE                                  PR    000000000000000000000000000
752017100120171031239606        64022000GRENDENE 26062 IPANEMA  AZUL/LAR                     PR    000000000000000000000000000
752017100120171031239619        64022000GRENDENE 26068 IPANEMA  ROSE                         PR    000000000000000000000000000
752017100120171031239675        64029990BEIRA RIO 4784213 PRETO                              PR    000000000000000000000000000
752017100120171031239776        64029990RAMARIM 163204 AMENDOA                               PR    000000000000000000000000000
752017100120171031239916        64022000GRENDENE 26060 IPANEMA  ROSA CLARO                   PR    000000000000000000000000000
752017100120171031243211        64029990RAMARIM 163203 CHAMPAGNE                             PR    000000000000000000000000000
752017100120171031243261        64039990FORK A10001-16 CAFE                                  PR    000000000000000000000000000
752017100120171031243596        64022000HAVAIANAS SLIM NAUTICAL MARINHO                      PR    000000000000000000000000000
752017100120171031243770        61159500SELENE 2450001 CINZA                                 UN    000000000000000000000000000
752017100120171031244220        64029990MISSISSIPI X5381 PRETO                               PR    000000000000000000000000000
752017100120171031245930        64029990DAKOTA Z1271 OURO                                    PR    000000000000000000000000000
752017100120171031246279        64041900POLO RP14.1 CREME                                    PR    000000000000000000000000000
752017100120171031246624        64022000HAVAIANAS SLIM TROPICAL ROSA                         PR    000000000000000000000000000
752017100120171031246707        64022000HAVAIANAS KIDS SLIM PRINCESS VERMELHO                PR    000000000000000000000000000
752017100120171031246708        64022000HAVAIANAS KIDS SLIM PRINCESS VERMELHO                PR    000000000000000000000000000
752017100120171031250689        64029990DI VALENTINI 31403651 DOURADO                        PR    000000000000000000000000000
752017100120171031251651        64022000GRENDENE 26048 IPANEMA  ROSA                         PR    000000000000000000000000000
752017100120171031252058        64022000GRENDENE 10828 RIDER LAR/MARROM                      PR    000000000000000000000000000
752017100120171031252718        64022000GRENDENE 11214 RIDER PTO/AMR                         PR    000000000000000000000000000
752017100120171031252735        64022000GRENDENE 26088 IPANEMA  VERMELHO                     PR    000000000000000000000000000
752017100120171031252797        64041900GRENDENE 10738 CARTAGO PTO/CNZ                       PR    000000000000000000000000000
752017100120171031252809        64022000GRENDENE 11014 GUGA  AZUL                            PR    000000000000000000000000000
752017100120171031253375        64029990DAKOTA Z1311 PRETO                                   PR    000000000000000000000000000
752017100120171031253608        64022000GRENDENE 25956 IPANEMA AVENGER AZUL/BRANCO           PR    000000000000000000000000000
752017100120171031257766        64039990MARINER 28544 MARINHO                                PR    000000000000000000000000000
752017100120171031257992        64021900DRAYZINHO 112 MARINHO/LJA                            PR    000000000000000000000000000
752017100120171031258486        62171000AMERICA 4004118 MARROM                               UN    000000000000000000000000000
752017100120171031259375        64029990RAMARIM 1658201 MARINHO                              PR    000000000000000000000000000
752017100120171031259755        64029990KIDY 00205741413 EQUILIBRIO ACAI                     PR    000000000000000000000000000
752017100120171031259908        64029990PICCADILLY 500147 PRETO                              PR    000000000000000000000000000
752017100120171031260128        64039990HELAZZA 901 PRETO                                    PR    000000000000000000000000000
752017100120171031260183        64039990HELAZZA 12404 FERRUGEM                               PR    000000000000000000000000000
752017100120171031260198        64041900GRENDENE 11137 CARTAGO  PRETO/BEGE                   PR    000000000000000000000000000
752017100120171031260430        64029990PAMPILI 211040 AZUL CLARO                            PR    000000000000000000000000000
752017100120171031260549        64029990PAMPILI 208021 ROUGE                                 PR    000000000000000000000000000
752017100120171031260586        64029990PAMPILI 211074 AZUL                                  PR    000000000000000000000000000
752017100120171031260601        64029990PAMPILI 211070 PRETO                                 PR    000000000000000000000000000
752017100120171031262967        64022000GRENDENE 26032 IPANEMA GLAM PRATA                    PR    000000000000000000000000000
752017100120171031264114        64029990PETITE JOLIE PJ2067 NUDE                             PR    000000000000000000000000000
752017100120171031265331        64022000GRENDENE 25942 HORA ROSA                             PR    000000000000000000000000000
752017100120171031265507        64041900KIDY 01501760932 BABY OURO                           PR    000000000000000000000000000
752017100120171031266153        64041900VIA SCARPA 1569498583 DOURADO                        PR    000000000000000000000000000
752017100120171031266567        42029200LUXCEL IS31522BC PRETO                               UN    000000000000000000000000000
752017100120171031266658        42029200LUXCEL IS31851PE JEANS                               UN    000000000000000000000000000
752017100120171031266758        64041900BOTINHO 817FA PRETO                                  PR    000000000000000000000000000
752017100120171031266846        64041900WEST COAST 118619 MARROM                             PR    000000000000000000000000000
752017100120171031267039        64029990BEIRA RIO 8246347 PRETO/VERNIZ                       PR    000000000000000000000000000
752017100120171031267332        64039990PAMPILI 206093 DOURADO                               PR    000000000000000000000000000
752017100120171031267446        61159500SELENE 4350001 PRETO                                 UN    000000000000000000000000000
752017100120171031267519        61159500SELENE 2310001 CZA/PINK                              UN    000000000000000000000000000
752017100120171031267796        61159500SELENE 2310001 MARINHO                               UN    000000000000000000000000000
752017100120171031267836        64022000HAVAIANAS CASUAL MARINHO/VERM                        PR    000000000000000000000000000
752017100120171031271148        64022000GRENDENE 25865 IPANEMA FROZEN ROSA                   PR    000000000000000000000000000
752017100120171031271221        64029990SOUND ZS1850 MARINHO                                 PR    000000000000000000000000000
752017100120171031271480        64029990DAKOTA Z1132 PELE                                    PR    000000000000000000000000000
752017100120171031272032        64022000GRENDENE 21596 LIGA DA JUSTICA AZUL                  PR    000000000000000000000000000
752017100120171031273253        64022000GRENDENE 25992 PRETO/ROSA                            PR    000000000000000000000000000
752017100120171031273716        64029990GRENDENE 21584 BARBIE OXFORD F ROSA                  PR    000000000000000000000000000
752017100120171031273718        64029990GRENDENE 21584 BARBIE OXFORD F ROSA                  PR    000000000000000000000000000
752017100120171031274096        64029990PETITE JOLIE PJ1535 PRETO                            PR    000000000000000000000000000
752017100120171031274101        64029990PETITE JOLIE PJ1535 PRETO                            PR    000000000000000000000000000
752017100120171031274193        61159500SELENE 2010001 BCO/CZA                               UN    000000000000000000000000000
752017100120171031274200        61159500SELENE 2300001 BCO/MARINHO                           UN    000000000000000000000000000
752017100120171031274215        61159500SELENE 2010001 BCO/PTO                               UN    000000000000000000000000000
752017100120171031275383        64041900KOLOSH K8961 AZUL/PTO                                PR    000000000000000000000000000
752017100120171031275531        64031900POLO PL103.18 PRETO                                  PR    000000000000000000000000000
752017100120171031275755        64029990MOLEKINHA 2303102 OURO ROSADO                        PR    000000000000000000000000000
752017100120171031277813        64041900KOLOSH C0984 BRANCO                                  PR    000000000000000000000000000
752017100120171031278037        64021900DAKOTA B8482 OURO                                    PR    000000000000000000000000000
752017100120171031278105        64029990KIDY 03800048581 MAR/LIMAO                           PR    000000000000000000000000000
752017100120171031278479        64029990VIZZANO 6283200 OURO ROSADO                          PR    000000000000000000000000000
752017100120171031278622        64029990MOLEKINHO 2800100 MARINHO                            PR    000000000000000000000000000
752017100120171031279433        64022000GRENDENE 21617 PATRULHA CANINA AZUL                  PR    000000000000000000000000000
752017100120171031279828        64029990PETIT JOLIE PJ2272 NUDE                              PR    000000000000000000000000000
752017100120171031279900        64029990VIZZANO 6282125 BEGE                                 PR    000000000000000000000000000
752017100120171031280565        64029990ADIDAS H68450 ARTILHEIRA 17 IN PTO/VERM              PR    000000000000000000000000000
752017100120171031280648        64022000GRENDENE 25878 IPANEMA LOLITA AZUL/ROSA              PR    000000000000000000000000000
752017100120171031280692        64029990MOLECA 5406202 OURO/ROSE                             PR    000000000000000000000000000
752017100120171031281244        64039990MORMAII 201120 CREW VERMELHO                         PR    000000000000000000000000000
752017100120171031281374        42022220PETITE JOLIE PJ2266 NATURAL                          UN    000000000000000000000000000
752017100120171031281940        64029990GRENDENE 21689 BARBIE SLIDE PRETO/DOURADO            PR    000000000000000000000000000
752017100120171031281943        64029990GRENDENE 21689 BARBIE SLIDE PRETO/DOURADO            PR    000000000000000000000000000
752017100120171031282020        64021900DAKOTA B8437 BRANCO                                  PR    000000000000000000000000000
752017100120171031282358        64039990DAKOTA Z1583 PRETO                                   PR    000000000000000000000000000
752017100120171031282678        64039990ITAPUA 18301C17 CAFE                                 PR    000000000000000000000000000
752017100120171031283518        64029990GRENDENE 17407 ZAXY CRUSH I PRETO                    PR    000000000000000000000000000
752017100120171031283580        64022000GRENDENE 26079 IPANEMA  ROSA                         PR    000000000000000000000000000
752017100120171031284054        64029990GRENDENE 11294 RIDER SHAPE PTO/VERM                  PR    000000000000000000000000000
752017100120171031284061        64022000GRENDENE 11294 RIDER SHAPE PRETO/AMAR                PR    000000000000000000000000000
752017100120171031284193        64022000GRENDENE 21604 LADYBUG LOVE PTO/VERM                 PR    000000000000000000000000000
752017100120171031284194        64022000GRENDENE 21604 LADYBUG LOVE PTO/VERM                 PR    000000000000000000000000000
752017100120171031284200        64022000GRENDENE 21604 LADYBUG LOVE PTO/VERM                 PR    000000000000000000000000000
752017100120171031284231        64022000GRENDENE 21604 LADYBUG LOVE VERMELHO/PTO             PR    000000000000000000000000000
752017100120171031284235        64022000GRENDENE 21604 LADYBUG LOVE VERMELHO/PTO             PR    000000000000000000000000000
752017100120171031284255        64022000GRENDENE 26039 IPANEMA LILAS                         PR    000000000000000000000000000
752017100120171031284299        64022000GRENDENE 26076 IPANEMA  RSA/AZL                      PR    000000000000000000000000000
752017100120171031284361        64022000GRENDENE 25980 IPANEMA  PTO/ROSA                     PR    000000000000000000000000000
752017100120171031284397        64039990CALVEST 3170C479 CAFE                                PR    000000000000000000000000000
752017100120171031284768        64022000GRENDENE 26189 IPANEMA PRETO/DOURADO                 PR    000000000000000000000000000
752017100120171031285048        64041900VIA SCARPA 13510038759 DOURADO                       PR    000000000000000000000000000
752017100120171031285049        64041900VIA SCARPA 13510038759 DOURADO                       PR    000000000000000000000000000
752017100120171031285268        64041900HAPPY LUCK HL 020 MARINHO/VERM                       PR    000000000000000000000000000
752017100120171031285433        64041900HAPPY LUCK HL 08 GRAFITE/LAR                         PR    000000000000000000000000000
752017100120171031285757        64031900KEMPS 300 PRETO                                      PR    000000000000000000000000000
752017100120171031285855        64041900ESPELHO MEU 818B10 AZUL/ROSA                         PR    000000000000000000000000000
752017100120171031285856        64041900ESPELHO MEU 818B10 AZUL/ROSA                         PR    000000000000000000000000000
752017100120171031285932        64029990KIDY 02202454465 LOVE NUDE                           PR    000000000000000000000000000
752017100120171031285954        64029990KIDY 01101765108 RESPI-TEC AZUL                      PR    000000000000000000000000000
752017100120171031286085        64021900MAKENZI Z88 CARAMELO                                 PR    000000000000000000000000000
752017100120171031286137        64029990KIDY 00205924005 BABY  NUDE                          PR    000000000000000000000000000
752017100120171031286248        64029990RAMARIM 1672203 PRETO                                PR    000000000000000000000000000
752017100120171031286407        64029990AZK 457 CHOCOLATE                                    PR    000000000000000000000000000
752017100120171031286441        64029990AZK A212 CHUMBO/PTO                                  PR    000000000000000000000000000
752017100120171031286449        64029990AZK A211 CHOCOLATE/PTO                               PR    000000000000000000000000000
752017100120171031286473        64029990AZK A214 MARINHO                                     PR    000000000000000000000000000
752017100120171031286537        64029990RAMARIM 163203 CARAMELO                              PR    000000000000000000000000000
752017100120171031286673        64039990HELAZZA 800 TAUPE                                    PR    000000000000000000000000000
752017100120171031286681        64039990HELAZZA 800 MUSGO                                    PR    000000000000000000000000000
752017100120171031286685        64039990HELAZZA 800 MUSGO                                    PR    000000000000000000000000000
752017100120171031286727        64039990HELAZZA 2409 CAFE                                    PR    000000000000000000000000000
752017100120171031286732        64039990CENSURA KIDS 12403 CAFE                              PR    000000000000000000000000000
752017100120171031286786        64039990FERRICELLI 48800 CHOCOLATE                           PR    000000000000000000000000000
752017100120171031286845        64039990FERRICELLI 40500 MARROM                              PR    000000000000000000000000000
752017100120171031286868        64039990FERRICELLI 47820 MARROM                              PR    000000000000000000000000000
752017100120171031286869        64039990FERRICELLI 47820 MARROM                              PR    000000000000000000000000000
752017100120171031286924        64022000GRENDENE 26124 IPANEMA  ROSA                         PR    000000000000000000000000000
752017100120171031287475        64029990MODARE 7034112 BEGE                                  PR    000000000000000000000000000
752017100120171031287494        64041900CRYSALIS 42005808 OURO ROSADO                        PR    000000000000000000000000000
752017100120171031287531        64029990MOLECA 5266203 GRAFITE                               PR    000000000000000000000000000
752017100120171031287650        64029990CRYSALIS 42005807 NUDE                               PR    000000000000000000000000000
752017100120171031287651        64029990CRYSALIS 42005807 NUDE                               PR    000000000000000000000000000
752017100120171031288028        64041900BATATINHA 161 GRAFITE/PTO                            PR    000000000000000000000000000
752017100120171031288073        64029990BEBECE 5814543 PRETO                                 PR    000000000000000000000000000
752017100120171031288221        64029990BEIRA RIO 8280215 BCO/BEGE                           PR    000000000000000000000000000
752017100120171031288230        64029990BEIRA RIO 8337104 NUDE                               PR    000000000000000000000000000
752017100120171031288243        64029990BEIRA RIO 8337103 PRETO                              PR    000000000000000000000000000
752017100120171031288399        64029990BEIRA RIO 8290208 NUDE                               PR    000000000000000000000000000
752017100120171031288426        61159500SELENE 4190001 BRANCO                                PR    000000000000000000000000000
752017100120171031288433        61159500SELENE 2000001 CZA/PTO                               UN    000000000000000000000000000
752017100120171031288484        64022000HAVAIANAS SLIM ORGANIC CF BCO/AMA                    PR    000000000000000000000000000
752017100120171031288504        64022000HAVAIANAS SLIM RETRO CF VERDE                        PR    000000000000000000000000000
752017100120171031288624        65050011COLCCI 0990142652 FLORAL                             UN    000000000000000000000000000
752017100120171031288779        64041900MOLECA 5303100 OURO                                  PR    000000000000000000000000000
752017100120171031288852        64029990MOLECA 5297315 PRETO                                 PR    000000000000000000000000000
752017100120171031288906        64059000ANDRAX 1010 PRATA                                    PR    000000000000000000000000000
752017100120171031289512        64029990DIJEAN 669/238 ROSA                                  PR    000000000000000000000000000
752017100120171031289529        64029990COMFORTFLEX 1741304 VERMELHO                         PR    000000000000000000000000000
752017100120171031289653        64021900KOLOSH K8921 CINZA/LAR                               PR    000000000000000000000000000
752017100120171031289740        64029990TINA TEEN 1710-128 CINZA                             PR    000000000000000000000000000
752017100120171031289742        64029990TINA TEEN 1710-128 CINZA                             PR    000000000000000000000000000
752017100120171031290030        64029990CONFORT WAY 307 CAFE                                 PR    000000000000000000000000000
752017100120171031290037        64029990CONFORT WAY 307 CAFE                                 PR    000000000000000000000000000
752017100120171031290113        64029990CONFORT WAY 514 CAFE                                 PR    000000000000000000000000000
752017100120171031290394        64029990PINK CATS W9141 A MULTICOLOR                         PR    000000000000000000000000000
752017100120171031290419        64029990MISSISSIPI X6164 CARAMELO                            PR    000000000000000000000000000
752017100120171031290491        64021900PINK CATS W9001 DOURADO                              PR    000000000000000000000000000
752017100120171031290579        64041900CONVERSE CK05070002 PRETO                            PR    000000000000000000000000000
752017100120171031290605        6429990 DAKOTA Z2052 NUDE                                    PR    000000000000000000000000000
752017100120171031290619        64041900CONVERSE CT00040004 VERMELHO                         PR    000000000000000000000000000
752017100120171031290675        64041900CONVERSE CR01300002 PRETO                            PR    000000000000000000000000000
752017100120171031290909        64029990PINK CATS W9141A OURO/LIGHT                          PR    000000000000000000000000000
752017100120171031290911        64029990PINK CATS W9141A OURO/LIGHT                          PR    000000000000000000000000000
752017100120171031291417        64039990MACBOOT PIAU02 TABACO                                PR    000000000000000000000000000
752017100120171031291481        64029990DI VALENTINI 380.03972 PRETO                         PR    000000000000000000000000000
752017100120171031291516        64029990DI VALENTINI 368.03927 WHITE                         PR    000000000000000000000000000
752017100120171031291541        64029990DAKOTA Z1984 DOURADO                                 PR    000000000000000000000000000
752017100120171031291545        64029990DAKOTA Z1984 DOURADO                                 PR    000000000000000000000000000
752017100120171031291645        64041100FILA 697197 TWISTING AZUL/VERD                       PR    000000000000000000000000000
752017100120171031291652        64021900FILA 718004 BELLUNO 2.0 MARINHO                      PR    000000000000000000000000000
752017100120171031291817        64021900UMBRO 710261 SPECIALI CLUB AZUL/LIMAO                PR    000000000000000000000000000
752017100120171031291849        64029990AZALEIA 322/884 CARAMELO                             PR    000000000000000000000000000
752017100120171031292124        64029990SPATIARI SS105.3 PRETO                               PR    000000000000000000000000000
752017100120171031292210        64039990PASSO LEVE MPZONTAF MARINHO                          PR    000000000000000000000000000
752017100120171031292228        64039990PASSO LEVE MFVAPORF VINHO                            PR    000000000000000000000000000
752017100120171031292231        64029990BEIRA RIO 8237975 GRAFITE                            PR    000000000000000000000000000
752017100120171031292274        64029990BEIRA RIO 8237960 GRAFITE                            PR    000000000000000000000000000
752017100120171031292748        64029990NIKE SHOX AVENUE LTR PRETO                           PR    000000000000000000000000000
752017100120171031293263        64029990BEBECE 5113252 PRETO                                 PR    000000000000000000000000000
752017100120171031293273        64029990BEBECE 5113252 CARAMELO                              PR    000000000000000000000000000
752017100120171031293380        64022000COCA COLA CC2273 BCO/MARINHO                         PR    000000000000000000000000000
752017100120171031293460        64022000COCA COLA CC2272 BRANCO                              PR    000000000000000000000000000
752017100120171031294266        64041900USAFLEX W7110 PRETO                                  PR    000000000000000000000000000
752017100120171031294333        64041900USAFLEX X3808 MARINHO                                PR    000000000000000000000000000
752017100120171031294377        64039990USAFLEX V1204 PRETO                                  PR    000000000000000000000000000
752017100120171031294566        64022000GRENDENE 26104 IPANEMA WAVE BRANCO                   PR    000000000000000000000000000
752017100120171031294568        64022000GRENDENE 26104 IPANEMA WAVE BRANCO                   PR    000000000000000000000000000
752017100120171031295097        64029990PINK CATS W9133 ROSE                                 PR    000000000000000000000000000
752017100120171031295210        64029990OLYMPIKUS 323 WELLNESS MARINHO/VERM                  PR    000000000000000000000000000
752017100120171031295211        64029990OLYMPIKUS 323 WELLNESS MARINHO/VERM                  PR    000000000000000000000000000
752017100120171031295362        64022000GRENDENE 26158 IPANEMA  ROSA                         PR    000000000000000000000000000
752017100120171031295633        64029990MOLEKINHO 2800106 AZUL                               PR    000000000000000000000000000
752017100120171031295641        64029990MOLEKINHO 2800106 CAFE                               PR    000000000000000000000000000
752017100120171031295681        64039990USAFLEX Y4507 NATURAL                                PR    000000000000000000000000000
752017100120171031296078        64029990VALECCI 84525 PRETO                                  PR    000000000000000000000000000
752017100120171031296656        64029990MISSISSIPI X6702 OURO                                PR    000000000000000000000000000
752017100120171031296699        64029990DAKOTA Z2193 OURO ROSADO                             PR    000000000000000000000000000
752017100120171031296761        64029990DAKOTA Z2143 ROSE                                    PR    000000000000000000000000000
752017100120171031296929        64029990DAKOTA Z2191 PRETO                                   PR    000000000000000000000000000
752017100120171031297479        64039990BRADOK STG7532 RATO                                  PR    000000000000000000000000000
752017100120171031298263        64029990MISSISSIPI X6213 NUDE                                PR    000000000000000000000000000
752017100120171031298701        64029990MARINER 28601 GRAFITE                                PR    000000000000000000000000000
752017100120171031298759        64039990MARINER 28533 OCRE                                   PR    000000000000000000000000000
752017100120171031298813        64029990MARINER 28603 BRANCO                                 PR    000000000000000000000000000
752017100120171031298904        64029990MISSISSIPI X6743 NUDE                                PR    000000000000000000000000000
752017100120171031298945        64029990GRENDENE 11237 CARTAGO MALI AZUL/VERM                PR    000000000000000000000000000
752017100120171031298946        64029990GRENDENE 11237 CARTAGO MALI AZUL/VERM                PR    000000000000000000000000000
752017100120171031298947        64029990GRENDENE 11237 CARTAGO MALI AZUL/VERM                PR    000000000000000000000000000
752017100120171031298949        64029990GRENDENE 11237 CARTAGO MALI AZUL/VERM                PR    000000000000000000000000000
752017100120171031298958        64029990GRENDENE 11237 CARTAGO MALI BEGE/MARROM              PR    000000000000000000000000000
752017100120171031298960        64029990GRENDENE 11237 CARTAGO MALI BEGE/MARROM              PR    000000000000000000000000000
752017100120171031299944        64029990GRENDENE 11233 CARTAGO MALI IX BEGE/AZUL             PR    000000000000000000000000000
752017100120171031300300        64029990PAMPILI 208022 VINHO                                 PR    000000000000000000000000000
752017100120171031300317        64029990PAMPILI 298093 PRETO                                 PR    000000000000000000000000000
752017100120171031300335        64029990PAMPILI 298099 VERMELHO                              PR    000000000000000000000000000
752017100120171031300458        64041900LOW AURORA DD0338 ROSA                               PR    000000000000000000000000000
752017100120171031300737        64041900KENNER NK5 AMP REACTOR MULTI F AMARELO               PR    000000000000000000000000000
752017100120171031300746        64041900KENNER NK5 AMP REACTOR MULTI F VERMELHO              PR    000000000000000000000000000
752017100120171031300979        64021900DAKOTA B8992 GRAFITE                                 PR    000000000000000000000000000
752017100120171031301065        64029990GRENDENE 21600 BARBIE FESTA  ROSA PINK               PR    000000000000000000000000000
752017100120171031301918        64029990PETITE JOLIE PJ1546 NUDE                             PR    000000000000000000000000000
752017100120171031301923        64029990PETITE JOLIE PJ1546 OURO                             PR    000000000000000000000000000
752017100120171031302085        64029990KIDY 05100057337 SMART LIGHT NUDE/BRONZE             PR    000000000000000000000000000
752017100120171031302101        64029990KIDY 05100060004 SMART LIGHT BRANCO                  PR    000000000000000000000000000
752017100120171031303208        64029990GRENDENE 21600 BARBIE FESTA  ROSA                    PR    000000000000000000000000000
752017100120171031304042        64041900KIDY 02000648581 FLEX LIGHT MARINHO                  PR    000000000000000000000000000
752017100120171031304737        64029990KIDY 14800664005 FASHION  NUDE                       PR    000000000000000000000000000
752017100120171031304740        64029990KIDY 14800664005 FASHION  NUDE                       PR    000000000000000000000000000
752017100120171031304743        64029990KIDY 14800600932 SLIDE OURO                          PR    000000000000000000000000000
752017100120171031304801        64022000COCA COLA CC2273 BRANCO                              PR    000000000000000000000000000
752017100120171031304854        64022000COCA COLA CC2291 BRANCO                              PR    000000000000000000000000000
752017100120171031305035        64029190MR KITSCH 500 RATO                                   PR    000000000000000000000000000
752017100120171031305051        64029990GRENDENE 11299 CARTAGO VALENCI PRETO/AZUL            PR    000000000000000000000000000
752017100120171031305085        64041900KIDY 03400238995 HOOX AZUL                           PR    000000000000000000000000000
752017100120171031305098        64029990KIDY 00107505200 EQUILIBRIO VERDE                    PR    000000000000000000000000000
752017100120171031305283        64029990GRENDENE 11261 CARTAGO CANNES CINZA/AZUL             PR    000000000000000000000000000
752017100120171031305285        64029990GRENDENE 11261 CARTAGO CANNES CINZA/AZUL             PR    000000000000000000000000000
752017100120171031305319        91021110CONDOR CO2035KNV/4X DOURADO                          UN    000000000000000000000000000
752017100120171031305531        64029990GRENDENE 21683 ROSA/PRETO                            PR    000000000000000000000000000
752017100120171031305802        64029990GRENDENE 11239 CARTAGO BARCELO BCO/AZUL              PR    000000000000000000000000000
752017100120171031305859        64029990GRENDENE 11250 CARTAGO SANTORI AZUL/BEGE             PR    000000000000000000000000000
752017100120171031306181        64041100OLYMPIKUS 375 CHALLENGER ROYAL/VERD                  PR    000000000000000000000000000
752017100120171031306219        64041900KIDY 15601650007 AMAR E BABY PRETO                   PR    000000000000000000000000000
752017100120171031307181        64041900OLYMPIKUS 259 FLIT TURQUESA                          PR    000000000000000000000000000
752017100120171031307190        64041100OLYMPIKUS 298 STYLE PRETO/DOURADO                    PR    000000000000000000000000000
752017100120171031307198        64029990ANA FLOR 17309 BEGE                                  PR    000000000000000000000000000
752017100120171031307201        64029190ANA FLOR 17309 PRETO                                 PR    000000000000000000000000000
752017100120171031307209        64029990ANA FLOR 13126 AMARELO                               PR    000000000000000000000000000
752017100120171031307210        64029990ANA FLOR 13126 AMARELO                               PR    000000000000000000000000000
752017100120171031307224        64029990ANA FLOR 13126 PRETO                                 PR    000000000000000000000000000
752017100120171031307982        64039990KIDY 0690286044224 FLEX MARROM                       PR    000000000000000000000000000
