10144056500001210018507470068 MIB MOC CONFECCAO EIRELI           MONTES CLAROS                 MG38 32231562016080120160831331
11RUA SAO FRANCISCO                 00000                      CENTRO         39400048                            003832231565
5100011404044663ISENTO        20160801MG1  02214351020000000003850000000000000000000000038500000000000000                    N
5100084491183600ISENTO        20160801MG1  02214951020000000006000000000000000000000000060000000000000000                    N
5100012660609608ISENTO        20160801MG1  02214851020000000007280000000000000000000000072800000000000000                    N
5100004779200636ISENTO        20160801MG1  02214751020000000020887000000000000000000000208870000000000000                    N
5100001378253663ISENTO        20160801MG1  02214651020000000006000000000000000000000000060000000000000000                    N
5100013417752671ISENTO        20160801MG1  02214551020000000024000000000000000000000000240000000000000000                    N
5100001234567890ISENTO        20160801MG1  02213851020000000022000000000000000000000000220000000000000000                    N
5100053132106615ISENTO        20160801MG1  02214251020000000005990000000000000000000000059900000000000000                    N
5100035415997822ISENTO        20160801MG1  02214151020000000005990000000000000000000000059900000000000000                    N
5100029689805568ISENTO        20160801MG1  02214051020000000020490000000000000000000000204900000000000000                    N
5100001234567890ISENTO        20160801MG1  02214451020000000005000000000000000000000000050000000000000000                    N
5100001234567890ISENTO        20160801MG1  02213951020000000007990000000000000000000000079900000000000000                    N
5100088795985620ISENTO        20160802MG1  02215051020000000003490000000000000000000000034900000000000000                    N
5100005670814606ISENTO        20160802MG1  02215151020000000018975000000000000000000000189750000000000000                    N
5100000669556610ISENTO        20160803MG1  02215251020000000009144000000000000000000000091440000000000000                    N
5100002906003670ISENTO        20160804MG1  02215351020000000015970000000000000000000000159700000000000000                    N
5100002114853659ISENTO        20160806MG1  02215451020000000026480000000000000000000000264800000000000000                    N
5100001234567890ISENTO        20160806MG1  02215551020000000006848000000000000000000000068480000000000000                    N
5100006039315610ISENTO        20160808MG1  02216951020000000022580000000000000000000000225800000000000000                    N
5100001234567890ISENTO        20160808MG1  02216851020000000004990000000000000000000000049900000000000000                    N
5100001234567890ISENTO        20160808MG1  02216751020000000000730000000000000000000000007300000000000000                    N
5100001234567890ISENTO        20160808MG1  02216651020000000001400000000000000000000000014000000000000000                    N
5100009922631660ISENTO        20160808MG1  02216551020000000042460000000000000000000000424600000000000000                    N
5100013095280637ISENTO        20160808MG1  02216351020000000014990000000000000000000000149900000000000000                    N
5100007681319603ISENTO        20160808MG1  02216451020000000001990000000000000000000000019900000000000000                    N
5100012823225676ISENTO        20160808MG1  02215851020000000015990000000000000000000000159900000000000000                    N
5100007736962618ISENTO        20160808MG1  02215651020000000021000000000000000000000000210000000000000000                    N
5100010381168646ISENTO        20160808MG1  02215751020000000017184000000000000000000000171840000000000000                    N
5100013804258670ISENTO        20160808MG1  02216251020000000036970000000000000000000000369700000000000000                    N
5100088029506600ISENTO        20160808MG1  02215951020000000020480000000000000000000000204800000000000000                    N
5100001234567890ISENTO        20160808MG1  02216051020000000035000000000000000000000000350000000000000000                    N
5100013079802608ISENTO        20160808MG1  02216151020000000011980000000000000000000000119800000000000000                    N
5100006935709628ISENTO        20160809MG1  02218251020000000006000000000000000000000000060000000000000000                    N
5100010296307637ISENTO        20160809MG1  02218351020000000014816000000000000000000000148160000000000000                    N
5100004109529662ISENTO        20160809MG1  02218451020000000005990000000000000000000000059900000000000000                    N
5100003328486631ISENTO        20160809MG1  02218551020000000009470000000000000000000000094700000000000000                    N
5100009698715622ISENTO        20160809MG1  02218151020000000067490000000000000000000000674900000000000000                    N
5100013926505699ISENTO        20160809MG1  02218651020000000010990000000000000000000000109900000000000000                    N
5100005598425629ISENTO        20160809MG1  02218751020000000044460000000000000000000000444600000000000000                    N
5100006899968614ISENTO        20160809MG1  02218851020000000010990000000000000000000000109900000000000000                    N
5100011498045642ISENTO        20160809MG1  02218951020000000026480000000000000000000000264800000000000000                    N
5100009495104670ISENTO        20160809MG1  02219051020000000015980000000000000000000000159800000000000000                    N
5100011724888609ISENTO        20160809MG1  02217751020000000032250000000000000000000000322500000000000000                    N
5100010296307637ISENTO        20160809MG1  02218051020000000050000000000000000000000000500000000000000000                    N
5100001319093639ISENTO        20160809MG1  02217951020000000012000000000000000000000000120000000000000000                    N
5100012957594625ISENTO        20160809MG1  02217851020000000031640000000000000000000000316400000000000000                    N
5100085042854649ISENTO        20160809MG1  02217551020000000021980000000000000000000000219800000000000000                    N
5100088029506600ISENTO        20160809MG1  02217451020000000017656000000000000000000000176560000000000000                    N
5100007947728623ISENTO        20160809MG1  02217351020000000013990000000000000000000000139900000000000000                    N
5100020600402649ISENTO        20160809MG1  02217251020000000125370000000000000000000001253700000000000000                    N
5100013358087603ISENTO        20160809MG1  02217151020000000011990000000000000000000000119900000000000000                    N
5100000296394688ISENTO        20160809MG1  02217051020000000020490000000000000000000000204900000000000000                    N
5100012777829624ISENTO        20160810MG1  02220951020000000011990000000000000000000000119900000000000000                    N
5100001396174699ISENTO        20160810MG1  02220851020000000024480000000000000000000000244800000000000000                    N
5100000041381637ISENTO        20160810MG1  02221051020000000007990000000000000000000000079900000000000000                    N
5100001234567890ISENTO        20160810MG1  02221151020000000005000000000000000000000000050000000000000000                    N
5100011385721600ISENTO        20160810MG1  02220751020000000013490000000000000000000000134900000000000000                    N
5100001234567890ISENTO        20160810MG1  02220551020000000004990000000000000000000000049900000000000000                    N
5100000789190613ISENTO        20160810MG1  02220451020000000004193000000000000000000000041930000000000000                    N
5100008326598607ISENTO        20160810MG1  02221251020000000014980000000000000000000000149800000000000000                    N
5100005867397696ISENTO        20160810MG1  02221351020000000025990000000000000000000000259900000000000000                    N
5100013567986678ISENTO        20160810MG1  02221451020000000009767000000000000000000000097670000000000000                    N
5100011700310640ISENTO        20160810MG1  02221551020000000035950000000000000000000000359500000000000000                    N
5100007469994610ISENTO        20160810MG1  02221651020000000013490000000000000000000000134900000000000000                    N
5100012044268647ISENTO        20160810MG1  02221751020000000015370000000000000000000000153700000000000000                    N
5100006759535618ISENTO        20160810MG1  02220651020000000017950000000000000000000000179500000000000000                    N
5100005309545670ISENTO        20160810MG1  02219651020000000025980000000000000000000000259800000000000000                    N
5100010963543652ISENTO        20160810MG1  02219151020000000011892000000000000000000000118920000000000000                    N
5100008623134656ISENTO        20160810MG1  02219251020000000014858000000000000000000000148580000000000000                    N
5100001234567890ISENTO        20160810MG1  02219351020000000000415000000000000000000000004150000000000000                    N
5100011384679600ISENTO        20160810MG1  02219451020000000008990000000000000000000000089900000000000000                    N
5100000296394688ISENTO        20160810MG1  02219551020000000007426000000000000000000000074260000000000000                    N
5100012776308604ISENTO        20160810MG1  02220351020000000047130000000000000000000000471300000000000000                    N
5100073367869600ISENTO        20160810MG1  02219751020000000013990000000000000000000000139900000000000000                    N
5100006571362635ISENTO        20160810MG1  02219851020000000023980000000000000000000000239800000000000000                    N
5100001234567890ISENTO        20160810MG1  02219951020000000060000000000000000000000000600000000000000000                    N
5100010138430616ISENTO        20160810MG1  02220051020000000003990000000000000000000000039900000000000000                    N
5100020600402649ISENTO        20160810MG1  02220151020000000002647000000000000000000000026470000000000000                    N
5100004056826625ISENTO        20160810MG1  02220251020000000048000000000000000000000000480000000000000000                    N
5100009944555690ISENTO        20160811MG1  02223351020000000023960000000000000000000000239600000000000000                    N
5100001234567890ISENTO        20160811MG1  02223251020000000011800000000000000000000000118000000000000000                    N
5100008152442666ISENTO        20160811MG1  02223451020000000015870000000000000000000000158700000000000000                    N
5100001234567890ISENTO        20160811MG1  02223151020000000013300000000000000000000000133000000000000000                    N
5100007619645683ISENTO        20160811MG1  02223051020000000007990000000000000000000000079900000000000000                    N
5100011447126610ISENTO        20160811MG1  02222951020000000020970000000000000000000000209700000000000000                    N
5100095061207653ISENTO        20160811MG1  02223851020000000018990000000000000000000000189900000000000000                    N
5100008152442666ISENTO        20160811MG1  02223651020000000025250000000000000000000000252500000000000000                    N
5100001923924680ISENTO        20160811MG1  02223751020000000014490000000000000000000000144900000000000000                    N
5100003827152682ISENTO        20160811MG1  02223951020000000026980000000000000000000000269800000000000000                    N
5100073736481691ISENTO        20160811MG1  02224151020000000030470000000000000000000000304700000000000000                    N
5100012149537605ISENTO        20160811MG1  02224051020000000019490000000000000000000000194900000000000000                    N
5100001234567890ISENTO        20160811MG1  02222251020000000026000000000000000000000000260000000000000000                    N
5100001234567890ISENTO        20160811MG1  02221851020000000003990000000000000000000000039900000000000000                    N
5100013095280637ISENTO        20160811MG1  02221951020000000024000000000000000000000000240000000000000000                    N
5100001234567890ISENTO        20160811MG1  02222051020000000012990000000000000000000000129900000000000000                    N
5100001234567890ISENTO        20160811MG1  02222151020000000004990000000000000000000000049900000000000000                    N
5100011700310640ISENTO        20160811MG1  02222851020000000014929000000000000000000000149290000000000000                    N
5100006321609692ISENTO        20160811MG1  02222351020000000039990000000000000000000000399900000000000000                    N
5100001234567890ISENTO        20160811MG1  02222451020000000010000000000000000000000000100000000000000000                    N
5100011724888609ISENTO        20160811MG1  02222551020000000004131000000000000000000000041310000000000000                    N
5100026208912806ISENTO        20160811MG1  02222651020000000006000000000000000000000000060000000000000000                    N
5100001234567890ISENTO        20160811MG1  02222751020000000005200000000000000000000000052000000000000000                    N
5100006759535618ISENTO        20160812MG1  02224651020000000003990000000000000000000000039900000000000000                    N
5100001234567890ISENTO        20160812MG1  02224551020000000000790000000000000000000000007900000000000000                    N
5100001234567890ISENTO        20160812MG1  02224251020000000016400000000000000000000000164000000000000000                    N
5100007679036683ISENTO        20160812MG1  02224451020000000021990000000000000000000000219900000000000000                    N
5100096565691649ISENTO        20160812MG1  02224351020000000041460000000000000000000000414600000000000000                    N
5100003525782624ISENTO        20160815MG1  02224751020000000004980000000000000000000000049800000000000000                    N
5100001234567890ISENTO        20160815MG1  02224851020000000006165000000000000000000000061650000000000000                    N
5100009352297601ISENTO        20160815MG1  02224951020000000017980000000000000000000000179800000000000000                    N
5100003911018622ISENTO        20160816MG1  02225051020000000005490000000000000000000000054900000000000000                    N
5100001234567890ISENTO        20160816MG1  02225151020000000004990000000000000000000000049900000000000000                    N
5100013079802608ISENTO        20160816MG1  02225251020000000004490000000000000000000000044900000000000000                    N
5100096619880649ISENTO        20160817MG1  02226051020000000008990000000000000000000000089900000000000000                    N
5100065739752604ISENTO        20160817MG1  02226151020000000007377000000000000000000000073770000000000000                    N
5100066299993634ISENTO        20160817MG1  02225951020000000007895000000000000000000000078950000000000000                    N
5100009352297601ISENTO        20160817MG1  02226251020000000008990000000000000000000000089900000000000000                    N
5100001948114682ISENTO        20160817MG1  02226351020000000019980000000000000000000000199800000000000000                    N
5100002308253622ISENTO        20160817MG1  02225351020000000009990000000000000000000000099900000000000000                    N
5100004237279669ISENTO        20160817MG1  02225851020000000004673000000000000000000000046730000000000000                    N
5100007947728623ISENTO        20160817MG1  02225751020000000036480000000000000000000000364800000000000000                    N
5100001234567890ISENTO        20160817MG1  02225651020000000016130000000000000000000000161300000000000000                    N
5100008254831661ISENTO        20160817MG1  02225551020000000006490000000000000000000000064900000000000000                    N
5100069222070682ISENTO        20160817MG1  02225451020000000008990000000000000000000000089900000000000000                    N
5100001234567890ISENTO        20160818MG1  02226451020000000013570000000000000000000000135700000000000000                    N
5100011054974616ISENTO        20160818MG1  02226551020000000013490000000000000000000000134900000000000000                    N
5100009497576676ISENTO        20160820MG1  02226751020000000012990000000000000000000000129900000000000000                    N
5100040458245615ISENTO        20160820MG1  02226651020000000035960000000000000000000000359600000000000000                    N
5100010381168646ISENTO        20160823MG1  02226851020000000008825000000000000000000000088250000000000000                    N
5100001234567890ISENTO        20160823MG1  02226951020000000011990000000000000000000000119900000000000000                    N
5100009514008600ISENTO        20160823MG1  02227051020000000037960000000000000000000000379600000000000000                    N
5100004669839802ISENTO        20160823MG1  02227151020000000026980000000000000000000000269800000000000000                    N
5100006050561613ISENTO        20160824MG1  02227251020000000020089000000000000000000000200890000000000000                    N
5100002314011678ISENTO        20160827MG1  02227351020000000008990000000000000000000000089900000000000000                    N
5100010649845684ISENTO        20160829MG1  02227451020000000020490000000000000000000000204900000000000000                    N
5100085000345649ISENTO        20160830MG1  02227551020000000012980000000000000000000000129800000000000000                    N
5400000041381637011  0222105102000001224388        000000010000000000079900000000000000000000000000000000000000000000000000000
5400000296394688011  022170510200000197518         000000010000000000254900000000124260000000000000000000000000000000000000000
5400000296394688011  0221705102000002230813        000000010000000000144900000000070640000000000000000000000000000000000000000
5400000296394688011  0221955102000001230814        000000010000000000144900000000070640000000000000000000000000000000000000000
5400000669556610011  0221525102000001203973        000000010000000000109900000000018460000000000000000000000000000000000000000
5400000789190613011  0222045102000001170458        000000010000000000029900000000008930000000000000000000000000000000000000000
5400000789190613011  0222045102000002170460        000000010000000000029900000000008940000000000000000000000000000000000000000
5400001234567890011  0221385102000001134092        000000010000000000109900000000013110000000000000000000000000000000000000000
5400001234567890011  0221385102000002240930        000000010000000000139900000000016690000000000000000000000000000000000000000
5400001234567890011  0221395102000001183006        000000010000000000124900000000045000000000000000000000000000000000000000000
5400001234567890011  0221445102000001183006        000000010000000000124900000000074900000000000000000000000000000000000000000
5400001234567890011  0221555102000001244536        000000010000000000074900000000006420000000000000000000000000000000000000000
5400001234567890011  0221605102000001186700        000000030000000000419700000000235930000000000000000000000000000000000000000
5400001234567890011  0221605102000002225381        000000010000000000084900000000047720000000000000000000000000000000000000000
5400001234567890011  0221605102000003187035        000000010000000000084900000000047720000000000000000000000000000000000000000
5400001234567890011  0221605102000004118104        000000010000000000124900000000070210000000000000000000000000000000000000000
5400001234567890011  0221605102000005187037        000000010000000000084900000000047720000000000000000000000000000000000000000
5400001234567890011  0221665102000001136759        000000010000000000014900000000000900000000000000000000000000000000000000000
5400001234567890011  022167510200000158785         000000010000000000007900000000000600000000000000000000000000000000000000000
5400001234567890011  0221685102000001159437        000000010000000000094900000000045000000000000000000000000000000000000000000
5400001234567890011  022193510200000173020         000000010000000000004900000000000750000000000000000000000000000000000000000
5400001234567890011  0221995102000001217049        000000010000000000194900000000061890000000000000000000000000000000000000000
5400001234567890011  0221995102000002208767        000000010000000000089900000000028550000000000000000000000000000000000000000
5400001234567890011  0221995102000003149116        000000010000000000069900000000022200000000000000000000000000000000000000000
5400001234567890011  0221995102000004130356        000000010000000000214900000000068240000000000000000000000000000000000000000
5400001234567890011  0221995102000005222045        000000010000000000099900000000031720000000000000000000000000000000000000000
5400001234567890011  0221995102000006182104        000000010000000000044900000000014260000000000000000000000000000000000000000
5400001234567890011  022199510200000771543         000000010000000000044900000000014260000000000000000000000000000000000000000
5400001234567890011  0221995102000008173055        000000010000000000119900000000038080000000000000000000000000000000000000000
5400001234567890011  0222055102000001224955        000000010000000000099900000000050000000000000000000000000000000000000000000
5400001234567890011  0222115102000001244745        000000010000000000064900000000014900000000000000000000000000000000000000000
5400001234567890011  0222185102000001217945        000000010000000000039900000000000000000000000000000000000000000000000000000
5400001234567890011  0222205102000001191145        000000010000000000129900000000000000000000000000000000000000000000000000000
5400001234567890011  0222215102000001236081        000000010000000000049900000000000000000000000000000000000000000000000000000
5400001234567890011  0222225102000001244523        000000010000000000067900000000006560000000000000000000000000000000000000000
5400001234567890011  0222225102000002244320        000000010000000000219900000000021240000000000000000000000000000000000000000
5400001234567890011  0222245102000001244612        000000010000000000049900000000004450000000000000000000000000000000000000000
5400001234567890011  0222245102000002244637        000000010000000000059900000000005350000000000000000000000000000000000000000
5400001234567890011  0222275102000001194645        000000010000000000027900000000001900000000000000000000000000000000000000000
5400001234567890011  0222275102000002194646        000000010000000000027900000000001900000000000000000000000000000000000000000
5400001234567890011  0222315102000001244971        000000010000000000054900000000004440000000000000000000000000000000000000000
5400001234567890011  0222315102000002182230        000000010000000000039900000000003230000000000000000000000000000000000000000
5400001234567890011  0222315102000003220826        000000010000000000049900000000004030000000000000000000000000000000000000000
5400001234567890011  0222325102000001228680        000000010000000000124900000000006900000000000000000000000000000000000000000
5400001234567890011  0222425102000001225275        000000010000000000054900000000018100000000000000000000000000000000000000000
5400001234567890011  0222425102000002226258        000000010000000000054900000000018110000000000000000000000000000000000000000
5400001234567890011  0222425102000003164200        000000010000000000134900000000044490000000000000000000000000000000000000000
5400001234567890011  022245510200000180272         000000010000000000007900000000000000000000000000000000000000000000000000000
5400001234567890011  0222485102000001142722        000000010000000000074900000000013250000000000000000000000000000000000000000
5400001234567890011  0222515102000001197727        000000010000000000094900000000045000000000000000000000000000000000000000000
5400001234567890011  0222565102000001126816        000000010000000000179900000000018600000000000000000000000000000000000000000
5400001234567890011  0222645102000001215933        000000010000000000014900000000010500000000000000000000000000000000000000000
5400001234567890011  0222645102000002131685        000000010000000000294900000000207850000000000000000000000000000000000000000
5400001234567890011  0222645102000003165757        000000010000000000149900000000105650000000000000000000000000000000000000000
5400001234567890011  0222695102000001195558        000000010000000000119900000000000000000000000000000000000000000000000000000
5400001319093639011  022179510200000197605         000000010000000000189900000000129900000000000000000000000000000000000000000
5400001319093639011  022179510200000297603         000000010000000000189900000000129900000000000000000000000000000000000000000
5400001378253663011  0221465102000001186697        000000010000000000139900000000079900000000000000000000000000000000000000000
5400001396174699011  0222085102000001244737        000000010000000000064900000000000000000000000000000000000000000000000000000
5400001396174699011  0222085102000002204113        000000010000000000179900000000000000000000000000000000000000000000000000000
5400001923924680011  022237510200000193856         000000010000000000144900000000000000000000000000000000000000000000000000000
5400001948114682011  0222635102000001246017        000000010000000000089900000000000000000000000000000000000000000000000000000
5400001948114682011  0222635102000002246027        000000010000000000089900000000000000000000000000000000000000000000000000000
5400002114853659011  0221545102000001216459        000000010000000000134900000000000000000000000000000000000000000000000000000
5400002114853659011  0221545102000002226345        000000010000000000129900000000000000000000000000000000000000000000000000000
5400002308253622011  0222535102000001242714        000000010000000000094900000000000000000000000000000000000000000000000000000
5400002314011678011  0222735102000001246038        000000010000000000089900000000000000000000000000000000000000000000000000000
5400002906003670011  0221535102000001221120        000000010000000000079900000000000000000000000000000000000000000000000000000
5400002906003670011  0221535102000002163153        000000020000000000079800000000000000000000000000000000000000000000000000000
5400003328486631011  0221855102000001226549        000000010000000000024900000000000000000000000000000000000000000000000000000
5400003328486631011  0221855102000002226555        000000020000000000069800000000000000000000000000000000000000000000000000000
5400003525782624011  0222475102000001162193        000000010000000000044900000000000000000000000000000000000000000000000000000
5400003525782624011  0222475102000002124125        000000010000000000004900000000000000000000000000000000000000000000000000000
5400003827152682011  0222395102000001140684        000000010000000000014900000000000780000000000000000000000000000000000000000
5400003827152682011  0222395102000002185874        000000010000000000074900000000003920000000000000000000000000000000000000000
5400003827152682011  0222395102000003227135        000000010000000000194900000000010200000000000000000000000000000000000000000
5400003911018622011  0222505102000001230127        000000010000000000054900000000000000000000000000000000000000000000000000000
5400004056826625011  0222025102000001225346        000000010000000000089900000000038180000000000000000000000000000000000000000
5400004056826625011  0222025102000002186982        000000030000000000254700000000108120000000000000000000000000000000000000000
5400004056826625011  0222025102000003186697        000000020000000000279800000000118780000000000000000000000000000000000000000
5400004056826625011  0222025102000004221136        000000020000000000139800000000059350000000000000000000000000000000000000000
5400004056826625011  0222025102000005221154        000000010000000000069900000000029670000000000000000000000000000000000000000
5400004109529662011  0221845102000001186888        000000010000000000069900000000010000000000000000000000000000000000000000000
5400004237279669011  0222585102000001226599        000000020000000000079800000000033070000000000000000000000000000000000000000
5400004669839802011  0222715102000001144277        000000010000000000239900000000000000000000000000000000000000000000000000000
5400004669839802011  0222715102000002190497        000000010000000000029900000000000000000000000000000000000000000000000000000
5400004779200636011  0221475102000001214269        000000010000000000119900000000019650000000000000000000000000000000000000000
5400004779200636011  0221475102000002233000        000000010000000000129900000000021280000000000000000000000000000000000000000
5400005309545670011  0221965102000001190240        000000010000000000024900000000008300000000000000000000000000000000000000000
5400005309545670011  0221965102000002155860        000000010000000000189900000000063270000000000000000000000000000000000000000
5400005309545670011  0221965102000003231656        000000010000000000074900000000024950000000000000000000000000000000000000000
5400005309545670011  0221965102000004160554        000000010000000000099900000000033280000000000000000000000000000000000000000
5400005598425629011  0221875102000001226345        000000010000000000129900000000000000000000000000000000000000000000000000000
5400005598425629011  0221875102000002208828        000000010000000000119900000000000000000000000000000000000000000000000000000
5400005598425629011  0221875102000003219429        000000010000000000099900000000000000000000000000000000000000000000000000000
5400005598425629011  0221875102000004218464        000000010000000000094900000000000000000000000000000000000000000000000000000
5400005670814606011  0221515102000001133811        000000010000000000094900000000031650000000000000000000000000000000000000000
5400005670814606011  0221515102000002133822        000000010000000000094900000000031650000000000000000000000000000000000000000
5400005670814606011  0221515102000003133816        000000010000000000094900000000031650000000000000000000000000000000000000000
5400005867397696011  0222135102000001225378        000000010000000000084900000000013650000000000000000000000000000000000000000
5400005867397696011  0222135102000002225380        000000010000000000084900000000013650000000000000000000000000000000000000000
5400005867397696011  0222135102000003244227        000000010000000000139900000000022500000000000000000000000000000000000000000
5400006039315610011  0221695102000001224095        000000040000000000047600000000000000000000000000000000000000000000000000000
5400006039315610011  0221695102000002224496        000000010000000000006900000000000000000000000000000000000000000000000000000
5400006039315610011  0221695102000003224503        000000030000000000029700000000000000000000000000000000000000000000000000000
5400006039315610011  0221695102000004224505        000000010000000000009900000000000000000000000000000000000000000000000000000
5400006039315610011  0221695102000005240882        000000010000000000069900000000000000000000000000000000000000000000000000000
5400006039315610011  0221695102000006155733        000000010000000000049900000000000000000000000000000000000000000000000000000
5400006039315610011  0221695102000007192429        000000010000000000011900000000000000000000000000000000000000000000000000000
5400006050561613011  0222725102000001194674        000000010000000000006900000000001040000000000000000000000000000000000000000
5400006050561613011  0222725102000002153566        000000010000000000019900000000003010000000000000000000000000000000000000000
5400006050561613011  0222725102000003187150        000000010000000000209900000000031760000000000000000000000000000000000000000
5400006321609692011  0222235102000001201729        000000010000000000054900000000000000000000000000000000000000000000000000000
5400006321609692011  0222235102000002201731        000000010000000000067900000000000000000000000000000000000000000000000000000
5400006321609692011  0222235102000003201735        000000010000000000029900000000000000000000000000000000000000000000000000000
5400006321609692011  0222235102000004201730        000000010000000000029900000000000000000000000000000000000000000000000000000
5400006321609692011  0222235102000005224345        000000010000000000049900000000000000000000000000000000000000000000000000000
5400006321609692011  0222235102000006223382        000000020000000000059800000000000000000000000000000000000000000000000000000
5400006321609692011  0222235102000007193899        000000020000000000037800000000000000000000000000000000000000000000000000000
5400006321609692011  0222235102000008202003        000000010000000000024900000000000000000000000000000000000000000000000000000
5400006321609692011  0222235102000009202244        000000010000000000044900000000000000000000000000000000000000000000000000000
5400006571362635011  0221985102000001189943        000000010000000000089900000000014180000000000000000000000000000000000000000
5400006571362635011  0221985102000002159420        000000010000000000104900000000016540000000000000000000000000000000000000000
5400006571362635011  0221985102000003170256        000000010000000000089900000000014180000000000000000000000000000000000000000
5400006759535618011  022206510200000160822         000000010000000000024900000000000000000000000000000000000000000000000000000
5400006759535618011  0222065102000002193671        000000020000000000059800000000000000000000000000000000000000000000000000000
5400006759535618011  022206510200000360763         000000010000000000019900000000000000000000000000000000000000000000000000000
5400006759535618011  0222065102000004244538        000000010000000000074900000000000000000000000000000000000000000000000000000
5400006759535618011  0222465102000001226598        000000010000000000039900000000000000000000000000000000000000000000000000000
5400006899968614011  0221885102000001216064        000000010000000000109900000000000000000000000000000000000000000000000000000
5400006935709628011  0221825102000001160749        000000010000000000139900000000079900000000000000000000000000000000000000000
5400007469994610011  0222165102000001213529        000000010000000000134900000000000000000000000000000000000000000000000000000
5400007619645683011  0222305102000001237893        000000010000000000079900000000000000000000000000000000000000000000000000000
5400007679036683011  0222445102000001237769        000000010000000000219900000000000000000000000000000000000000000000000000000
5400007681319603011  0221645102000001234146        000000010000000000019900000000000000000000000000000000000000000000000000000
5400007736962618011  0221565102000001221122        000000010000000000079900000000035690000000000000000000000000000000000000000
5400007736962618011  0221565102000002221137        000000010000000000069900000000031230000000000000000000000000000000000000000
5400007736962618011  0221565102000003230429        000000010000000000089900000000040170000000000000000000000000000000000000000
5400007736962618011  0221565102000004186697        000000010000000000139900000000062510000000000000000000000000000000000000000
5400007947728623011  0221735102000001241124        000000010000000000139900000000000000000000000000000000000000000000000000000
5400007947728623011  0222575102000001244332        000000010000000000219900000000000000000000000000000000000000000000000000000
5400007947728623011  0222575102000002223138        000000010000000000144900000000000000000000000000000000000000000000000000000
5400008152442666011  0222345102000001208482        000000010000000000034900000000000000000000000000000000000000000000000000000
5400008152442666011  0222345102000002230127        000000010000000000054900000000000000000000000000000000000000000000000000000
5400008152442666011  0222345102000003226232        000000010000000000068900000000000000000000000000000000000000000000000000000
5400008152442666011  022236510200000160763         000000020000000000039800000000000000000000000000000000000000000000000000000
5400008152442666011  022236510200000260743         000000010000000000017900000000000000000000000000000000000000000000000000000
5400008152442666011  022236510200000379600         000000010000000000054900000000000000000000000000000000000000000000000000000
5400008152442666011  0222365102000004244285        000000010000000000139900000000000000000000000000000000000000000000000000000
5400008254831661011  022255510200000194542         000000010000000000064900000000000000000000000000000000000000000000000000000
5400008326598607011  0222125102000001244647        000000010000000000059900000000000000000000000000000000000000000000000000000
5400008326598607011  0222125102000002213892        000000010000000000089900000000000000000000000000000000000000000000000000000
5400008623134656011  0221925102000001100731        000000010000000000054900000000008240000000000000000000000000000000000000000
5400008623134656011  0221925102000002214268        000000010000000000119900000000017980000000000000000000000000000000000000000
5400009352297601011  0222495102000001187834        000000010000000000089900000000000000000000000000000000000000000000000000000
5400009352297601011  0222495102000002208764        000000010000000000089900000000000000000000000000000000000000000000000000000
5400009352297601011  0222625102000001246021        000000010000000000089900000000000000000000000000000000000000000000000000000
5400009495104670011  0221905102000001127146        000000010000000000099900000000020000000000000000000000000000000000000000000
5400009495104670011  0221905102000002219429        000000010000000000099900000000020000000000000000000000000000000000000000000
5400009497576676011  0222675102000001169249        000000010000000000129900000000000000000000000000000000000000000000000000000
5400009514008600011  0222705102000001208767        000000010000000000089900000000000000000000000000000000000000000000000000000
5400009514008600011  0222705102000002235141        000000010000000000129900000000000000000000000000000000000000000000000000000
5400009514008600011  0222705102000003193375        000000010000000000099900000000000000000000000000000000000000000000000000000
5400009514008600011  0222705102000004169794        000000010000000000059900000000000000000000000000000000000000000000000000000
5400009698715622011  0221815102000001165736        000000010000000000149900000000002030000000000000000000000000000000000000000
5400009698715622011  0221815102000002216459        000000010000000000134900000000001830000000000000000000000000000000000000000
5400009698715622011  0221815102000003133808        000000010000000000079900000000001090000000000000000000000000000000000000000
5400009698715622011  0221815102000004244698        000000010000000000054900000000000750000000000000000000000000000000000000000
5400009698715622011  0221815102000005244584        000000010000000000044900000000000610000000000000000000000000000000000000000
5400009698715622011  0221815102000006244571        000000010000000000044900000000000610000000000000000000000000000000000000000
5400009698715622011  022181510200000776187         000000010000000000044900000000000610000000000000000000000000000000000000000
5400009698715622011  0221815102000008226344        000000010000000000129900000000001770000000000000000000000000000000000000000
5400009922631660011  0221655102000001224776        000000010000000000174900000000000000000000000000000000000000000000000000000
5400009922631660011  0221655102000002214277        000000010000000000129900000000000000000000000000000000000000000000000000000
5400009922631660011  0221655102000003184780        000000010000000000049900000000000000000000000000000000000000000000000000000
5400009922631660011  0221655102000004226281        000000010000000000069900000000000000000000000000000000000000000000000000000
5400009944555690011  0222335102000001219889        000000010000000000104900000000008090000000000000000000000000000000000000000
5400009944555690011  0222335102000002222542        000000010000000000039900000000003070000000000000000000000000000000000000000
5400009944555690011  0222335102000003189550        000000010000000000074900000000005770000000000000000000000000000000000000000
5400009944555690011  0222335102000004243626        000000010000000000039900000000003070000000000000000000000000000000000000000
5400010138430616011  022200510200000176184         000000010000000000039900000000000000000000000000000000000000000000000000000
5400010296307637011  0221805102000001124122        000000010000000000012900000000005260000000000000000000000000000000000000000
5400010296307637011  0221805102000002180917        000000010000000000059900000000024370000000000000000000000000000000000000000
5400010296307637011  0221805102000003110569        000000010000000000025900000000010540000000000000000000000000000000000000000
5400010296307637011  0221805102000004168114        000000010000000000179900000000073200000000000000000000000000000000000000000
5400010296307637011  0221805102000005185871        000000010000000000074900000000030480000000000000000000000000000000000000000
5400010296307637011  0221805102000006208827        000000010000000000119900000000048780000000000000000000000000000000000000000
5400010296307637011  0221805102000007226347        000000010000000000129900000000052850000000000000000000000000000000000000000
5400010296307637011  0221805102000008165704        000000010000000000084900000000034540000000000000000000000000000000000000000
5400010296307637011  0221805102000009208517        000000010000000000039900000000016230000000000000000000000000000000000000000
5400010296307637011  0221805102000010161439        000000010000000000114900000000046750000000000000000000000000000000000000000
5400010296307637011  0221835102000001163851        000000010000000000129900000000052850000000000000000000000000000000000000000
5400010296307637011  0221835102000002171554        000000010000000000119900000000048790000000000000000000000000000000000000000
5400010381168646011  0221575102000001204836        000000010000000000019900000000001240000000000000000000000000000000000000000
5400010381168646011  0221575102000002201481        000000020000000000035800000000002230000000000000000000000000000000000000000
5400010381168646011  0221575102000003201473        000000010000000000017900000000001110000000000000000000000000000000000000000
5400010381168646011  0221575102000004224039        000000010000000000029900000000001850000000000000000000000000000000000000000
5400010381168646011  0221575102000005221468        000000010000000000034900000000002160000000000000000000000000000000000000000
5400010381168646011  0221575102000006221516        000000010000000000029900000000001850000000000000000000000000000000000000000
5400010381168646011  0221575102000007201434        000000010000000000014900000000000920000000000000000000000000000000000000000
5400010381168646011  0222685102000001219733        000000010000000000015900000000001950000000000000000000000000000000000000000
5400010381168646011  0222685102000002201877        000000010000000000029900000000003670000000000000000000000000000000000000000
5400010381168646011  0222685102000003224021        000000010000000000049900000000006130000000000000000000000000000000000000000
5400010381168646011  0222685102000004124125        000000010000000000004900000000000600000000000000000000000000000000000000000
5400010649845684011  0222745102000001246782        000000010000000000204900000000000000000000000000000000000000000000000000000
5400010963543652011  0221915102000001244241        000000010000000000139900000000020980000000000000000000000000000000000000000
5400011054974616011  0222655102000001208812        000000010000000000134900000000000000000000000000000000000000000000000000000
5400011384679600011  0221945102000001230429        000000010000000000089900000000000000000000000000000000000000000000000000000
5400011385721600011  0222075102000001220394        000000010000000000134900000000000000000000000000000000000000000000000000000
5400011404044663011  0221435102000001226256        000000010000000000054900000000016400000000000000000000000000000000000000000
5400011447126610011  0222295102000001236426        000000010000000000064900000000005650000000000000000000000000000000000000000
5400011447126610011  0222295102000002217184        000000010000000000124900000000010880000000000000000000000000000000000000000
5400011447126610011  0222295102000003243622        000000010000000000039900000000003470000000000000000000000000000000000000000
5400011498045642011  0221895102000001188191        000000010000000000124900000000000000000000000000000000000000000000000000000
5400011498045642011  0221895102000002241168        000000010000000000139900000000000000000000000000000000000000000000000000000
5400011700310640011  0222155102000001200058        000000010000000000134900000000052640000000000000000000000000000000000000000
5400011700310640011  0222155102000002221362        000000010000000000109900000000042880000000000000000000000000000000000000000
5400011700310640011  0222155102000003221133        000000010000000000069900000000027270000000000000000000000000000000000000000
5400011700310640011  0222155102000004171109        000000010000000000139900000000054580000000000000000000000000000000000000000
5400011700310640011  0222155102000005200054        000000010000000000134900000000052630000000000000000000000000000000000000000
5400011700310640011  0222285102000001139919        000000010000000000184900000000118350000000000000000000000000000000000000000
5400011700310640011  0222285102000002122066        000000010000000000229900000000147160000000000000000000000000000000000000000
5400011724888609011  0221775102000001244584        000000010000000000044900000000000000000000000000000000000000000000000000000
5400011724888609011  0221775102000002244656        000000010000000000059900000000000000000000000000000000000000000000000000000
5400011724888609011  0221775102000003233038        000000010000000000059900000000000000000000000000000000000000000000000000000
5400011724888609011  0221775102000004244511        000000010000000000067900000000000000000000000000000000000000000000000000000
5400011724888609011  0221775102000005244544        000000010000000000079900000000000000000000000000000000000000000000000000000
5400011724888609011  0222255102000001244585        000000010000000000044900000000003590000000000000000000000000000000000000000
5400012044268647011  0222175102000001140731        000000010000000000084900000000000000000000000000000000000000000000000000000
5400012044268647011  0222175102000002140749        000000010000000000059900000000000000000000000000000000000000000000000000000
5400012044268647011  0222175102000003110567        000000010000000000008900000000000000000000000000000000000000000000000000000
5400012149537605011  0222405102000001160499        000000010000000000134900000000037450000000000000000000000000000000000000000
5400012149537605011  0222405102000002232256        000000010000000000134900000000037450000000000000000000000000000000000000000
5400012660609608011  0221485102000001208765        000000010000000000089900000000017100000000000000000000000000000000000000000
5400012776308604011  0222035102000001244636        000000010000000000059900000000000000000000000000000000000000000000000000000
5400012776308604011  0222035102000002233038        000000020000000000119800000000000000000000000000000000000000000000000000000
5400012776308604011  0222035102000003244630        000000010000000000064900000000000000000000000000000000000000000000000000000
5400012776308604011  0222035102000004244631        000000010000000000064900000000000000000000000000000000000000000000000000000
5400012776308604011  0222035102000005241154        000000010000000000139900000000000000000000000000000000000000000000000000000
5400012776308604011  022203510200000660778         000000010000000000021900000000000000000000000000000000000000000000000000000
5400012777829624011  0222095102000001218471        000000010000000000119900000000000000000000000000000000000000000000000000000
5400012823225676011  0221585102000001238909        000000010000000000159900000000000000000000000000000000000000000000000000000
5400012957594625011  0221785102000001170970        000000010000000000011900000000000000000000000000000000000000000000000000000
5400012957594625011  0221785102000002230976        000000010000000000044900000000000000000000000000000000000000000000000000000
5400012957594625011  0221785102000003230831        000000010000000000044900000000000000000000000000000000000000000000000000000
5400012957594625011  0221785102000004230934        000000010000000000089900000000000000000000000000000000000000000000000000000
5400012957594625011  0221785102000005230910        000000010000000000089900000000000000000000000000000000000000000000000000000
5400012957594625011  0221785102000006208497        000000010000000000034900000000000000000000000000000000000000000000000000000
5400013079802608011  0221615102000001244537        000000010000000000074900000000000000000000000000000000000000000000000000000
5400013079802608011  0221615102000002244585        000000010000000000044900000000000000000000000000000000000000000000000000000
5400013079802608011  0222525102000001244588        000000010000000000044900000000000000000000000000000000000000000000000000000
5400013095280637011  0221635102000001197750        000000010000000000094900000000025410000000000000000000000000000000000000000
5400013095280637011  0221635102000002169803        000000010000000000079900000000021390000000000000000000000000000000000000000
5400013095280637011  0221635102000003190497        000000010000000000029900000000008000000000000000000000000000000000000000000
5400013095280637011  0222195102000001186980        000000010000000000084900000000052540000000000000000000000000000000000000000
5400013095280637011  0222195102000002219268        000000010000000000119900000000074190000000000000000000000000000000000000000
5400013095280637011  0222195102000003124604        000000010000000000349900000000216520000000000000000000000000000000000000000
5400013095280637011  0222195102000004225049        000000010000000000074900000000046350000000000000000000000000000000000000000
5400013358087603011  0221715102000001214269        000000010000000000119900000000000000000000000000000000000000000000000000000
5400013417752671011  0221455102000001160759        000000010000000000139900000000092910000000000000000000000000000000000000000
5400013417752671011  022145510200000253791         000000010000000000159900000000106200000000000000000000000000000000000000000
5400013417752671011  0221455102000003214267        000000010000000000119900000000079630000000000000000000000000000000000000000
5400013417752671011  0221455102000004131683        000000010000000000294900000000195860000000000000000000000000000000000000000
5400013567986678011  0222145102000001245053        000000010000000000114900000000017230000000000000000000000000000000000000000
5400013804258670011  0221625102000001208764        000000010000000000089900000000000000000000000000000000000000000000000000000
5400013804258670011  0221625102000002206512        000000010000000000059900000000000000000000000000000000000000000000000000000
5400013804258670011  0221625102000003244323        000000010000000000219900000000000000000000000000000000000000000000000000000
5400013926505699011  0221865102000001170461        000000010000000000064900000000020270000000000000000000000000000000000000000
5400013926505699011  0221865102000002197676        000000010000000000094900000000029630000000000000000000000000000000000000000
5400020600402649011  0221725102000001240885        000000010000000000049900000000002560000000000000000000000000000000000000000
5400020600402649011  0221725102000002226599        000000010000000000039900000000002050000000000000000000000000000000000000000
5400020600402649011  0221725102000003194282        000000010000000000074900000000003850000000000000000000000000000000000000000
5400020600402649011  0221725102000004198016        000000010000000000024900000000001280000000000000000000000000000000000000000
5400020600402649011  0221725102000005226281        000000010000000000069900000000003590000000000000000000000000000000000000000
5400020600402649011  0221725102000006244287        000000010000000000139900000000007190000000000000000000000000000000000000000
5400020600402649011  0221725102000007202687        000000010000000000119900000000006160000000000000000000000000000000000000000
5400020600402649011  0221725102000008244286        000000010000000000139900000000007190000000000000000000000000000000000000000
5400020600402649011  0221725102000009175054        000000010000000000134900000000006930000000000000000000000000000000000000000
5400020600402649011  0221725102000010181581        000000010000000000109900000000005650000000000000000000000000000000000000000
5400020600402649011  0221725102000011145284        000000010000000000099900000000005130000000000000000000000000000000000000000
5400020600402649011  022172510200001292132         000000010000000000027900000000001430000000000000000000000000000000000000000
5400020600402649011  0221725102000013224777        000000010000000000174900000000008990000000000000000000000000000000000000000
5400020600402649011  0221725102000014196582        000000010000000000114900000000005900000000000000000000000000000000000000000
5400020600402649011  022201510200000192133         000000010000000000027900000000001430000000000000000000000000000000000000000
5400026208912806011  0222265102000001165733        000000010000000000149900000000089900000000000000000000000000000000000000000
5400029689805568011  0221405102000001192753        000000010000000000204900000000000000000000000000000000000000000000000000000
5400035415997822011  0221415102000001183001        000000010000000000124900000000065000000000000000000000000000000000000000000
5400040458245615011  0222665102000001240922        000000010000000000139900000000000000000000000000000000000000000000000000000
5400040458245615011  0222665102000002184506        000000010000000000094900000000000000000000000000000000000000000000000000000
5400040458245615011  0222665102000003232311        000000010000000000079900000000000000000000000000000000000000000000000000000
5400040458245615011  0222665102000004197961        000000010000000000044900000000000000000000000000000000000000000000000000000
5400053132106615011  0221425102000001221133        000000010000000000069900000000010000000000000000000000000000000000000000000
5400065739752604011  0222615102000001189925        000000010000000000099900000000026130000000000000000000000000000000000000000
5400066299993634011  0222595102000001151010        000000010000000000084900000000005950000000000000000000000000000000000000000
5400069222070682011  0222545102000001122837        000000010000000000089900000000000000000000000000000000000000000000000000000
5400073367869600011  0221975102000001240914        000000010000000000139900000000000000000000000000000000000000000000000000000
5400073736481691011  0222415102000001230783        000000010000000000124900000000000000000000000000000000000000000000000000000
5400073736481691011  0222415102000002244292        000000010000000000139900000000000000000000000000000000000000000000000000000
5400073736481691011  0222415102000003226599        000000010000000000039900000000000000000000000000000000000000000000000000000
5400084491183600011  0221495102000001224937        000000010000000000147900000000087900000000000000000000000000000000000000000
5400085000345649011  0222755102000001222358        000000010000000000029900000000000000000000000000000000000000000000000000000
5400085000345649011  0222755102000002195593        000000010000000000099900000000000000000000000000000000000000000000000000000
5400085042854649011  0221755102000001242699        000000010000000000139900000000000000000000000000000000000000000000000000000
5400085042854649011  0221755102000002244545        000000010000000000079900000000000000000000000000000000000000000000000000000
5400088029506600011  0221595102000001128543        000000010000000000209900000000073340000000000000000000000000000000000000000
5400088029506600011  0221595102000002128762        000000010000000000104900000000036660000000000000000000000000000000000000000
5400088029506600011  0221745102000001241162        000000010000000000139900000000000000000000000000000000000000000000000000000
5400088795985620011  0221505102000001226612        000000010000000000034900000000000000000000000000000000000000000000000000000
5400095061207653011  0222385102000001226345        000000010000000000129900000000012320000000000000000000000000000000000000000
5400095061207653011  0222385102000002221122        000000010000000000079900000000007580000000000000000000000000000000000000000
5400096565691649011  0222435102000001218470        000000010000000000119900000000000000000000000000000000000000000000000000000
5400096565691649011  0222435102000002208764        000000020000000000179800000000000000000000000000000000000000000000000000000
5400096565691649011  0222435102000003170313        000000010000000000114900000000000000000000000000000000000000000000000000000
5400096619880649011  0222605102000001222801        000000010000000000089900000000000000000000000000000000000000000000000000000
752016080120160831100731        62121000DULOREN 132205 VERMELHO                              PC    000000000000000000000000000
752016080120160831110567                LUPO 4535 MULTICOLOR                                 PR    000000000000000000000000000
752016080120160831110569        61159500LUPO 2725 SPORT KIT3 MULTICOLOR                      UN    000000000000000000000000000
752016080120160831118104        62045900DANUTA 001115933DA AZUL                              PC    000000000000000000000000000
752016080120160831122066        62064000ENFASE 241523 PINK                                   PC    000000000000000000000000000
752016080120160831122837        62046200AKIYOSHI 3031 AZUL                                   PC    000000000000000000000000000
752016080120160831124122        61159500LUPO 4582 APLICATIVO MULTICOLOR                      UN    000000000000000000000000000
752016080120160831124125        61153010LUPO 553001 LOBA PRETO                               UN    000000000000000000000000000
752016080120160831124604        62046200DELUX 0030049 AZUL                                   PC    000000000000000000000000000
752016080120160831126816        62114900MIAGGE 102A AZUL                                     PC    000000000000000000000000000
752016080120160831127146        61046200K2B 90040022 JEANS                                   PC    000000000000000000000000000
752016080120160831128543        61123100DELUX 30033 AZUL                                     PC    000000000000000000000000000
752016080120160831128762        62079100SALLO 33902 MULTICOLOR                               PC    000000000000000000000000000
752016080120160831130356        62046900SET JEANS 2060 AZUL                                  PC    000000000000000000000000000
752016080120160831131683        62046900SET JEANS 2013 AZUL                                  PC    000000000000000000000000000
752016080120160831131685        62046900SET JEANS 2013 AZUL                                  PC    000000000000000000000000000
752016080120160831133808        62046200CROCKER 41410 BRANCO                                 PC    000000000000000000000000000
752016080120160831133811        62046200CROCKER 40002 AZUL                                   PC    000000000000000000000000000
752016080120160831133816        62046200CROCKER 39544 AZUL                                   PC    000000000000000000000000000
752016080120160831133822        62046200CROCKER 43011 AZUL                                   PC    000000000000000000000000000
752016080120160831134092        62046200MIAGGE 104 AZUL                                      PC    000000000000000000000000000
752016080120160831136759        61159600LUPO 3310 PRETO                                      PR    000000000000000000000000000
752016080120160831139919        62046200ENFASE 341246 ESTAMPADO                              PC    000000000000000000000000000
752016080120160831140684        61159900ELITE 017026 VERMELHO                                UN    000000000000000000000000000
752016080120160831140731        62046300ELITE 019923 PRETO                                   PC    000000000000000000000000000
752016080120160831140749        61062000ELITE 119053 PRETO                                   PC    000000000000000000000000000
752016080120160831142722        62121000DULOREN 131208 BERINJELA                             PC    000000000000000000000000000
752016080120160831144277        62044300ENFASE 341550 PRETO                                  PC    000000000000000000000000000
752016080120160831145284        61034300SALLO 73165 ESTAMPADO                                PC    000000000000000000000000000
752016080120160831149116        61102000ROVITEX 9180605 MULTICOLOR                           PC    000000000000000000000000000
752016080120160831151010        62046300ELITE 33644 ROSA                                     PR    000000000000000000000000000
752016080120160831153566        62171000AMERICA 3200639 MULTICOLOR                           UN    000000000000000000000000000
752016080120160831155733        42033000FASOLO T136074 PRETO                                 UN    000000000000000000000000000
752016080120160831155860        62045200ENFASE 151460 VINHO                                  PC    000000000000000000000000000
752016080120160831159420        000000  LANGER LINHAS 4040 LISTRADO                          PC    000000000000000000000000000
752016080120160831159437        000000  LANGER LINHAS 10075 ESTAMPADO                        PC    000000000000000000000000000
752016080120160831160499        65069000CLUB MAD 24AR MULTICOLOR                             UN    000000000000000000000000000
752016080120160831160554        62034200BREDA 2621007 MULTICOLOR                             PC    000000000000000000000000000
752016080120160831160749        62114200CUBO-CUBO 984201512 ESTAMPADO                        PC    000000000000000000000000000
752016080120160831160759        32044200CUBO-CUBO 588701549 ESTAMPADO                        PC    000000000000000000000000000
752016080120160831161439        62034200OPPNUS 2085 AZUL                                     PC    000000000000000000000000000
752016080120160831162193        65050012NICOBOCO 68477 MULTICOLOR                            UN    000000000000000000000000000
752016080120160831163153        61061000MALWEE 1018000021 MULTICOLOR                         PC    000000000000000000000000000
752016080120160831163851        61012000UNO 018 AZUL                                         PC    000000000000000000000000000
752016080120160831164200        61091000ACOSTAMENTO 65102154 MULTICOLOR                      PC    000000000000000000000000000
752016080120160831165704        62052000SANTORINE 24 SORTIDO                                 PC    000000000000000000000000000
752016080120160831165733        62046900OPCAO UNICA 01500 JEANS                              PC    000000000000000000000000000
752016080120160831165736        62046900OPCAO UNICA 01500 JEANS                              PC    000000000000000000000000000
752016080120160831165757        62046900OPCAO UNICA 00115 JEANS                              PC    000000000000000000000000000
752016080120160831168114        62079101SALLO 73401 MULTICOLOR                               PC    000000000000000000000000000
752016080120160831169249        62046200PO DE PANO 84156 AZUL                                PC    000000000000000000000000000
752016080120160831169794        10180007MALWEE 1018000008 MULTICOLOR                         PC    000000000000000000000000000
752016080120160831169803        10180007MALWEE 1020000098 MULTICOLOR                         PC    000000000000000000000000000
752016080120160831170256        62046200PO DE PANO 8939 XADREZ                               PC    000000000000000000000000000
752016080120160831170313        62042000PO DO PANO 86177 CORAL                               PC    000000000000000000000000000
752016080120160831170458        42022200LUCXEL NC14189LX ESTAMPADO                           UN    000000000000000000000000000
752016080120160831170460        40200010LUCXEL NC14190LX ESTAMPADO                           UN    000000000000000000000000000
752016080120160831170461        42201200LUCXEL FR12013LX MULTICOLOR                          UN    000000000000000000000000000
752016080120160831170970        61111200SELENE 4910001 MULTICOLOR                            UN    000000000000000000000000000
752016080120160831171109        62052000D CLASSE 0010 AZUL                                   PC    000000000000000000000000000
752016080120160831171554        62046200CRIATIVA 79 AZUL                                     PC    000000000000000000000000000
752016080120160831173055        62046200PO DO PANO  8372 CAFE                                PC    000000000000000000000000000
752016080120160831175054        61061000SANTORINE 18 MULTICOLOR                              PC    000000000000000000000000000
752016080120160831180917        62421000DULOREN 132296 BRANCO                                PC    000000000000000000000000000
752016080120160831181581        62034300TRAJETTUS 8053 MULTICOLOR                            PC    000000000000000000000000000
752016080120160831182104        61091000NICOBOCO 17057 MULTICOLOR                            PC    000000000000000000000000000
752016080120160831182230        61091000OCCY 104404 MULTICOLOR                               PC    000000000000000000000000000
752016080120160831183001        61012000UNO 031 AZUL                                         PC    000000000000000000000000000
752016080120160831183006        61012000UNO 031 AZUL                                         PC    000000000000000000000000000
752016080120160831184506        61034300ELITE 23225 MULTICOLOR                               PC    000000000000000000000000000
752016080120160831184780        61066100SEEDER 95 MULTICOLOR                                 PC    000000000000000000000000000
752016080120160831185871        61044200SIGOSTA 011783 MULTICOLOR                            PC    000000000000000000000000000
752016080120160831185874        61044200SIGOSTA 011783 MULTICOLOR                            PC    000000000000000000000000000
752016080120160831186697        62045900DANUTA 101120 MULTICOLOR                             PC    000000000000000000000000000
752016080120160831186700        62045900DANUTA 101120 MULTICOLOR                             PC    000000000000000000000000000
752016080120160831186888        61022000LEPOLL 221 MULTICOLOR                                PC    000000000000000000000000000
752016080120160831186980        62045900FARRAGUT 101054 MULTICOLOR                           PC    000000000000000000000000000
752016080120160831186982        62045900FARRAGUT 101054 MULTICOLOR                           PC    000000000000000000000000000
752016080120160831187035        62045900FARRAGUT 101084 MULTICOLOR                           PC    000000000000000000000000000
752016080120160831187037        62045900FARRAGUT 101084 MULTICOLOR                           PC    000000000000000000000000000
752016080120160831187150        62045900AUDACIA 100970 AZUL                                  PC    000000000000000000000000000
752016080120160831187834        64046900PIT BULL  8532 MULTICOLOR                            PC    000000000000000000000000000
752016080120160831188191        62046200PO DO PANO 8768 PRETO                                PC    000000000000000000000000000
752016080120160831189550        62034200PARIZI 24956Z AZUL                                   PC    000000000000000000000000000
752016080120160831189925        63034900BREDA 02631004 MULTICOLOR                            PC    000000000000000000000000000
752016080120160831189943        62034200BREDA 02621020 BEGE                                  PC    000000000000000000000000000
752016080120160831190240        08687004BREDA 08687004 MULTICOLOR                            UN    000000000000000000000000000
752016080120160831190497        42033000BAUATE 00161460045 MULTICOLOR                        UN    000000000000000000000000000
752016080120160831191145        62034200DELIZ W91029 AZUL                                    PC    000000000000000000000000000
752016080120160831192429        61119090BRASCOL 581932 MULTICOLOR                            UN    000000000000000000000000000
752016080120160831192753        62046200OPPNUS 2298 AZUL                                     PC    000000000000000000000000000
752016080120160831193375        62046200CRIATIVA 80 AZUL                                     PC    000000000000000000000000000
752016080120160831193671        61071100LUPO 515 MULTICOLOR                                  KIT   000000000000000000000000000
752016080120160831193899        61112000BRASCOL 517440 MULTICOLOR                            UN    000000000000000000000000000
752016080120160831194282        61071200SALLO 70129 MULTICOLOR                               KIT   000000000000000000000000000
752016080120160831194645        61159500LUPO 3245 MULTICOLOR                                 PR    000000000000000000000000000
752016080120160831194646        61159500LUPO 3245 MULTICOLOR                                 PR    000000000000000000000000000
752016080120160831194674        61153010LUPO 5530 MULTICOLOR                                 PC    000000000000000000000000000
752016080120160831195558        62046200UNO 02 AZUL                                          PC    000000000000000000000000000
752016080120160831195593        62046200UNO 003 AZUL                                         PC    000000000000000000000000000
752016080120160831196582        62046200ELUIS 145393 AZUL                                    PC    000000000000000000000000000
752016080120160831197676        61044900TRAJETTUS 7135 MULTICOLOR                            PC    000000000000000000000000000
752016080120160831197727        61044900TRAJETTUS 7136 ESTAMPADO                             UN    000000000000000000000000000
752016080120160831197750        61044900TRAJETTUS 7138 ESTAMPADO                             PC    000000000000000000000000000
752016080120160831197961        61052000ELITE 125309 MULTICOLOR                              PC    000000000000000000000000000
752016080120160831198016        61034300ELITE 1050 MULTICOLOR                                PC    000000000000000000000000000
752016080120160831200054        62096000CRIATIVA 0010 AZUL                                   PC    000000000000000000000000000
752016080120160831200058        62096000CRIATIVA 0010 AZUL                                   PC    000000000000000000000000000
752016080120160831201434        61112000TAMPINHA 2002A MULTICOLOR                            PC    000000000000000000000000000
752016080120160831201473        61112000TAMPINHA 2007A MULTICOLOR                            PC    000000000000000000000000000
752016080120160831201481        61112000TAMPINHA 2008A MULTICOLOR                            PC    000000000000000000000000000
752016080120160831201729        61112000PETIPETA 650 MULTICOLOR                              UN    000000000000000000000000000
752016080120160831201730        61112000PETIPETA 670 MULTICOLOR                              PC    000000000000000000000000000
752016080120160831201731        61112000PETIPETA 682 MULTICOLOR                              UN    000000000000000000000000000
752016080120160831201735        61112000PETIPETA 664 MULTICOLOR                              UN    000000000000000000000000000
752016080120160831201877        61112000BRASCOL 742583 MULTICOLOR                            PC    000000000000000000000000000
752016080120160831202003        61112000BRASCOL 753788 MULTICOLOR                            PC    000000000000000000000000000
752016080120160831202244        39249000BRASCOL 709452 MULTICOLOR                            KIT   000000000000000000000000000
752016080120160831202687        62079910SALLO 34549 MULTICOLOR                               PC    000000000000000000000000000
752016080120160831203973        62032200SANTORINE 50 MULTICOLOR                              PC    000000000000000000000000000
752016080120160831204113        62034200NICOBOCO 42431E MULTICOLOR                           PC    000000000000000000000000000
752016080120160831204836        61061000PIMENTINHA 2007 MULTICOLOR                           PC    000000000000000000000000000
752016080120160831206512        61051000SEEDER 00106 MULTICOLOR                              PC    000000000000000000000000000
752016080120160831208482        61061000MALWEE 4488 MULTICOLOR                               PC    000000000000000000000000000
752016080120160831208497        61061000MALWEE 4499 MULTICOLOR                               PC    000000000000000000000000000
752016080120160831208517        61061000MALWEE 5164 MULTICOLOR                               PC    000000000000000000000000000
752016080120160831208764        62046200UNO 001 MULTICOLOR                                   PC    000000000000000000000000000
752016080120160831208765        62046200UNO 001 MULTICOLOR                                   PC    000000000000000000000000000
752016080120160831208767        62046200UNO 001 MULTICOLOR                                   PC    000000000000000000000000000
752016080120160831208812        62046200UNO 018 MULTICOLOR                                   PC    000000000000000000000000000
752016080120160831208827        62046200UNO 02 AZUL                                          PC    000000000000000000000000000
752016080120160831208828        62046200UNO 01 AZUL                                          PC    000000000000000000000000000
752016080120160831213529        62034200PO DO PANO 94114 PRETO                               PC    000000000000000000000000000
752016080120160831213892        62034200COOKS 4328 AZUL                                      PC    000000000000000000000000000
752016080120160831214267        62046200UNO 05 MULTICOLOR                                    PC    000000000000000000000000000
752016080120160831214268        62046200UNO 05 MULTICOLOR                                    PC    000000000000000000000000000
752016080120160831214269        62046200UNO 05 MULTICOLOR                                    PC    000000000000000000000000000
752016080120160831214277        62046200UNO 010 AZUL                                         PC    000000000000000000000000000
752016080120160831215933        61082100FOLLY 332 MULTICOLOR                                 KIT   000000000000000000000000000
752016080120160831216064        62171000MAVE BABY 3004 ROSA                                  UN    000000000000000000000000000
752016080120160831216459        62063000UNO 040 AZUL                                         PC    000000000000000000000000000
752016080120160831217049        62046200OPPNUS 2872 AZUL                                     PC    000000000000000000000000000
752016080120160831217184        61013000MARESIA 19100031 MULTICOLOR                          PC    000000000000000000000000000
752016080120160831217945        61089900PARADELLAS 098 ESTAMPADO                             PC    000000000000000000000000000
752016080120160831218464        62063000UNO 007 AZUL                                         PC    000000000000000000000000000
752016080120160831218470        62046200UNO 0190 AZUL                                        PC    000000000000000000000000000
752016080120160831218471        62046200UNO 0190 AZUL                                        PC    000000000000000000000000000
752016080120160831219268        62046200CRIATIVA 48 AZUL                                     PC    000000000000000000000000000
752016080120160831219429        62046200UNO 004 AZUL                                         PC    000000000000000000000000000
752016080120160831219733        61159500LUPO 2011 MULTICOLOR                                 PR    000000000000000000000000000
752016080120160831219889        62046200PO DO PANO 9231 MULTICOLOR                           PC    000000000000000000000000000
752016080120160831220394        62044200JAMMAB 1250 ESTAMPADO                                PC    000000000000000000000000000
752016080120160831220826        61091000NICOBOCO 13779 MULTICOLOR                            PC    000000000000000000000000000
752016080120160831221120        62069000SEMORAN 1221076 MULTICOLOR                           PC    000000000000000000000000000
752016080120160831221122        62069000SEMORAN 1221076 MULTICOLOR                           PC    000000000000000000000000000
752016080120160831221133        62096000SEMORAN 122571 MULTICOLOR                            PC    000000000000000000000000000
752016080120160831221136        62069000SEMORAN 15910 MULTICOLOR                             PC    000000000000000000000000000
752016080120160831221137        62069000SEMORAN 15910 MULTICOLOR                             PC    000000000000000000000000000
752016080120160831221154        62069000SEMORAN 090301 MULTICOLOR                            PC    000000000000000000000000000
752016080120160831221362        61041990IL SOLE 16010 AZUL                                   PC    000000000000000000000000000
752016080120160831221468        61112000PARKINHO 3756 MULTICOLOR                             PC    000000000000000000000000000
752016080120160831221516        61112000PARKINHO 3957 MULTICOLOR                             PC    000000000000000000000000000
752016080120160831222045        62063000CUBO CUBO 160015724 MULTICOLOR                       PC    000000000000000000000000000
752016080120160831222358        62052000PATRULHA 3010 MULTICOLOR                             PC    000000000000000000000000000
752016080120160831222542        62092000PATRULHA 4001 MULTICOLOR                             PC    000000000000000000000000000
752016080120160831222801        94049000BRASCOL 775698 ESTAMPADO                             PC    000000000000000000000000000
752016080120160831223138        42022210LUXCEL BG70759 MULTICOLOR                            PC    000000000000000000000000000
752016080120160831223382        96160000BRASCOL 69499 BRANCO                                 PC    000000000000000000000000000
752016080120160831224021        61112000BRASCOL 7707 MULTICOLOR                              PC    000000000000000000000000000
752016080120160831224039        61112000BRASCOL 7508 MULTICOLOR                              PC    000000000000000000000000000
752016080120160831224095        61112000BRASCOL 77 MULTICOLOR                                PC    000000000000000000000000000
752016080120160831224345        61112000BRASCOL 773 MULTICOLOR                               PC    000000000000000000000000000
752016080120160831224388        63013000BRASCOL 689763 MULTICOLOR                            PC    000000000000000000000000000
752016080120160831224496        61112000BRASCOL 79800 MULTICOLOR                             PC    000000000000000000000000000
752016080120160831224503        61119090BRASCOL 778 MULTICOLOR                               PC    000000000000000000000000000
752016080120160831224505        61119090BRASCOL 778 MULTICOLOR                               PC    000000000000000000000000000
752016080120160831224776        62034200OPPNUS 2838 AZUL                                     PC    000000000000000000000000000
752016080120160831224777        62034200OPPNUS 2838 AZUL                                     PC    000000000000000000000000000
752016080120160831224937        0       LANGER LINHAS 1051 MULTICOLOR                        PC    000000000000000000000000000
752016080120160831224955        0       LANGER LINHAS 10071 MULTICOLOR                       PC    000000000000000000000000000
752016080120160831225049        61022000LEPOLL 002 MULTICOLOR                                PC    000000000000000000000000000
752016080120160831225275        61034900PAYLOT 5 MULTICOLOR                                  PC    000000000000000000000000000
752016080120160831225346        62045900FARRAGUT 101577 AZUL                                 PC    000000000000000000000000000
752016080120160831225378        62045900FARRAGUT 101676 ESTAMPADO                            PC    000000000000000000000000000
752016080120160831225380        62045900FARRAGUT 101676 ESTAMPADO                            PC    000000000000000000000000000
752016080120160831225381        62045900FARRAGUT 101676 ESTAMPADO                            PC    000000000000000000000000000
752016080120160831226232        61051000SEEDER 133 MULTICOLOR                                PC    000000000000000000000000000
752016080120160831226256        61051000SEEDER 117 MULTICOLOR                                PC    000000000000000000000000000
752016080120160831226258        61051000SEEDER 117 MULTICOLOR                                PC    000000000000000000000000000
752016080120160831226281        61051000SEEDER 127 MULTICOLOR                                PC    000000000000000000000000000
752016080120160831226344        62063000UNO 15M MOSTARDA                                     PC    000000000000000000000000000
752016080120160831226345        62063000UNO 15M MOSTARDA                                     PC    000000000000000000000000000
752016080120160831226347        62063000UNO 15M MOSTARDA                                     PC    000000000000000000000000000
752016080120160831226549        61071200LUPO 00128 MULTICOLOR                                PC    000000000000000000000000000
752016080120160831226555        61071100LUPO 00141 MULTICOLOR                                PC    000000000000000000000000000
752016080120160831226598        61071100LUPO 00523 MULTICOLOR                                PC    000000000000000000000000000
752016080120160831226599        61071100LUPO 00523 MULTICOLOR                                PC    000000000000000000000000000
752016080120160831226612        61071200LUPO 00621 MULTICOLOR                                PC    000000000000000000000000000
752016080120160831227135        62046200OPPNUS 2884 AZUL                                     PC    000000000000000000000000000
752016080120160831228680        62046900SET JEANS 3521 AZUL                                  PC    000000000000000000000000000
752016080120160831230127        61051000MALWEE 11643 MULTICOLOR                              PC    000000000000000000000000000
752016080120160831230429        000000  01V MULTICOLOR                                       PC    000000000000000000000000000
752016080120160831230783        62034200PO DO PANO 9724 CINZA                                PC    000000000000000000000000000
752016080120160831230813        62046200PO DO PANO 91153 AZUL                                PC    000000000000000000000000000
752016080120160831230814        62046200PO DO PANO 91153 AZUL                                PC    000000000000000000000000000
752016080120160831230831        61062000DI PAULA 110012 MULTICOLOR                           PC    000000000000000000000000000
752016080120160831230910        61046300DI PAULA 170032 MULTICOLOR                           PC    000000000000000000000000000
752016080120160831230934        61046300DI PAULA 170016 MULTICOLOR                           PC    000000000000000000000000000
752016080120160831230976        61062300DI PAULA 110067 MULTICOLOR                           PC    000000000000000000000000000
752016080120160831231656        62053000D CLASSE 30351000 MULTICOLOR                         PC    000000000000000000000000000
752016080120160831232256        62046200UNO 19F AZUL                                         PC    000000000000000000000000000
752016080120160831232311        62034300ELITE 34285 MULTICOLOR                               PC    000000000000000000000000000
752016080120160831233000        62034200DELIZ KW1 MULTICOLOR                                 PC    000000000000000000000000000
752016080120160831233038        61091000MARESIA 11100033 MULTICOLOR                          PC    000000000000000000000000000
752016080120160831234146        61051000PIMENTINHA 2247 MULTICOLOR                           PC    000000000000000000000000000
752016080120160831235141        62046200UNO 16B MULTICOLOR                                   PC    000000000000000000000000000
752016080120160831236081        62052000D CLASSE 14 MULTICOLOR                               PC    000000000000000000000000000
752016080120160831236426        62079100SALLO 33927 MULTICOLOR                               PC    000000000000000000000000000
752016080120160831237769        91021110CHAMPION CA301332T MULTICOLOR                        UN    000000000000000000000000000
752016080120160831237893        62171000MAVE BABY 1014 MARROM                                PC    000000000000000000000000000
752016080120160831238909        61119090SONINHO 2345 MULTICOLOR                              KIT   000000000000000000000000000
752016080120160831240882        42023100FASOLO H045143 PRETO                                 UN    000000000000000000000000000
752016080120160831240885        62171000FASOLO G164189 MULTICOLOR                            UN    000000000000000000000000000
752016080120160831240914        62034200ZATRICK 10318 AZUL                                   PC    000000000000000000000000000
752016080120160831240922        62034200ZATRICK 10319 AZUL                                   PC    000000000000000000000000000
752016080120160831240930        62034200ZATRICK 10321 AZUL                                   PC    000000000000000000000000000
752016080120160831241124        62034200ZATRICK 10350 AZUL                                   PC    000000000000000000000000000
752016080120160831241154        62034200ZATRICK  20205 MULTICOLOR                            PC    000000000000000000000000000
752016080120160831241162        62034200ZATRICK 20211 MULTICOLOR                             PC    000000000000000000000000000
752016080120160831241168        62034200ZATRICK 20211 MULTICOLOR                             PC    000000000000000000000000000
752016080120160831242699        61091000PACO 50215 MULTICOLOR                                PC    000000000000000000000000000
752016080120160831242714        61091000PACO 50254 MULTICOLOR                                PC    000000000000000000000000000
752016080120160831243622        42023100NAIPPE 018 MULTICOLOR                                UN    000000000000000000000000000
752016080120160831243626        42023100NAIPPE 017 MULTICOLOR                                UN    000000000000000000000000000
752016080120160831244227        90041000SALLO 540869 MULTICOLOR                              UN    000000000000000000000000000
752016080120160831244241        90041000SALLO 1159B MULTICOLOR                               UN    000000000000000000000000000
752016080120160831244285        62079910SALLO 1007F MULTICOLOR                               PC    000000000000000000000000000
752016080120160831244286        62079910SALLO 1007F MULTICOLOR                               PC    000000000000000000000000000
752016080120160831244287        62079910SALLO 1007F MULTICOLOR                               PC    000000000000000000000000000
752016080120160831244292        62079910SALLO 1005D MULTICOLOR                               PC    000000000000000000000000000
752016080120160831244320        61034000SALLO 10100531 MULTICOLOR                            PC    000000000000000000000000000
752016080120160831244323        61034000SALLO 10100531 MULTICOLOR                            PC    000000000000000000000000000
752016080120160831244332        61034000SALLO 10100515 MULTICOLOR                            PC    000000000000000000000000000
752016080120160831244511        61051000SEEDER 101029 MULTICOLOR                             PC    000000000000000000000000000
752016080120160831244523        61051000SEEDER 101034 MULTICOLOR                             PC    000000000000000000000000000
752016080120160831244536        61051000SEEDER 101035 MULTICOLOR                             PC    000000000000000000000000000
752016080120160831244537        61051000SEEDER 101035 MULTICOLOR                             PC    000000000000000000000000000
752016080120160831244538        61051000SEEDER 101035 MULTICOLOR                             PC    000000000000000000000000000
752016080120160831244544        61051000SEEDER 101038 MULTICOLOR                             PC    000000000000000000000000000
752016080120160831244545        61051000SEEDER 101038 MULTICOLOR                             PC    000000000000000000000000000
752016080120160831244571        61091000SEEDER 301003 MULTICOLOR                             PC    000000000000000000000000000
752016080120160831244584        61091000SEEDER 301004 MULTICOLOR                             PC    000000000000000000000000000
752016080120160831244585        61091000SEEDER 301004 MULTICOLOR                             PC    000000000000000000000000000
752016080120160831244588        61091000SEEDER 301004 MULTICOLOR                             PC    000000000000000000000000000
752016080120160831244612        61091000MARESIA 10122409 MULTICOLOR                          PC    000000000000000000000000000
752016080120160831244630        61091000MARESIA 10626729 MULTICOLOR                          PC    000000000000000000000000000
752016080120160831244631        61091000MARESIA 10626729 MULTICOLOR                          PC    000000000000000000000000000
752016080120160831244636        61091000MARESIA 11100042 MULTICOLOR                          PC    000000000000000000000000000
752016080120160831244637        61091000MARESIA 11100042 MULTICOLOR                          PC    000000000000000000000000000
752016080120160831244647        61091000MARESIA 11100056 MULTICOLOR                          PC    000000000000000000000000000
752016080120160831244656        61091000MARESIA 10122316 MULTICOLOR                          PC    000000000000000000000000000
752016080120160831244698        61091000MARESIA 11100070 MULTICOLOR                          PC    000000000000000000000000000
752016080120160831244737        61091000MARESIA 10382058 MULTICOLOR                          PC    000000000000000000000000000
752016080120160831244745        61091000MARESIA 10002834 MULTICOLOR                          PC    000000000000000000000000000
752016080120160831244971        61091000MARESIA 10122344 MULTICOLOR                          PC    000000000000000000000000000
752016080120160831245053        61091000PACO 50281 MULTICOLOR                                PC    000000000000000000000000000
752016080120160831246017        62046200CRIATIVA 82 AZUL                                     PC    000000000000000000000000000
752016080120160831246021        62046200CRIATIVA 192 AZUL                                    PC    000000000000000000000000000
752016080120160831246027        62046200CRIATIVA 215 AZUL                                    PC    000000000000000000000000000
752016080120160831246038        62046200CRIATIVA 81 AZUL                                     PC    000000000000000000000000000
752016080120160831246782        62046200OPPNUS 3166 MULTICOLOR                               PC    000000000000000000000000000
75201608012016083153791         62046200OPPNUS 874 JEANS                                     PC    000000000000000000000000000
75201608012016083158785         61115900SELENE 1300052 ESTAMPADO                             UN    000000000000000000000000000
75201608012016083160743         61071100LUPO 467001 MULTICOLOR                               UN    000000000000000000000000000
75201608012016083160763         61071100LUPO 632001 MULTICOLOR                               UN    000000000000000000000000000
75201608012016083160778         61071200LUPO 691002 MULTICOLOR                               UN    000000000000000000000000000
75201608012016083160822         61071100LUPO 515089 KIT3 MULTICOLOR                          UN    000000000000000000000000000
75201608012016083171543         62114300MIMAR 1939005 PRETO                                  PC    000000000000000000000000000
75201608012016083173020         61153010LUPO 553001 LOBA PO DE ARROZ                         UN    000000000000000000000000000
75201608012016083176184         62114300MIMAR 1838004 PRETO                                  PC    000000000000000000000000000
75201608012016083176187         62114300MIMAR 1838007 PRETO                                  PC    000000000000000000000000000
75201608012016083179600         61071100SALLO 70060 MULTICOLOR                               PC    000000000000000000000000000
75201608012016083180272         61159500SELENE 7060027 MULTICOLOR                            UN    000000000000000000000000000
75201608012016083192132         62122000LUPO 5690 LOBA  PO DE ARROZ                          UN    000000000000000000000000000
75201608012016083192133         62122000LUPO 5690 LOBA  PO DE ARROZ                          UN    000000000000000000000000000
75201608012016083193856         64025900AUDACIA 004110882AU JEANS                            PC    000000000000000000000000000
75201608012016083194542         62079910SALLO 33900 MULTICOLOR                               PC    000000000000000000000000000
75201608012016083197518         62046900SET JEANS 01492 AZUL                                 PC    000000000000000000000000000
75201608012016083197603         62046900SET JEANS 01272 BRANCO                               PC    000000000000000000000000000
75201608012016083197605         62046900SET JEANS 01272 BRANCO                               PC    000000000000000000000000000
90144056500001210018507470068 500000013651000001365300000000540000031475000002909900000879                                   1
